:100000000C9463000C948B000C948B000C948B006C
:100010000C948B000C948B000C948B000C948B0034
:100020000C948B000C948B000C948B000C94E011BE
:100030000C948B000C948B000C948B000C948B0014
:100040000C94680F0C948B000C94510D0C942B0D98
:100050000C948B000C948B000C948B000C948B00F4
:100060000C9430100C948B00000000002500280038
:100070002B000000000023002600290004040404D3
:100080000404040402020202020203030303030342
:10009000010204081020408001020408102001021F
:1000A00004081020000000080002010000030407FB
:1000B00000000000000000000000000024002700F5
:1000C0002A00E817E71711241FBECFEFD8E0DEBFE4
:1000D000CDBF12E0A0E0B1E0EAE4F7E302C0059092
:1000E0000D92A230B107D9F725E0A2E0B2E001C03D
:1000F0001D92A934B207E1F710E0C2E6D0E004C0D7
:100100002197FE010E945E19C136D107C9F70E94EE
:10011000B7140C94981B0C940000833028F4E82F3B
:10012000F0E0ED5AFD4F60830895863000F5409170
:1001300072025091730221E030E0672B61F4B90143
:1001400002C0660F771F8A95E2F7CB0180959095E4
:100150008423952308C002C0220F331F8A95E2F73B
:10016000CA01822B932B909373028093720208959D
:10017000833008F062C0482F440F440F440F485F9B
:10018000453108F044E1582F550F550F550F90E0B9
:1001900071E05417F0F42EEF250F2231B8F4252F1B
:1001A00030E0F901EC58FD4FE081E23078F4972B14
:1001B000220F331FF901E75DFD4FA1E0B0E0272FCB
:1001C000262311F4A0E0B0E0B183A083770F5F5F36
:1001D000E0CF81110AC09C7FF8948BB1292F209524
:1001E00082236923682B6BB927C08130C1F469234E
:1001F000F89425B1892F8F7380958223262F2F7332
:10020000822B85B988B162956695669563709295E3
:1002100096959695937090959823692B0CC09F7036
:10022000F89428B1892F880F880F8095822369233D
:10023000660F660F682B68B9789408956F927F9265
:100240008F929F92AF92BF92CF92DF92EF92FF92E6
:100250000F931F93CF93DF931F92CDB7DEB7982FE5
:100260003B01843108F003C1082F10E0F801EC587D
:10027000FD4F8081833009F48FC0843009F0F7C0CE
:1002800092509C3008F0ECC0780182E0E81AF10846
:100290006701CC0CDD1C603282E078070CF042C0B4
:1002A00077FD05C0653B710524F4DB0104C0A0E0C7
:1002B00001C0A4EBB0E0F601EE0DFF1DE05EFA4FC9
:1002C000818128E830E04901881A910887FD9394DC
:1002D000880C991C880C991C092C000CAA08BB08D6
:1002E000828128E532E0281B310987FD3395220FF2
:1002F000331F220F331FA901330F660B770B9A01AF
:10030000AB01281939094A095B090E94E21824EB5C
:1003100030E040E050E00E94B818820E931EA41E08
:10032000B51E01C04B01F601EE0DFF1DE05EFA4F58
:1003300020812C3008F094C0318188E890E0831B44
:10034000910937FD9395880F991F880F991F88167B
:10035000990684F0828148E552E0481B510987FDE7
:100360005395440F551F440F551FC4014815590597
:100370000CF4CA010297880F991F4FB7F89430E028
:10038000F901EE0FFF1F2E0F3F1FF901E550FB4F44
:10039000928381834FBF64C0933049F08BEF890F04
:1003A000823028F087EF890F833008F059C061E070
:1003B000892F99830E94C20E99816114710411F4EE
:1003C00060E005C08FEF6816710429F461E0892FA1
:1003D0000E94AC0D45C0F801EC55FF4FE491E330AD
:1003E000F9F048F4E130B9F0E230A1F584B580626B
:1003F00084BD68BC35C0E730E9F0E83019F1E4307D
:1004000049F58091800080628093800070928B001B
:1004100060928A0025C084B5806884BD67BC20C016
:100420008091800080688093800070928900609243
:10043000880016C08091B00080688093B000609200
:10044000B3000EC08091B00080628093B0006092D3
:10045000B40006C080E8681671040CF0B7CFB0CFC6
:10046000000F111FF801E75DFD4F718260820F9050
:10047000DF91CF911F910F91FF90EF90DF90CF9080
:10048000BF90AF909F908F907F906F900895BF9294
:10049000CF92DF92EF92FF920F931F93CF93DF9350
:1004A00000D0CDB7DEB7B82E8B01C82ED12CC60137
:1004B0008C589D4F7C01FC018081863061F48091D5
:1004C0004405882341F06630710529F010924405F7
:1004D0008FEF809300014EEF4B0D4C30C8F4043089
:1004E0001105B1F0C6010297FC01EE0FFF1F8E0F40
:1004F0009F1FFC01E05EFA4FE081F0E0CF01880F22
:10050000991FE80FF91FE550FB4F808186FDD3C08E
:1005100092EF9B0D963070F461E070E002301105AF
:1005200011F060E070E0892F49839A830E94950062
:100530009A8149814231C8F4EB2DE695E695E6951E
:100540008B2D8770F0E0E359FC4F21E030E001C0D3
:10055000220F8A95EAF70115110519F48081282BDD
:1005600003C02095808128232083F601EE0FFF1F12
:10057000E75DFD4F118210820230110591F03CF4CD
:1005800001151105E9F00130110541F185C0043074
:10059000110509F44AC07CF10630110509F474C054
:1005A0007BC0963008F08AC0423140F460E08B2D69
:1005B0000E94C20E60E08B2D0E94AC0D82E069C0EB
:1005C000423108F07BC060E08B2D0E94C20E60E0DB
:1005D0008B2D0E94AC0DF701108270C0423108F0E3
:1005E0006DC060E08B2D0E94AC0D61E08B2D0E94F0
:1005F000C20E81E04EC0F3E0BF1649F08BEF8B0DC9
:10060000823028F087EF8B0D833008F057C061E00F
:100610008B2D0E94C20E61E08B2D0E94C20E60E005
:100620008B2D0E94AC0D83E034C04C3008F046C0E6
:1006300084E0F7018083C60102979C01220F331FDB
:10064000820F931F805E9A4FFC01208130E0F901F8
:10065000EE0FFF1F2E0F3F1FF901E550FB4F2081CA
:1006600026FD2CC020E639E040E252E0B6010F90B2
:100670000F90DF91CF911F910F91FF90EF90DF903E
:10068000CF90BF900C945E118EEE8B0D8230B0F443
:1006900086E0F701808312C089E291E00F900F900D
:1006A000DF91CF911F910F91FF90EF90DF90CF904E
:1006B000BF900C9461138F7B80832ACF0F900F9093
:1006C000DF91CF911F910F91FF90EF90DF90CF902E
:1006D000BF900895EF92FF920F931F93CF93DF93F4
:1006E000D82F8B01C42F6F3F8FEF7807B1F081E0D7
:1006F00080934603D09368031092470310926903D6
:100700008FEE94E00E946A0E0E94E21380915102E3
:10071000909152020E94FE0E02C000E010E0809113
:1007200045038111FCCF2C2FC13208F020E281E07B
:1007300080934503809344039FEF9093430310926B
:100740004203920F909341038093200380912003F2
:100750009D2F990F892B8093200380911F03813057
:1007600061F410921F03809120038093BB0080915D
:10077000BC0083FDF8CF85EC01C085EE8093BC0002
:10078000809145038130E1F380914203821710F498
:1007900020914203A1E2B3E040E952E0FA018E2F3A
:1007A000841B821718F48D918193F9CF1092B102B6
:1007B0002093B002EC2EF12C30E0E216F306A1F407
:1007C000D09302020093030200E010E00E151F0513
:1007D000ACF48FEE94E00E941E0EF801EE5FFD4F28
:1007E00082830F5F1F4FF2CF2E153F051CF48AE363
:1007F00091E002C082E691E00E94611362E06C0F1A
:1008000042E052E087E7DF91CF911F910F91FF9077
:10081000EF900C9428132F923F924F925F926F9219
:100820007F928F929F92AF92BF92CF92DF92EF9280
:10083000FF920F931F93CF93DF93CDB7DEB76897E7
:100840000FB6F894DEBF0FBECDBF182F062F7A016A
:100850001A8219821C821B821E821D8240E050E097
:1008600068EA71E0CE0101960E94D20C103709F4BB
:1008700035C1E0F41B3609F4A5C188F4113509F43B
:1008800075C4193609F023C780EF90E00E94B912B1
:100890008AE690E00E94B91202EF1FEF4CC21D36AB
:1008A00009F4F4C11F3609F46CC111C7163779F089
:1008B00038F4143709F424C3153709F440C207C7C4
:1008C000183709F4C0C01A3709F444C100C7D7016A
:1008D00011968C91282F287185FF03C089E891E03B
:1008E00057C0F7018081283061F168F42111EFC60B
:1008F00091E090934603809368031092470310920F
:10090000690312E006C02031E1F0283109F454C037
:10091000DEC6101778F4F701E10FF11D81816081C7
:10092000F0E88F9F601911248FEE94E00E946A0E08
:100930001E5FEFCF0E94E21383E191E00197F1F790
:10094000C6C6D70113969C91139712964C91063008
:1009500071F4642FB0E89B9F60191124F701358171
:100960009481492FF0E83F9F4019112405C030E8D9
:10097000939F401911246FEF283021F470E00E94FA
:100980006A03A5C6E0910001E7302CF089EA91E006
:100990000E9461139CC6EF5FE09300010E2E000CD5
:1009A000FF0B9F01220F331FE20FF31FE65AFD4F8B
:1009B0008083618342838BC670910001171624F0F7
:1009C0008FEF8093000183C660E0472F072E000C55
:1009D000550B262F30E0421753076CF0F901EE0F4C
:1009E000FF1F2E0F3F1FF901E65AFD4F9081981708
:1009F00009F16F5FEECF60E01DC06830D0F4DC011C
:100A000011969D01220F331FA20FB31FA65ABD4F8F
:100A10002C91FC01EE0FFF1F8E0F9F1FFC01E65A69
:100A2000FD4F208311968C911197818312968C91A2
:100A300082836F5F862F90E048175907F4F6715054
:100A40007093000144C6D7012C9111968C91B0E8A7
:100A50008B9FC0011124820F911D009721F090936C
:100A600052028093510280914405811130C610E0FA
:100A70008EEE810F823028F466E070E0812F0E94B4
:100A800047021F5F1431A1F781E080934405109263
:100A9000B1021092B00210924703109269031092B3
:100AA00045038093440310921F0361E082E10E949A
:100AB000AC0D61E083E10E94AC0D8091B9008E7FA6
:100AC0008093B9008091B9008D7F8093B90088E44C
:100AD0008093B80085E48093BC00F9C5053008F424
:100AE000F6C5F701108191814281538124818EEFF7
:100AF000810F8C3008F0EBC5612F70E0DB0112979D
:100B0000FD01EE0FFF1FAE0FBF1FA05EBA4FEC91AD
:100B1000F0E07F01EE0CFF1CEE0DFF1DE550FB4FDA
:100B2000808186FF02C08F7B8083F0E82F9F900139
:100B30001124250F311D80E8489FA0011124490F81
:100B4000511DCD010E945E1164E070E0812F0E9472
:100B50004702BDC5023008F4BAC5D7012C911196E1
:100B60008C91B0E88B9FC0011124820F911D8A30B7
:100B7000910514F48AE090E09093020180930101C2
:100B8000A6C5023008F4A3C5F701618170E0023008
:100B9000A1F08281F0E88F9FC0011124682B792B8E
:100BA000033059F0D70113968C9190E090E4899F1F
:100BB000902D88271124682B792BF70180810E94C2
:100BC0001E0185C580EF90E00E94B9128CE690E08E
:100BD0000E94B9121EEF84EF810F863048F482E044
:100BE00090E00E94B9128AE090E00E94B9120BC016
:100BF000113049F483E090E00E94B91288E090E05F
:100C00000E94B91208C08DEF810F823098F389EFEE
:100C1000810F833078F31C3040F484E090E00E9430
:100C2000B9128EE090E00E94B91280EF810F8230FD
:100C300040F486E090E00E94B91281E090E00E94CA
:100C4000B9128FE790E00E94B9121F5F123191F143
:100C5000123108F660E080E793E00E94240C81E006
:100C600090E00E94B91261E080E793E00E94240CBA
:100C700081E090E00E94B91265E780E793E00E946E
:100C8000240C81E090E00E94B912A5CF002309F462
:100C90001EC5D7010C9180EF90E00E94B9128EE63C
:100CA00090E00E94B912602F80E793E00E94240C2C
:100CB000043128F087EF90E00E94B91208C510E0D7
:100CC000F801EC58FD4F608180E793E00E94240C0E
:100CD000000F111FF801E75DFD4F00811181C80170
:100CE0008F7799270E94B912C8018078892B49F023
:100CF000C801880F892F881F990B8F7799270E9429
:100D0000B912C8018827907C892BA1F2C801990FDC
:100D1000880B990F982F881F8F7799270E94B912F7
:100D2000C9CF8FE790E00E94B9120F5F1F4F0630C6
:100D3000110509F4BFCF0630A0F7C801F4CFF701C1
:100D40009381828190FB87F990E0A0E0B0E0782F5A
:100D50006627552744278581948180FB97F9892F41
:100D600090E0A0E0B0E0DC0199278827840F951F70
:100D7000A61FB71F3185208530FB27F9820F911DF3
:100D8000A11DB11D2781868020FB87F8912CA12C05
:100D9000B12CBA2CA92C982C8824880E991EAA1E36
:100DA000BB1E818161E08130C1F480810E94C20E4E
:100DB00060E0D7018C910E94AC0D83E090E0019738
:100DC000F1F761E0F70180810E94AC0DC4010E943F
:100DD000FE0E60E0D7018C9113C0F70180810E9464
:100DE000AC0D83E090E00197F1F760E0D7018C91C2
:100DF0000E94AC0DC4010E94FE0E61E0F7018081EB
:100E00000E94AC0DD7011B968C911B971A968C9063
:100E10001A9780FB87F8912CA12CB12CB82CAA240E
:100E2000992488241D968C911D971C969C9180FB7B
:100E300097F9892F90E0A0E0B0E0DC01992788279E
:100E4000880E991EAA1EBB1EF7019189808990FB0E
:100E500087F9A5019401280F311D411D511DDA01AB
:100E6000C9012785868420FB87F8912CA12CB12C01
:100E7000BA2CA92C982C8824880E991EAA1EBB1E59
:100E800060E080810E94C20ED7018C9190E0FC014D
:100E9000E057FF4F6491FC01E458FF4FE491119635
:100EA0008C91882311F0462F01C040E0F0E0EE0F56
:100EB000FF1FEE58FF4F85919491950184013F707B
:100EC0000E947214611571058105910539F0DC01EC
:100ED000CB010196A11DB11DBF7003C080E090E061
:100EE000DC01F70120812F83B887A9879A878B8738
:100EF000AE01495F5F4F65E085E70E942813E7C3B5
:100F0000D70111961C911F82188619861A861B8696
:100F100061E0812F0E94C20E60E0812F0E94AC0D23
:100F200062E170E080E090E00E942E0F61E0812F8E
:100F30000E94AC0D8BE990E00197F1F760E0812F02
:100F40000E94C20E41E1C42E47E2D42E812F0E949E
:100F5000830D892B29F4B1E0CB1AD108B9F768C009
:100F600031E1C32E37E2D32E812F0E94830D0197EA
:100F700029F4E1E0CE1AD108B9F75AC098E2C92E97
:100F8000D12C07E0912CAA24A394B12C81E1682EE6
:100F900087E2782E812F0E94830D892B29F4F1E0BE
:100FA0006F1A7108B9F744C00E94090F1B012C0188
:100FB000B1E16B2EB7E27B2E812F0E94830D01974A
:100FC00029F421E0621A7108B9F732C00E94090FB2
:100FD000DC01CB0182199309A409B5098997A10500
:100FE000B10578F0E7E0F0E0EC0FFD1FE90DF11D31
:100FF0002081C501002E01C0880F0A94EAF7822BD8
:101000008083011103C0939407E001C0015031E0D7
:10101000C31AD10809F0BACF8F8190E090932602CD
:1010200080932502898590E090932802809327027F
:1010300080EF0E94D51384E70E94D51384E70E94B5
:10104000D513D70111968C910E94D5138091270258
:101050009091280214E6189FB001199F700D112479
:101060004AE0CE0143960E94F30C809125029091B4
:101070002602189FB001199F700D11244AE0CE017D
:1010800007960E94F30C1E861D86188A1F861A8AF0
:10109000198A6F8178856115710539F04B855C85FA
:1010A000CE010D960E94D20C04C0CE010D960E9476
:1010B000C00C8F89988DEB88FC8809891A89E11406
:1010C000F10409F421C30097A9F0080F191FB80112
:1010D000CE010D960E94990C882309F415C32D8525
:1010E0003E8589899A89B701820F931F0E94821BCE
:1010F0001A8B098B6D857E856115710539F04989DB
:101100005A89CE0101960E94D20C04C0CE010196EC
:101110000E94C00C8D859E850E94F9198F8198854B
:101120000E94F9198B899C890E94F919ED80FE8033
:1011300000E010E0FF240E151F05A4F48D819E81B0
:101140000817190748F489819A81009729F0FC0152
:10115000E00FF11F808101C080E00E94D5130F5F76
:101160001F4FE9CF87EF0E94D513B1C2002309F4C6
:10117000AEC2F7019081892F8F70833009F4E4C0EB
:1011800030F4813009F43AC1823061F0A0C2853078
:1011900009F4FCC108F47CC0863009F098C20E94B2
:1011A000DB0F95C280912402811191C280912302AC
:1011B00081118DC281E08093240240E0A9E0FA2EE3
:1011C0008091CC02481708F060C0842F90E0BC01E9
:1011D0006E547D4FDB012C91222309F452C0C09044
:1011E000D002D090D102F89ED001F99EB00D11240A
:1011F000A35FBB4F16962D913C911797F9019081F3
:1012000018968C911897982B908314960D911C9199
:10121000159718965C9118978D919C9111979C0148
:10122000220F331F280F391F12968D919C9113970F
:10123000DC01AA0FBB1F8A0F9B1FF601E80FF91FE5
:10124000D8019C91852F8095C82EC922592B9FB714
:10125000F8942E0F3F1FE217F30789F0E190D801B1
:1012600088E05C9300C0E7FECC92EE0C00C000C0AA
:1012700000C008F4CC9200C08A9599F7ECCF9FBFCC
:101280007894DB011C924F5F9BCF109224021FC207
:10129000F7014181C28003818481909123029111E1
:1012A00016C290E0A0E0B0E015E1880F991FAA1FD8
:1012B000BB1F1A95D1F710E020E030E05EE0000F90
:1012C000111F221F331F5A95D1F7800F911FA21FA4
:1012D000B31F840F911DA11DB11DD12CE12CF12C48
:1012E00067E0CC0CDD1CEE1CFF1C6A95D1F7C80E24
:1012F000D91EEA1EFB1EC114D104E104F10491F4CD
:101300004091CA025091CB02CA01880F991F480F21
:10131000591F60E070E08091D0029091D1020E944C
:101320007B1BCCC100E010E08091CA029091CB02FF
:101330000817190708F0C2C1B701A601C8010E9429
:10134000B20F0F5F1F4FF0CF9181228153814481F3
:1013500085810681309123023111B9C1E92EF12C2A
:10136000B0E82B9FE00CF11C11242091CA023091AF
:10137000CB02E216F30668F510E020E030E065E10C
:10138000000F111F221F331F6A95D1F790E0A0E0D4
:10139000B0E07EE0880F991FAA1FBB1F7A95D1F796
:1013A000080F191F2A1F3B1F050F111D211D311D7D
:1013B00050E060E070E0E7E0440F551F661F771FC4
:1013C000EA95D1F7400F511F621F731FC7010E949A
:1013D000B20F2091CC02AAEBB2E080E090E082173D
:1013E00008F075C1FC014D915D910196E416F5067A
:1013F000B0F7EE54FD4F81E0808369C1913009F070
:1014000066C1033008F463C1909022020E94DB0F92
:10141000911014C08BEA089F812C112486944AEB0A
:10142000A42E42E0B42E0DE014E0E3E0EE0EF11C39
:10143000712C6624639452E0552E5FC03DE0C32EAC
:1014400034E0D32E10E0612FC6010E94ED0F1F5F24
:10145000F9E0CF0ED11C1830B1F7DCCFF601808156
:1014600090E025E0959587952A95E1F781309105E3
:1014700009F450C08230910509F451C0892B31F430
:101480001092CE026092CF025092CD02F7013197B6
:101490008081D7012C91B0E82B9F90011124280F57
:1014A000311DF80131832083772009F43FC0F50115
:1014B000329780819181280F391FD5012D933D935B
:1014C0005D01F80193838283C090CA02D090CB0261
:1014D00080819181C80ED91ED092CB02C092CA02DF
:1014E0008091CC028F5F8093CC027394075F1F4F73
:1014F000F3E0EF0EF11C7814E1F09701225031096E
:1015000069019110ABCFD9016C916F71C8010E9434
:10151000ED0FA4CF1092CF026092CE02B5CF109201
:10152000CD026092CF025092CE02B0CF80E090E028
:10153000C2CF8091D0029091D102009731F00E94E9
:10154000F9191092CB021092CA02C114D10409F405
:10155000BEC08601000F111F0C0D1D1DC8010E9489
:1015600064199093D1028093D002009751F0A801A2
:1015700060E070E00E947B1BD092CB02C092CA0256
:10158000A6C01092CB021092CA02A1C08181982FEE
:101590009F7109F493C085FB002700F9E92EEE0C3A
:1015A000E90E21E020932302F12C892E912C86FB59
:1015B000112710F986FF28C0C7010E9464195C0139
:1015C000009729F0A70160E070E00E947B1B0023D8
:1015D00039F06091CA027091CB026819790902C092
:1015E00060E070E0CB01880F991F680F791F809130
:1015F000D0029091D102680F791FA701C5010E9406
:10160000601B011186C019C00023B9F08091D0027F
:101610009091D1024091CA025091CB0248195909C8
:101620009A01220F331F420F531FBC018E0D9F1DC5
:101630000E94691B20E030E02FC08091D002909181
:10164000D1024091CA025091CB02481959099A011E
:10165000220F331F420F531FBC016E0D7F1D0E94CE
:10166000691B2091CA023091CB0228193909112334
:1016700099F0C901880F991F280F391F8091D00256
:101680009091D102A701B501820F931F0E94601BA8
:10169000C5010E94F91910C0C901880F991F280FB0
:1016A000391F8091D0029091D102A70160E070E0D3
:1016B000820F931F0E947B1B109223024091CC0249
:1016C00050E061E070E082EB92E00E947B1B898138
:1016D0009A810E94F91968960FB6F894DEBF0FBE82
:1016E000CDBFDF91CF911F910F91FF90EF90DF90D1
:1016F000CF90BF90AF909F908F907F906F905F90B2
:101700004F903F902F900895CE010D960E94C00CEF
:10171000F1CC8091D0029091D1024091CA025091B7
:10172000CB02481959099A01220F331F420F531F48
:10173000BC018E0D9F1D0E94691B20E030E099CFF7
:10174000CF92DF92EF92FF920F931F93CF93DF938D
:101750006C017A018B01C0E0D0E0CE15DF0589F085
:10176000D8016D918D01D601ED91FC910190F08130
:10177000E02DC6010995892B11F47E0102C0219646
:10178000ECCFC701DF91CF911F910F91FF90EF90A8
:10179000DF90CF900895FC01918D828D981761F0B4
:1017A000828DDF01A80FB11D5D968C91928D9F5F98
:1017B0009F73928F90E008958FEF9FEF0895FC0143
:1017C000918D828D981731F0828DE80FF11D858DF6
:1017D00090E008958FEF9FEF0895FC01918D228D89
:1017E000892F90E0805C9F4F821B91098F7399270E
:1017F000089580E793E00E94ED0B21E0892B09F426
:1018000020E0822F0895FC01848DDF01A80FB11D17
:10181000A35ABF4F2C91848D90E001968F73992726
:10182000848FA689B7892C93A089B1898C91806413
:101830008C93938D848D981306C00288F389E02DD4
:1018400080818F7D80830895EF92FF920F931F9385
:10185000CF93DF93EC0181E0888F9B8D8C8D981363
:1018600005C0E889F989808185FD24C0F62E0B8D9D
:1018700010E00F5F1F4F0F731127E02E8C8DE812C1
:101880000CC00FB607FCFACFE889F989808185FF83
:10189000F5CFCE010E94030CF1CF8B8DFE01E80F36
:1018A000F11DE35AFF4FF0820B8FEA89FB8980819B
:1018B000806207C0EE89FF896083E889F9898081A9
:1018C0008064808381E090E0DF91CF911F910F9140
:1018D000FF90EF900895CF93DF93EC01888D8823DC
:1018E000C9F0EA89FB89808185FD05C0A889B9898D
:1018F0008C9186FD0FC00FB607FCF5CF808185FF68
:10190000F2CFA889B9898C9185FFEDCFCE010E94D5
:10191000030CE7CFDF91CF91089580E090E0892B11
:1019200029F00E94F90B81110C94000008950E9487
:101930005B1B0F931F93CF93DF93EC0188819981F9
:10194000009729F02A813B812617370788F48B01FD
:101950006F5F7F4F0E94911A009761F0998388838F
:101960001B830A832C813D81232B11F4FC011082FF
:1019700081E001C080E0DF91CF911F910F91089528
:10198000CF93DF93EC0188819981009711F00E9439
:10199000F919198218821D821C821B821A82DF911A
:1019A000CF910895EF92FF920F931F93CF93DF9300
:1019B000EC017B018A01BA010E94990C811104C0DB
:1019C000CE010E94C00C07C01D830C83B701888123
:1019D00099810E94821BCE01DF91CF911F910F91BF
:1019E000FF90EF900895EF92FF920F931F93CF9384
:1019F000DF93CDB7DEB762970FB6F894DEBF0FBEA8
:101A0000CDBF8C01CB01F8011182108213821282AA
:101A10001582148250E09E012F5F3F4F7901B9017A
:101A20000E947818F70101900020E9F73197AF0183
:101A30004E195F09B701C8010E94D20C62960FB619
:101A4000F894DEBF0FBECDBFDF91CF911F910F91F4
:101A5000FF90EF9008951F920F920FB60F921124EE
:101A60002F933F934F935F936F937F938F939F93A6
:101A7000AF93BF93EF93FF9380E793E00E94030C33
:101A8000FF91EF91BF91AF919F918F917F916F9156
:101A90005F914F913F912F910F900FBE0F901F902C
:101AA00018951F920F920FB60F9211242F938F93B8
:101AB0009F93EF93FF93E0918003F09181038081E6
:101AC000E0918603F091870382FD12C0908180919E
:101AD00089038F5F8F7320918A03821751F0E09101
:101AE0008903F0E0E059FC4F958F8093890301C092
:101AF0008081FF91EF919F918F912F910F900FBE59
:101B00000F901F901895CF93DF93282F30E0F901A5
:101B1000EC55FF4F8491F901E057FF4FD491F90143
:101B2000E458FF4FC491CC2391F081110E94990E8B
:101B3000EC2FF0E0EE0FFF1FEE58FF4FA591B49190
:101B4000EC91ED2381E090E021F480E002C080E0A0
:101B500090E0DF91CF9108951F93CF93DF93282FCB
:101B600030E0F901EC55FF4F8491F901E057FF4F48
:101B7000D491F901E458FF4FC491CC23C9F0162F3A
:101B800081110E94990EEC2FF0E0EE0FFF1FE85933
:101B9000FF4FA591B4918FB7F894111105C09C9196
:101BA000ED2FE095E92302C0EC91ED2BEC938FBF74
:101BB000DF91CF911F91089585ED8093BC008091B6
:101BC000BC0084FDFCCF1092450308954091F502BE
:101BD000262F30E0240F311D21323105DCF4209115
:101BE00045032430C9F4FC0180E090E0861758F4E6
:101BF0003091F5022191DC01AD52BD4FA30FB11D13
:101C00002C930196F3CF8091F502680F6093F50253
:101C100080E0089581E0089582E008950895E091BC
:101C2000B1028091B002E81730F4F0E0E057FD4FC8
:101C3000808190E008958FEF9FEF08959091B10219
:101C40008091B002981750F4E92FF0E0E057FD4F73
:101C5000208130E09F5F9093B10202C02FEF3FEFF1
:101C6000C90108958091B00290E02091B102821BD9
:101C700091090895CF92DF92EF92FF920F931F93F5
:101C8000CF93DF937C01262F972F8A018091460303
:101C9000882391F0C62FD72F6E01C40ED51ECC1508
:101CA000DD0571F06991D701ED91FC910190F08112
:101CB000E02DC7010995F3CF642F822F0E94E60D16
:101CC000C801DF91CF911F910F91FF90EF90DF90AE
:101CD000CF900895CF93DF931F92CDB7DEB769837E
:101CE000209146032223D1F020916903203240F055
:101CF00021E030E0FC013383228380E090E015C0D6
:101D000080914703E82FF0E0E85BFC4F99819083D6
:101D10008F5F809347038093690305C061E0CE0124
:101D200001960E94E60D81E090E00F90DF91CF9147
:101D30000895833081F028F4813099F08230A1F049
:101D400008958730A9F08830B9F08430D1F48091BB
:101D500080008F7D03C0809180008F77809380000A
:101D6000089584B58F7702C084B58F7D84BD0895B2
:101D70008091B0008F7703C08091B0008F7D8093F9
:101D8000B0000895CF93DF9390E0FC01E057FF4F40
:101D90002491FC01E458FF4F8491882361F190E085
:101DA000880F991FFC01E854FF4FC591D491FC01A5
:101DB000E859FF4FA591B491611109C09FB7F894FC
:101DC0008881209582238883EC912E230BC062307A
:101DD00061F49FB7F8943881822F8095832388839C
:101DE000EC912E2B2C939FBF06C08FB7F894E881FF
:101DF0002E2B28838FBFDF91CF91089582309105DC
:101E000038F0880F991F880F991F05970197F1F7F0
:101E100008953FB7F89480911B0390911C03A09103
:101E20001D03B0911E0326B5A89B05C02F3F19F0D6
:101E30000196A11DB11D3FBFBA2FA92F982F88274A
:101E4000820F911DA11DB11DBC01CD0142E0660FA5
:101E5000771F881F991F4A95D1F708958F929F92F7
:101E6000AF92BF92CF92DF92EF92FF926B017C0113
:101E70000E94090F4B015C01C114D104E104F1047B
:101E8000F1F00E94090FDC01CB0188199909AA0918
:101E9000BB09883E9340A105B10570F321E0C21A49
:101EA000D108E108F10888EE880E83E0981EA11C95
:101EB000B11CC114D104E104F10419F7DDCFFF9086
:101EC000EF90DF90CF90BF90AF909F908F9008954C
:101ED0001F920F920FB60F9211242F933F938F935F
:101EE0009F93AF93BF938091560290915702A09118
:101EF0005802B091590230911A0323E0230F2D3775
:101F000020F40196A11DB11D05C026E8230F0296FD
:101F1000A11DB11D20931A0380935602909357027E
:101F2000A0935802B093590280911B0390911C0317
:101F3000A0911D03B0911E030196A11DB11D8093B8
:101F40001B0390931C03A0931D03B0931E03BF912A
:101F5000AF919F918F913F912F910F900FBE0F9056
:101F60001F9018959C01220F331F820F931F209101
:101F7000CF02E091D002F091D102E80FF91FE20FF9
:101F8000F11D60832091CE02E091D002F091D10248
:101F9000E80FF91FE20FF11D50832091CD02E0916F
:101FA000D002F091D1028E0F9F1FFC01E20FF11DB4
:101FB000408380E008951092CC021092CB021092E0
:101FC000CA02EAEBF2E0A2EBB2E0119211921D928A
:101FD00082E0EA3CF807C9F70895DC0170E0FB01F4
:101FE000E057FF4FE4911896EC93189764587F4F91
:101FF000FB018491E82FF0E0EE0FFF1FE859FF4F3F
:102000008591949115969C938E931497FB016491FE
:10201000E62FF0E0EE0FFF1FE854FF4F85919491FB
:1020200017969C938E9316970895FC01158216823D
:102030001782DC011896885B9F4F1D92A817B9077D
:10204000E1F71C92DF01A75BBF4F1D921C92ED567A
:10205000FF4F0190F081E02D309709F00994089529
:102060001F920F920FB60F9211242F933F934F930D
:102070005F936F937F938F939F93AF93BF93EF93F0
:10208000FF938091B900887F803609F49CC068F581
:10209000883209F45BC090F4803109F454C038F4FC
:1020A000882309F4F6C0883009F44DC0F6C08831A1
:1020B00009F44CC0803209F45DC0EFC0803409F4EB
:1020C00068C048F4803309F455C0883309F0E5C08E
:1020D00080934303D8C0803509F44FC0883509F494
:1020E0005DC0883409F0D9C0D6C0883909F4C7C0AA
:1020F000A8F4883709F467C038F4883609F463C057
:10210000803709F460C0C9C0883809F4B8C0803984
:1021100009F45FC0803809F0C0C05BC0803B09F49F
:1021200086C038F4803A09F466C0883A09F47FC062
:10213000B4C0803C09F4A7C0883C09F4A4C0883B23
:1021400009F48AC0AAC08091200310C09091420374
:1021500080914103981770F5E091420381E08E0F62
:1021600080934203F0E0EF5DFC4F80818093BB00E1
:1021700085EC86C0809343038EC0E091420381E0EA
:102180008E0F809342038091BB00F0E0EF5DFC4F27
:10219000808390914203809141036EC0E09142039D
:1021A00081E08E0F809342038091BB00F0E0EF5DF1
:1021B000FC4F80838091440381116DC081E0809346
:1021C0001F0384EA61C083E08093450310921903E2
:1021D000CFCF80911903803208F051C0E0911903EC
:1021E00081E08E0F809319038091BB00F0E0E750EF
:1021F000FD4F8083BDCF85EC8093BC0010924503DA
:1022000080911903803230F4E0911903F0E0E75037
:10221000FD4F10826091190370E0E091F702F09198
:10222000F80289EF92E009951092190336C084E014
:10223000809345031092F6021092F502E091F302AA
:10224000F091F40209958091F502811105C081E0B9
:102250008093F5021092D302E091F60281E08E0F96
:102260008093F602F0E0ED52FD4F80818093BB0039
:102270009091F6028091F502981708F479CF85E8DD
:102280008093BC000AC085EC8093BC00109245038B
:1022900004C0109243030E94DC0DFF91EF91BF91A7
:1022A000AF919F918F917F916F915F914F913F91EE
:1022B0002F910F900FBE0F901F901895DF92EF9205
:1022C000FF920F931F93CF93DF93EC01D62E7A01E9
:1022D000890188818C3008F06AC061E08D2D0E94F0
:1022E000C20E8881E82FF0E09F01220F331FE20F1A
:1022F000F31FE550FB4F9D2D9F732081207CD22E34
:10230000D92AD08260E272E0AB014E195F0957FF13
:1023100002C04D5F5F4F5595479555954795498349
:1023200040E659E09A01201B310B37FF02C02D5FB8
:102330003F4F35952795359527952A836CE00E9468
:1023400052199CE0899FB001112440E050E09A01AD
:10235000260F371FF901EE0FFF1F2E0F3F1FF90148
:10236000E550FB4F908196FD16C04F5F5F4F4C309C
:10237000510569F781110FC01092800082E08093AF
:1023800081001092850010928400B19A80916F00B4
:10239000826080936F00E881F0E0CF01880F991F81
:1023A000E80FF91FE550FB4F8081806480838881AE
:1023B000DF91CF911F910F91FF90EF90DF900895E3
:1023C0001F920F920FB60F9211242F933F934F93AA
:1023D0005F936F937F938F939F93AF93BF93EF938D
:1023E000FF938091D20287FF05C010928500109262
:1023F00084001BC02091D202022E000C330B80916E
:102400001F0590E02817390784F48091D202082E26
:10241000000C990BFC01EE0FFF1F8E0F9F1FFC019C
:10242000E550FB4F808186FD15C08091D2028F5F01
:102430008093D2022091D202022E000C330B8091A5
:102440001F0590E028173907C4F48091D2028C3020
:1024500064F113C08091D202082E000C990BFC018C
:10246000EE0FFF1F8E0F9F1FFC01E550FB4F808179
:1024700060E08F730E94AC0DD8CF80918400909162
:102480008500049680349C4918F480E49CE905C0DA
:1024900080918400909185000496909389008093A8
:1024A00088008FEF8093D2023BC02091840030914E
:1024B00085008091D202082E000C990BFC01EE0FD2
:1024C000FF1F8E0F9F1FFC01E550FB4F8181928102
:1024D000820F931F90938900809388008091D2028D
:1024E000082E000C990BFC01EE0FFF1F8E0F9F1F93
:1024F000FC01E550FB4F808186FF12C08091D20223
:10250000082E000C990BFC01EE0FFF1F8E0F9F1F72
:10251000FC01E550FB4F808161E08F730E94AC0DA0
:10252000FF91EF91BF91AF919F918F917F916F91AB
:102530005F914F913F912F910F900FBE0F901F9081
:1025400018958091550490915604DC01ED91FC9111
:102550000190F081E02D67EF0994809155049091EE
:102560005604DC01ED91FC910190F081E02D60EFCB
:102570000994682F80E793E00C94240C0F931F9329
:10258000CF93082F10E0F801E359FC4F9081C62F3C
:10259000C92306591C4FD8019C919C1771F1682FD3
:1025A0008091550490915604DC01ED91FC916F707F
:1025B00060690190F081E02D09958091550490911A
:1025C0005604DC01ED91FC916C2F6F770190F08146
:1025D000E02D09958091550490915604DC01ED9110
:1025E000FC916C2F70E0660F672F661F770B0190D0
:1025F000F081E02D0995F801C083CF911F910F91D3
:1026000008950F931F93CF93DF93EC0105E514E03A
:10261000D8018D919C91DC01ED91FC916C2F6F772D
:102620000190F081E02D0995F80180819181DC0114
:10263000ED91FC91CC0FCD2FCC1FDD0B6C2F6F7764
:102640000190F081E02DDF91CF911F910F910994BE
:10265000EF92FF920F931F93CF93DF9300D01F92BF
:10266000CDB7DEB7162F4A835B8389830E94AD12F4
:10267000A0915504B0915604ED91FC9111970190F1
:10268000F081E02D8981682FCD0109954A81042FC1
:10269000E42E5B81F52E8E2D801B811738F4F70117
:1026A00081917F0190E00E940113F5CF0F900F9070
:1026B0000F90DF91CF911F910F91FF90EF900C94AD
:1026C000A112FC0101900020E9F73197BF01681BBE
:1026D000790BAC0181E70C942813CF930E94AD12C3
:1026E0008091550490915604DC01ED91FC9101908C
:1026F000F081E02D69E70995809155049091560489
:10270000DC01ED91FC91A0915804B0915904019025
:10271000F081E02D6C9109958091550490915604BB
:10272000DC01ED91FC91A0915804B0915904019005
:10273000F081E02D11966C910995C2E080915704CB
:10274000C81760F4E0915804F0915904EC0FF11DA2
:10275000808190E00E940113CF5FF0CFCF910C9465
:10276000A112CF93DF93C5E5D4E088819981DC0184
:10277000ED91FC910190F081E02D69EF0995888140
:102780009981DC01ED91FC910190F081E02D62E0F6
:10279000099588819981DC01ED91FC910190F0818E
:1027A000E02D65E0DF91CF910994A0915504B0919F
:1027B0005604ED91FC9111970190F081E02D682F66
:1027C000CD0109942091690390916803213208F0AA
:1027D0004AC0809145038111FCCF32E0309345031C
:1027E00031E0309344033FEF3093430310924203B0
:1027F00020934103A8E4B3E041E253E0FA013E2F05
:10280000341B321718F43D913193F9CF1092200305
:1028100020912003990F922B9093200390911F03F6
:10282000913061F410921F03909120039093BB00AC
:102830009091BC0093FDF8CF95EC01C095EE90937C
:10284000BC00909145039230E1F3909143039F3F88
:1028500079F080914303803241F0809143038033CB
:1028600031F084E005C081E003C082E001C083E074
:102870001092470310926903109246030895CF9374
:1028800080914405882329F0109244058FEF8093AE
:1028900000011092530210926D0310926A0310927D
:1028A000540210926E0310926B0310925502109214
:1028B0006F0310926C03C0E082EF8C0F863018F427
:1028C00062E070E002C061E070E08C2F0E9447027D
:1028D000CF5FC43189F71092730210927202CF91C8
:1028E0000C94DB0FCF92DF92EF92FF920F931F9326
:1028F000E82FF92F05C0015011092109310961F1B3
:10290000908196239417B9F305C00150110921094C
:10291000310911F1908196239413F7CFC12CD12C5A
:10292000E12CF12C0AC08FEFC81AD80AE80AF80A7D
:102930000C151D052E053F0579F08081862384172F
:1029400091F36C2D7D2D8E2D9F2D1F910F91FF905A
:10295000EF90DF90CF90089560E070E080E090E02D
:102960001F910F91FF90EF90DF90CF900895789492
:1029700084B5826084BD84B5816084BD85B5826084
:1029800085BD85B5816085BD80916E008160809335
:102990006E0010928100809181008260809381009E
:1029A00080918100816080938100809180008160AE
:1029B000809380008091B10084608093B100809109
:1029C000B00081608093B00080917A008460809331
:1029D0007A0080917A00826080937A0080917A00F8
:1029E000816080937A0080917A00806880937A0079
:1029F0001092C1008DE0809357048091580490910B
:102A000059040E94F919C0915704D0E0CE010196F3
:102A10000E9464199093590480935804FC01EC0FB0
:102A2000FD1F108212E0DC011C9325E011962C930F
:102A3000AE014250510965EF71E002960E94891B78
:102A40008EE191E09093DD048093DC0488EB90E0CC
:102A50009093DF048093DE0485E990E09093E10495
:102A60008093E0048DE890E09093E3048093E20487
:102A700087E492E09093E5048093E4048BE094E093
:102A80009093ED048093EC048FE394E19093E90438
:102A90008093E804E0918003F09181031083E0913A
:102AA0007C03F0917D031082E0917E03F0917F031F
:102AB00080E1808310928803E0918403F091850384
:102AC00086E08083E0918203F091830380818061BE
:102AD0008083E0918203F09183038081886080830A
:102AE000E0918203F0918303808180688083E0918C
:102AF0008203F091830380818F7D808380E793E060
:102B000090935604809355048091EE04811150C037
:102B100061E08DE00E94C20E62ED70E080E090E026
:102B20000E942E0F61E08DE00E94AC0D68E270E023
:102B300080E090E00E942E0F60E08DE00E94AC0DDE
:102B400062ED70E080E090E00E942E0F61E08DE089
:102B50000E94AC0D68E270E080E090E00E942E0FD1
:102B600060E08DE00E94AC0D6AEF70E080E090E0E4
:102B70000E942E0FC0E062ED70E080E090E00E94C5
:102B80002E0F61E08DE00E94AC0D68E270E080E005
:102B900090E00E942E0F60E08DE00E94AC0DCF5FB0
:102BA000C53049F76DE770E080E090E00E942E0F9D
:102BB0000E94B1138091570481110E946D130E94ED
:102BC0003F14BB24B39452E0A52E80915302882376
:102BD00041F069B180916D0368236C7F80E00E94B1
:102BE000BE1280915402882371F063B196B1B0E4B3
:102BF0009B9FC00111246F73862B60916E03682325
:102C000081E00E94BE12809155028823D1F066B106
:102C10006C736695669580916F03682382E00E94CD
:102C2000BE120FC08091550490915604EC01E881CA
:102C3000F9810680F781E02D09958F3FDFEF9D0731
:102C400071F48091550490915604DC01ED91FC9152
:102C50000480F581E02D0995892B21F71EC1382FBD
:102C600020919D04222309F467C0873F09F055C0D5
:102C700010929D0480915D04813751F0893709F0ED
:102C80003EC0809157048823E1F20E946D13D9CF92
:102C9000E091EA04F091EB04309799F220919E04C0
:102CA00030919F04C901019797FDC90195958795BA
:102CB000182FADE5B4E040E050E030E04E5F5F4FEC
:102CC000311770F4BA016B5A7B4FEB012F812C93B3
:102CD0006885D0E86D9F201911242D933F5FEECFBA
:102CE0009927DC01AB5ABB4F17968C911797882315
:102CF00011F018961C928DE594E00995A2CFE09111
:102D0000EC04F091ED04309709F49BCF60919E04A0
:102D100061504EE554E0099594CF20919E04309186
:102D20009F04F901EB5AFB4F80872F5F3F4F309391
:102D30009F0420939E0485CF20915A04222309F4F6
:102D400069C087FD67C09FEF920F90935A04E92FE7
:102D5000F0E0EB5AFB4F8087911173CF80915B04B9
:102D6000882309F46ECF803D09F445C050F48039C2
:102D700001F1803C09F04BC0E091E004F091E104E6
:102D80003EC0843F39F1853F51F1803E09F03FC09C
:102D9000E091DC04F091DD043097C9F180915D048D
:102DA00060915E0470E020E8829F600D711D112427
:102DB0002BC0E091DE04F091DF04309741F1809167
:102DC0005D0460915E0470E090E8899F600D711D64
:102DD00011241AC0E091E404F091E50404C0E091EC
:102DE000E604F091E704309791F060915D0470E0A3
:102DF00080915E040BC0E091E204F091E30430970F
:102E000031F060915D0470E080915C04099510924E
:102E10005B0417CF303F38F4282F207F30E08F70CD
:102E200080935C0402C09C013327203F310559F197
:102E30007CF4203C310511F124F420393105D9F01E
:102E400000CF203D3105D1F0203E3105A1F0F9CE73
:102E5000293F3105F9F034F4C901845F91090297E3
:102E600050F0EFCE2F3F310509F0EBCE85E594E031
:102E70000E941510E6CEA0925A0402C0B0925A04E5
:102E800020935B04DECEB0929D0410929F041092BA
:102E90009E04D7CE0E94B113D4CE8FB7F894009180
:102EA00056021091570220915802309159028FBF5B
:102EB00000938C0210938D0220938E0230938F0228
:102EC0008091880290918902A0918A02B0918B0230
:102ED0004091010150910201052E000C660B770B09
:102EE000081B190B2A0B3B0B40175107620773078E
:102EF00008F06AC0840F951FA61FB71F8093880231
:102F000090938902A0938A02B0938B0234E7C32E78
:102F100032E0D32E12EF163098F5E6018881823028
:102F200079F58091720290917302012E02C09595FD
:102F300087950A94E2F780FF23C0812F80648093F5
:102F40007C0080917A00806480937A0080917A007E
:102F500086FDFCCFE090780080917900F12CF82A72
:102F60008091550490915604DC01ED91FC91019003
:102F7000F081E02D612F606E0995C7010E94011359
:102F80001F5FBFEFCB1ADB0A163029F680910001D4
:102F900087FD1AC010E0E12FF0E080910001082EBB
:102FA000000C990B8E179F077CF0CF01880F991F9B
:102FB000E80FF91FE65AFD4F618170E04281808180
:102FC0000E946A031F5FE7CF0E948D0CFECD08951B
:102FD000109273031092720388EE93E0A0E0B0E0C9
:102FE0008093740390937503A0937603B093770353
:102FF0008DE091E0909371038093700385EC90E0F5
:1030000090937D0380937C0384EC90E090937F0306
:1030100080937E0380EC90E0909381038093800303
:1030200081EC90E0909383038093820382EC90E0A4
:10303000909385038093840386EC90E090938703BC
:10304000809386031092890310928A0310928B0357
:1030500010928C03EDE0F4E0118210821382128250
:10306000399624E0E535F207B9F71092EE04109294
:103070005704109259041092580485E594E00E9478
:1030800015101092F2041092F10488EE93E0A0E083
:10309000B0E08093F3049093F404A093F504B0930C
:1030A000F6048DE191E09093F0048093EF04809119
:1030B0001F05A0E2B5E09FEF48EB5BE08C3078F4B1
:1030C0008C93282F30E0F901EE0FFF1F2E0F3F1FCA
:1030D000F901E550FB4F528341838F5F01C09C9300
:1030E000139625E0A434B20749F780931F0508958D
:1030F0004532510520F4423010F00C948318FB0146
:103100001082CB010895BB274A3031F4992322F471
:10311000BDE2909581959F4F0C948F18BB27FB01C2
:103120005527AA27880F991FAA1FA41710F0A41BC0
:1031300083955051B9F7A05DAA3308F0A95DA1931A
:10314000009779F7B111B1931192CB010C94A818A3
:10315000DC01FC01672F71917723E1F7329704C0FE
:103160007C916D9370836291AE17BF07C8F3089589
:10317000052E97FB1EF400940E94CF1857FD07D030
:103180000E94211907FC03D04EF40C94CF185095DF
:103190004095309521953F4F4F4F5F4F0895909543
:1031A0008095709561957F4F8F4F9F4F08950E9436
:1031B0004319A59F900DB49F900DA49F800D911D64
:1031C00011240895B7FF0C94D7180E94D718821BBA
:1031D000930B08952F923F924F925F926F927F923E
:1031E0008F929F92AF92BF92CF92DF92EF92FF9217
:1031F0000F931F93CF93DF93CDB7DEB7CA1BDB0BC3
:103200000FB6F894DEBF0FBECDBF09942A88398867
:1032100048885F846E847D848C849B84AA84B9846E
:10322000C884DF80EE80FD800C811B81AA81B9817A
:10323000CE0FD11D0FB6F894DEBF0FBECDBFED018E
:103240000895A1E21A2EAA1BBB1BFD010DC0AA1FE7
:10325000BB1FEE1FFF1FA217B307E407F50720F0FF
:10326000A21BB30BE40BF50B661F771F881F991F7A
:103270001A9469F760957095809590959B01AC01C3
:10328000BD01CF010895A29FB001B39FC001A39FCC
:10329000700D811D1124911DB29F700D811D11248F
:1032A000911D0895991B79E004C0991F961708F0A5
:1032B000961B881F7A95C9F780950895EE0FFF1F1A
:1032C0000590F491E02D0994CF93DF93823091051E
:1032D00010F482E090E0E0914705F091480520E08D
:1032E00030E0C0E0D0E0309711F1408151814817C3
:1032F0005907C0F04817590761F4828193812097DC
:1033000019F09B838A832BC09093480580934705CF
:1033100026C02115310519F04217530718F49A01F8
:10332000BE01DF01EF010280F381E02DDCCF21152A
:10333000310509F1281B390B2430310590F4129620
:103340008D919C9113976115710521F0FB01938379
:10335000828304C09093480580934705FD0132960F
:1033600044C0FD01E20FF31F819391932250310974
:103370002D933C933AC02091450530914605232B6F
:1033800041F42091050130910601309346052093C8
:10339000450520910301309104012115310541F4C7
:1033A0002DB73EB74091070150910801241B350B02
:1033B000E0914505F0914605E217F307A0F42E1BB6
:1033C0003F0B2817390778F0AC014E5F5F4F241789
:1033D000350748F04E0F5F1F509346054093450553
:1033E0008193919302C0E0E0F0E0CF01DF91CF91B3
:1033F00008950F931F93CF93DF93009709F48CC028
:10340000FC01329713821282009147051091480502
:103410000115110581F420813181820F931F2091C4
:103420004505309146052817390779F5F09346058B
:10343000E093450571C0D80140E050E0AE17BF07EA
:1034400050F412962D913C911397AD012115310541
:1034500009F1D901F3CF9D01DA0133832283608121
:103460007181860F971F8217930769F4EC012881F9
:103470003981260F371F2E5F3F4F318320838A818A
:103480009B8193838283452B29F4F0934805E09335
:10349000470542C01396FC93EE931297ED014991B4
:1034A00059919E01240F351FE217F30771F48081B3
:1034B0009181840F951F029611969C938E93828121
:1034C000938113969C938E931297E0E0F0E0D801DD
:1034D00012968D919C911397009719F0F8018C0129
:1034E000F6CF8D919C9198012E5F3F4F820F931FD5
:1034F00020914505309146052817390769F4309722
:1035000029F4109248051092470502C013821282D6
:103510001093460500934505DF91CF911F910F91C0
:103520000895A0E0B0E0E7E9FAE10C94EE18EC01B0
:10353000009721F4CB010E946419B8C0FC01E60F8A
:10354000F71F9C0122503109E217F30708F4ACC0C1
:10355000D9010D911C91119706171707B0F005308E
:10356000110508F49FC0C80104978617970708F44F
:1035700099C002501109061B170B019311936D930B
:103580007C93CF010E94F9198DC05B01A01AB10A8A
:103590004C01800E911EA0914705B091480540E076
:1035A00050E0E12CF12C109709F44AC0A815B90598
:1035B000D1F56D907C901197630182E0C80ED11C0B
:1035C000CA14DB0480F1A3014A195B096A0182E095
:1035D000C80ED11C1296BC9012971396AC91B5E010
:1035E000CB16D10440F0B282A38351834083D9012A
:1035F0006D937C930AC00E5F1F4FC301800F911F14
:10360000F90191838083EB2DFA2FE114F10431F05D
:10361000D7011396FC93EE93129744C0F09348059C
:10362000E09347053FC08D919C911197481759072A
:1036300008F4AC017D0112960D90BC91A02DB3CF82
:10364000809145059091460588159905E1F4461746
:103650005707C8F48091030190910401009741F449
:103660008DB79EB74091070150910801841B950BBF
:10367000E817F907C8F4F0934605E0934505F9010A
:10368000718360830FC0CB010E9464197C01009795
:1036900059F0A801BE010E94601BCE010E94F919D9
:1036A000C70104C0CE0102C080E090E0CDB7DEB714
:1036B000EEE00C940A1981E090E0F8940C94981BC9
:1036C000FB01DC0102C001900D9241505040D8F73F
:1036D00008956817790768F4FB01DC01E40FF51F12
:1036E000A40FB51F02C002900E9241505040D8F76F
:1036F00008950C94601BDC0101C06D934150504053
:10370000E0F70895FB01DC0101900D920020E1F744
:103710000895FB01DC014150504048F001900D92AA
:103720000020C9F701C01D9241505040E0F70895B4
:1037300010E0C2E6D0E004C0FE010E945E192196AE
:0A374000C336D107C9F7F894FFCF94
:10374A00FF130000004905800000000000240CA0BF
:10375A000BED0BCB0BDF0B6B0C000000006A0E3A73
:10376A000E320E1E0E0F0E0E0E556E6B6E6F776EAC
:10377A002070696E206D6F6465004932432052657E
:10378A006164204572726F723A20546F6F206D61C6
:10379A006E792062797465732072656365697665EE
:1037AA0064004932432052656164204572726F7227
:1037BA003A20546F6F2066657720627974657320AA
:1037CA0072656365697665640031302D62697420BB
:1037DA0061646472657373696E67206E6F742073B7
:1037EA007570706F7274656400746F6F206D616EAE
:1037FA0079207175657269657300433A5C55736522
:10380A0072735C6C69755C417070446174615C527E
:10381A006F616D696E675C4B697474656E626C6F1B
:10382A00636B5C776F726B73706163655C70726FE8
:10383A006A6563745C70726F6A6563742E696E6F11
:02384A0000007C
:00000001FF
