:100000000C9464000C948C000C948C000C948C0068
:100010000C948C000C948C000C948C000C94020DAD
:100020000C948C000C948C000C948C000C941B127F
:100030000C948C000C948C000C948C000C948C0010
:100040000C94E70E0C948C000C94770C0C94510CCF
:100050000C948C000C948C000C948C000C948C00F0
:100060000C94E20F0C948C00000000002400270088
:100070002A0000000000250028002B0000000000DE
:1000800023002600290004040404040404040202DA
:100090000202020203030303030301020408102007
:1000A0004080010204081020010204081020000012
:1000B0000008000201000003040700000000000027
:1000C00000000200771B761B11241FBECFEFD8E083
:1000D000DEBFCDBF12E0A0E0B1E0EEEDFBE302C079
:1000E00005900D92A630B107D9F725E0A6E0B2E061
:1000F00001C01D92A23CB207E1F710E0C3E6D0E0D8
:1001000004C02197FE010E94791CC236D107C9F7AD
:100110000E9446180C94E21D0C9400002F923F920E
:100120004F925F926F927F928F929F92AF92BF9207
:10013000CF92DF92EF92FF920F931F93CF93DF93B3
:10014000CDB7DEB72D970FB6F894DEBF0FBECDBF8B
:10015000162F7A01843709F438C408F58B3609F470
:1001600096C290F4813509F4DEC4893611F00C94FE
:10017000160B80EF90E00E9488168AE690E00E94BD
:10018000881602EF1FEF3CC38F3609F45DC280373B
:1001900009F42CC18D3611F00C94160BDCC2883793
:1001A00009F4D7C038F4853709F42EC3863769F0CF
:1001B0000C94160B8C3709F47EC78D3709F454C1A3
:1001C0008A3711F00C94160B26C2DA0111968C9125
:1001D000282F287185FF03C08EE291E05BC0FA01F1
:1001E0008081283079F170F421110C94160B91E084
:1001F00090936003809382031092610310928303B3
:1002000002E007C02031F1F0283109F459C00C9404
:10021000160B011778F4F701E00FF11D8181608161
:10022000F0E88F9F6019112489E095E00E94590E33
:100230000E5FEFCF0E94A41783E191E00197F1F7E1
:100240000C94160BD70113969C91139712964C9110
:10025000163071F4642FB0E89B9F60191124F701E8
:1002600035819481492FF0E83F9F4019112405C042
:1002700030E8939F401911246FEF283029F470E083
:100280000E94CF150C94160BE0910101E73034F079
:100290008EE491E00E9430170C94160BEF5FE09310
:1002A00001010E2E000CFF0B9F01220F331FE20FE6
:1002B000F31FED5AFD4F8083618342830C94160B2C
:1002C0007091010117162CF08FEF809301010C94AF
:1002D000160B60E0472F072E000C550B262F30E041
:1002E000421753076CF0F901EE0FFF1F2E0F3F1F4F
:1002F000F901ED5AFD4F9081981709F16F5FEECF2C
:1003000060E01DC06830D0F4DC0111969D01220F21
:10031000331FA20FB31FAD5ABD4F2C91FC01EE0F3E
:10032000FF1F8E0F9F1FFC01ED5AFD4F208311967A
:100330008C911197818312968C9182836F5F862FA7
:1003400090E048175907F4F67150709301010C942E
:10035000160BDA012C9111968C91B0E88B9FC0019D
:100360001124820F911D009721F090932F0280930A
:100370002E028091890281110C94160B10E08EEEF2
:10038000810F823028F466E070E0812F0E94A9146A
:100390001F5F1431A1F781E0809389021092AB02B4
:1003A0001092AA02109261031092830310925F03CD
:1003B00080935E031092390361E082E10E94D20CC7
:1003C00061E083E10E94D20C8091B9008E7F80931E
:1003D000B9008091B9008D7F8093B90088E4809343
:1003E000B80085E48093BC000C94160B653010F4C3
:1003F0000C94160BFA011081918142815381248162
:100400008EEF810F8C3010F00C94160B612F70E082
:10041000FB01329786E08E9FD0018F9FB00D112493
:10042000AA58BA4FEC9138E0E39FF0011124EB5E3B
:10043000FA4F808186FF02C08F7B808380E8289FEF
:1004400090011124250F311DE0E84E9FA0011124D9
:10045000490F511DCD010E94A11164E070E0812F70
:100460000E94A9140C94160BDA01CC9011962C91D1
:10047000119712968C91129713969C91139714963C
:10048000AC903EEF3C0D3C3010F00C94160BB0E8F5
:100490008B9F70011124E20EF11CE0E8AE9E50012A
:1004A0001124A90EB11CD12CA114B10479F4960128
:1004B0002250310946E0429FC001439F900D112414
:1004C000B7018A589A4F0E9410119CC04601F2E071
:1004D0008F1A910886E0889DF001899DF00D112406
:1004E000EA58FA4F308028E0329E80011124D8016A
:1004F000AB5EBA4F1496FC92EE92139730E2E3167D
:1005000032E0F3060CF041C0818128E830E0290197
:10051000481A510887FD5394440C551C440C551C33
:10052000052C000C66087708D70145EBE416F104AA
:1005300014F0A4EBB0E086E0889DF001899DF00DF9
:100540001124EA58FA4F828128E532E0281B31094C
:1005500087FD3395220F331F220F331FA901330F5D
:10056000660B770B9A01AB01241935094609570927
:100570000E94341C24EB30E040E050E00E940A1C52
:10058000420E531E641E751E01C027015BE0531509
:10059000C8F186E0889DF001899DF00D1124EA588C
:1005A000FA4F218188E890E0821B910927FD9395FD
:1005B000880F991F880F991F4816590684F0828169
:1005C00028E532E0281B310987FD3395220F331FC0
:1005D000220F331FC201241535050CF4C9012FB7B2
:1005E000F894F801EB5EFA4F0297880F991F9683F3
:1005F0008583C5018F3F910519F014F08FEF90E0CE
:1006000087832FBFF601EE0FFF1FEA5FFD4FF182D8
:10061000E0820C94160B623010F40C94160BDA0185
:100620002C9111968C91B0E88B9FC0011124820F00
:10063000911D8A30910514F48AE090E090930301B3
:10064000809302010C94160B623010F40C94160B7C
:10065000FA01618170E01230A1F08281F0E88F9F91
:10066000C0011124682B792B133059F0DA0113964D
:100670008C9190E090E4899F902D88271124682B1D
:10068000792BF70180810E9414140C94160B80EFD3
:1006900090E00E9488168CE690E00E9488161EEF7B
:1006A00084EF810F863048F482E090E00E94881643
:1006B0008AE090E00E9488160BC0113049F483E074
:1006C00090E00E94881688E090E00E94881608C09A
:1006D0008DEF810F823098F389EF810F833078F3AB
:1006E0001C3040F484E090E00E9488168EE090E098
:1006F0000E94881680EF810F823040F486E090E0FF
:100700000E94881681E090E00E9488168FE790E0B2
:100710000E9488161F5F123191F1123108F660E0D5
:100720008AE893E00E94B30B81E090E00E94881673
:1007300061E08AE893E00E94B30B81E090E00E94C0
:10074000881665E78AE893E00E94B30B81E090E0A9
:100750000E948816A5CF662309F468C7DA010C91B8
:1007600080EF90E00E9488168EE690E00E94881646
:10077000602F8AE893E00E94B30B043128F087EFE2
:1007800090E00E94881652C710E0F801E359FD4F2F
:1007900060818AE893E00E94B30B000F111FF801FB
:1007A000EA5FFD4F00811181C8018F7799270E9470
:1007B0008816C8018078892B49F0C801880F892FD5
:1007C000881F990B8F7799270E948816C801882760
:1007D000907C892BA1F2C801990F880B990F982F53
:1007E000881F8F7799270E948816C9CF8FE790E0DE
:1007F0000E9488160F5F1F4F0630110509F4BFCF06
:100800000630A0F7C801F4CFFA019481838190FBF0
:1008100087F990E0A0E0B0E0782F662755274427BD
:100820008681958180FB97F9892F90E0A0E0B0E068
:10083000DC0199278827840F951FA61FB71F3285D3
:10084000218530FB27F9820F911DA11DB11D208547
:10085000878020FB87F8912CA12CB12CBA2CA92CD5
:10086000982C8824880E991EAA1EBB1E828161E0E6
:100870008130C1F480810E94840D60E0D7018C91A9
:100880000E94D20C83E090E00197F1F761E0F7015C
:1008900080810E94D20CC4010E94C00D60E0D7018B
:1008A0008C9113C0F70180810E94D20C83E090E00C
:1008B0000197F1F760E0D7018C910E94D20CC4013E
:1008C0000E94C00D61E0F70180810E94D20CD70127
:1008D0001C968C911C971B968C901B9780FB87F81D
:1008E000912CA12CB12CB82CAA24992488241E96D2
:1008F0008C911E971D969C9180FB97F9892F90E013
:10090000A0E0B0E0DC0199278827880E991EAA1E76
:10091000BB1EF7019289818990FB87F9A50194019B
:10092000280F311D411D511DDA01C901208987841D
:1009300020FB87F8912CA12CB12CBA2CA92C982C37
:100940008824880E991EAA1EBB1E60E081810E9429
:10095000840DD70111968C91119790E0FC01E65619
:10096000FF4F6491FC01EA57FF4FE49112968C917E
:10097000882311F0462F01C040E0F0E0EE0FFF1F8A
:10098000E458FF4F85919491950184013F700E9436
:100990000118611571058105910539F0DC01CB0164
:1009A0000196A11DB11DBF7003C080E090E0DC0185
:1009B000F70120812983BA83AB839C838D83AE01A9
:1009C0004F5F5F4F65E085E7ABC0DA011C9119828C
:1009D0001A821B821C821D8261E0812F0E94840D7D
:1009E00060E0812F0E94D20C62E170E080E090E034
:1009F0000E94AD0E61E0812F0E94D20C8BE990E045
:100A00000197F1F760E0812F0E94840D41E1C42E2F
:100A100047E2D42E812F0E94A90C892B29F4B1E042
:100A2000CB1AD108B9F768C031E1C32E37E2D32E13
:100A3000812F0E94A90C019729F4E1E0CE1AD10878
:100A4000B9F75AC098E2C92ED12C07E0912CAA24FC
:100A5000A394B12C81E1682E87E2782E812F0E9429
:100A6000A90C892B29F4F1E06F1A7108B9F744C079
:100A70000E94880E1B012C01B1E16B2EB7E27B2E88
:100A8000812F0E94A90C019729F421E0621A7108B4
:100A9000B9F732C00E94880EDC01CB01821993099C
:100AA000A409B5098997A105B10578F0E1E0F0E066
:100AB000EC0FFD1FE90DF11D2081C501002E01C0C5
:100AC000880F0A94EAF7822B8083011103C0939464
:100AD00007E001C0015031E0C31AD10809F0BACFD4
:100AE000898190E090934202809341028B8190E053
:100AF00090934402809343026EE170E080E090E0C6
:100B00000E94AD0ED7018C918983809141028A8326
:100B1000809143028B83AE014F5F5F4F63E084E7B8
:100B20000E94F71683C5662309F480C5FA019081F7
:100B3000892F8F70833009F4E4C030F4813009F4D8
:100B40003AC1823061F072C5853009F4FCC108F405
:100B50007CC0863009F06AC50E945A0F67C5809133
:100B60003202811163C58091310281115FC581E03C
:100B70008093320240E0A9E0FA2E8091C602481725
:100B800008F060C0842F90E0BC0164557D4FDB010C
:100B90002C91222309F452C0C090CA02D090CB02FB
:100BA000F89ED001F99EB00D1124A95DBB4F169699
:100BB0002D913C911797F901908118968C91189777
:100BC000982B908314960D911C91159718965C9113
:100BD00018978D919C9111979C01220F331F280F1C
:100BE000391F12968D919C911397DC01AA0FBB1FA0
:100BF0008A0F9B1FF601E80FF91FD8019C91852FE2
:100C00008095C82EC922592B9FB7F8942E0F3F1FED
:100C1000E217F30789F0E190D80188E05C9300C007
:100C2000E7FECC92EE0C00C000C000C008F4CC92ED
:100C300000C08A9599F7ECCF9FBF7894DB011C9296
:100C40004F5F9BCF10923202F1C4FA014181C28002
:100C500003818481909131029111E8C490E0A0E079
:100C6000B0E015E1880F991FAA1FBB1F1A95D1F795
:100C700010E020E030E05EE0000F111F221F331F64
:100C80005A95D1F7800F911FA21FB31F840F911D9A
:100C9000A11DB11DD12CE12CF12C67E0CC0CDD1C89
:100CA000EE1CFF1C6A95D1F7C80ED91EEA1EFB1E6A
:100CB000C114D104E104F10491F44091C4025091B3
:100CC000C502CA01880F991F480F591F60E070E0E4
:100CD0008091CA029091CB020E94CC1DCBC100E052
:100CE00010E08091C4029091C5020817190708F01E
:100CF000C1C1B701A601C8010E94310F0F5F1F4F8C
:100D0000F0CF918122815381448185810681309188
:100D1000310231118BC4E92EF12CB0E82B9FE00C8D
:100D2000F11C11242091C4023091C502E216F30691
:100D300068F510E020E030E095E1000F111F221F60
:100D4000331F9A95D1F790E0A0E0B0E06EE0880FF5
:100D5000991FAA1FBB1F6A95D1F7080F191F2A1FD9
:100D60003B1F050F111D211D311D50E060E070E09B
:100D7000E7E0440F551F661F771FEA95D1F7400F34
:100D8000511F621F731FC7010E94310F2091C602BD
:100D9000A4EBB2E080E090E0821708F047C4FC01C9
:100DA0004D915D910196E416F506B0F7E455FD4FBF
:100DB00081E080833BC4913009F038C4633008F48B
:100DC00035C4B09030020E945A0FB11014C08BEAA3
:100DD000189FA12C1124A69414EBC12E12E0D12E41
:100DE00007E214E0E3E0EE0EF11C712C662463943C
:100DF00082E0582E5FC0B7E2CB2EB4E0DB2E00E0DD
:100E0000602FC6010E949F0F0F5FF9E0CF0ED11C2B
:100E10000830B1F7DCCFF401808190E0A5E0959532
:100E20008795AA95E1F78130910509F450C0823089
:100E3000910509F451C0892B31F41092C8026092D7
:100E4000C9025092C702F70131978081D7012C91D6
:100E5000B0E82B9F90011124280F311DF801318338
:100E60002083772009F43FC0F60132978081918179
:100E7000280F391FD6012D933D936D01F8019383FF
:100E800082838090C4029090C50280819181880EF7
:100E9000991E9092C5028092C4028091C6028F5F13
:100EA0008093C6027394075F1F4FF3E0EF0EF11CAF
:100EB0007A14E1F09701225031094901B110ABCF0A
:100EC000D9016C916F71C8010E949F0FA4CF10923D
:100ED000C9026092C802B5CF1092C7026092C902DF
:100EE0005092C802B0CF80E090E0C2CF8091CA0299
:100EF0009091CB02009731F00E94141D1092C50210
:100F00001092C4028114910409F490C38401000F6B
:100F1000111F080D191DC8010E947F1C9093CB0260
:100F20008093CA02009751F0A80160E070E00E942F
:100F3000CC1D9092C5028092C40278C31092C50263
:100F40001092C40273C38181082F0F7109F492C0FB
:100F500085FBAA24A0F8E02EEE0CE00E91E0909321
:100F60003102F12C10E086FBBB24B0F886FF28C0CC
:100F7000C7010E947F1C6C01009729F0A70160E067
:100F800070E00E94CC1DAA2039F06091C4027091DB
:100F9000C502601B710B02C060E070E0CB01880FDE
:100FA000991F680F791F8091CA029091CB02680F38
:100FB000791FA701C6010E94B11DA11020C319C04D
:100FC000AA20B9F08091CA029091CB024091C4024C
:100FD0005091C502401B510B9A01220F331F420F43
:100FE000531FBC018E0D9F1D0E94BA1D20E030E0F2
:100FF0002FC08091CA029091CB024091C4025091BF
:10100000C502401B510B9A01220F331F420F531F81
:10101000BC016E0D7F1D0E94BA1D2091C40230914B
:10102000C502201B310BBB2099F0C901880F991F05
:10103000280F391F8091CA029091CB02A701B601F7
:10104000820F931F0E94B11DC6010E94141D10C083
:10105000C901880F991F280F391F8091CA029091EA
:10106000CB02A70160E070E0820F931F0E94CC1DAD
:10107000109231024091C60250E061E070E08CEACB
:1010800092E02D960FB6F894DEBF0FBECDBFDF9174
:10109000CF911F910F91FF90EF90DF90CF90BF9075
:1010A000AF909F908F907F906F905F904F903F9008
:1010B0002F900C94CC1DFA01B18172812381A481FF
:1010C0006581368097814084808140910001481776
:1010D00021F04F3F09F0AAC204C0E2ECF0E0149105
:1010E0007EC080930001E2ECF0E014911F3F09F410
:1010F0009DC2113031F1123009F44AC011116FC094
:1011000014BC15BC44B5426044BD45B5416045BD05
:10111000482F50E0FA01EA57FF4FE491F0E0EE0F5C
:10112000FF1FEE58FF4F0591149110933802009362
:101130003702FA01E656FF4FE491E093360210E0E1
:1011400050C0109280001092810040918100486050
:101150004093810040918100416040938100482F7D
:1011600050E0FA01EA57FF4FE491F0E0EE0FFF1F65
:10117000EE58FF4F059114911093350200933402FD
:10118000FA01E656FF4FE491E093330211E029C0E3
:101190001092B0001092B1004091B00042604093B4
:1011A000B0004091B10041604093B100482F50E041
:1011B000FA01EA57FF4FE491F0E0EE0FFF1FEE58FF
:1011C000FF4F059114911093460200934502FA01D6
:1011D000E656FF4FE491E093470212E002C017FD8C
:1011E00025C2CA2ED12CE12CF12C46015701F5E184
:1011F000880C991CAA1CBB1CFA95D1F7C22ED12CC5
:10120000E12CF12CAEE0CC0CDD1CEE1CFF1CAA95F1
:10121000D1F7C80CD91CEA1CFB1CCB0ED11CE11C5D
:10122000F11C872E912CA12CB12CB7E0880C991CB5
:10123000AA1CBB1CBA95D1F7A7019601280D391D30
:101240004A1D5B1D2A873B874C875D87512C612C8B
:10125000712C05E1440C551C661C771C0A95D1F7CE
:10126000C92ED12CE12CF12C9EE0CC0CDD1CEE1C07
:10127000FF1C9A95D1F74C0C5D1C6E1C7F1C7301F2
:101280006201C60ED11CE11CF11C432C512C612CB7
:10129000712C27E0440C551C661C771C2A95D1F74D
:1012A0004C0C5D1C6E1C7F1C61E00E94840D8A84C6
:1012B0009B84AC84BD84AA24BB24812F8D7F09F03C
:1012C000BAC060E072E18AE790E0A50194010E9453
:1012D0000A1C2E833F834887598769017A0121E0E0
:1012E000C21AD108E108F1083FEFC316D104E104A6
:1012F000F10409F008F44BC060E472E48FE090E080
:10130000A50194010E940A1C69017A0181E0C81AB2
:10131000D108E108F108123001F59FEFC916D10498
:10132000E104F10409F008F468C160E970ED83E0BC
:1013300090E0A50194010E940A1C69017A01A1E0D4
:10134000CA1AD108E108F108BFEFCB16D104E104B5
:10135000F10409F0D0F583E067C0EFEFCE16D104B9
:10136000E104F104B1F0A8F068E478EE81E090E0E7
:10137000A50194010E940A1C69017A01F1E0CF1ACB
:10138000D108E108F108112309F4DDC02DC181E085
:1013900001C082E01123A1F047C08E819F81A88502
:1013A000B9852AE0B595A795979587952A95D1F7A0
:1013B0006C017D01E1E0CE1AD108E108F10885E079
:1013C00095B5987F892B85BD6EC068E478EE81E085
:1013D00090E0A50194010E940A1C69017A0191E044
:1013E000C91AD108E108F108AFEFCA16D104E10427
:1013F000F10409F008F4A5C064E274EF80E090E025
:10140000A50194010E940A1C69017A0181E0C81AB1
:10141000D108E108F1089FEFC916D104E104F104F5
:1014200011F008F0B2C085E09091B100987F892B4F
:101430008093B10038C060E072E18AE790E0A501D6
:1014400094010E940A1C69017A01F1E0CF1AD108C7
:10145000E108F108C114D10421E0E206F10488F0AA
:1014600068E478EE81E090E0A50194010E940A1CF6
:1014700069017A0181E0C81AD108E108F10893E016
:1014800001C091E0113079F480918100887F892B2F
:1014900080938100411451046104710449F42FEFD9
:1014A0003FEFA9012CC0411451046104710479F08B
:1014B000AA85BB85AA0FBB1FA30192010E94291C0C
:1014C00028EE33E040E050E00E943C1C03C02FEFC8
:1014D0003FEFA901113099F0123019F11111A6C096
:1014E000C7BC20933D0230933E0240933F0250938D
:1014F000400280916E00826080936E0097C0D0920F
:101500008900C09288002093390230933A024093B8
:101510003B0250933C0280916F00826080936F0089
:1015200085C0C092B3002093480230934902409393
:101530004A0250934B028091700082608093700049
:1015400075C084E071CFFFEFCF16D104E104F10440
:10155000D1F0C8F062E17AE780E090E0A501940163
:101560000E940A1C69017A01B1E0CB1AD108E10896
:10157000F108EFEFCE16D104E104F10411F008F008
:101580000CCF84E01DCF83E01BCF62E17AE780E0DF
:1015900090E0A50194010E940A1C69017A0181E092
:1015A000C81AD108E108F1089FEFC916D104E10477
:1015B000F104C1F0B8F08E819F81A885B985EAE079
:1015C000B595A79597958795EA95D1F76C017D011B
:1015D000E1E0CE1AD108E108F108112309F4EFCEB9
:1015E00087E022CF86E0D6CEAFEFCA16D104E10461
:1015F000F10409F050F684E0CDCE82E015CF809161
:10160000CA029091CB024091C4025091C502401B86
:10161000510B9A01220F331F420F531FBC018E0D35
:101620009F1D0E94BA1D20E030E0FFCC2D960FB622
:10163000F894DEBF0FBECDBFDF91CF911F910F9108
:10164000FF90EF90DF90CF90BF90AF909F908F90E2
:101650007F906F905F904F903F902F900895CF9222
:10166000DF92EF92FF920F931F93CF93DF936C0162
:101670007A018B01C0E0D0E0CE15DF0589F0D801FA
:101680006D918D01D601ED91FC910190F081E02DDD
:10169000C6010995892B11F47E0102C02196ECCF79
:1016A000C701DF91CF911F910F91FF90EF90DF90D5
:1016B000CF900895FC01918D828D981761F0828DF5
:1016C000DF01A80FB11D5D968C91928D9F5F9F7376
:1016D000928F90E008958FEF9FEF0895FC01918D18
:1016E000828D981731F0828DE80FF11D858D90E085
:1016F00008958FEF9FEF0895FC01918D228D892F22
:1017000090E0805C9F4F821B91098F739927089509
:101710008AE893E00E947C0B21E0892B09F420E009
:10172000822F0895FC01848DDF01A80FB11DA35AFB
:10173000BF4F2C91848D90E001968F739927848FF1
:10174000A689B7892C93A089B1898C9180648C93E8
:10175000938D848D981306C00288F389E02D8081D3
:101760008F7D80830895EF92FF920F931F93CF9305
:10177000DF93EC0181E0888F9B8D8C8D981305C0E1
:10178000E889F989808185FD24C0F62E0B8D10E053
:101790000F5F1F4F0F731127E02E8C8DE8120CC0C6
:1017A0000FB607FCFACFE889F989808185FFF5CF6C
:1017B000CE010E94920BF1CF8B8DFE01E80FF11D3F
:1017C000E35AFF4FF0820B8FEA89FB8980818062A8
:1017D00007C0EE89FF896083E889F9898081806488
:1017E000808381E090E0DF91CF911F910F91FF9076
:1017F000EF900895CF93DF93EC01888D8823C9F093
:10180000EA89FB89808185FD05C0A889B9898C9109
:1018100086FD0FC00FB607FCF5CF808185FFF2CFA4
:10182000A889B9898C9185FFEDCFCE010E94920BDA
:10183000E7CFDF91CF91089580E090E0892B29F0E8
:101840000E94880B81110C9400000895833081F070
:1018500028F4813099F08230A1F008958730A9F002
:101860008830B9F08430D1F4809180008F7D03C03E
:10187000809180008F7780938000089584B58F7762
:1018800002C084B58F7D84BD08958091B0008F77AC
:1018900003C08091B0008F7D8093B00008950E94B6
:1018A000AC1D1F920F920FB60F9211242F933F93EE
:1018B0004F935F936F937F938F939F93AF93BF9358
:1018C000EF93FF938AE893E00E94920BFF91EF91D0
:1018D000BF91AF919F918F917F916F915F914F9148
:1018E0003F912F910F900FBE0F901F9018951F9250
:1018F0000F920FB60F9211242F938F939F93EF9314
:10190000FF93E0919A03F0919B038081E091A00303
:10191000F091A10382FD12C090818091A3038F5F9B
:101920008F732091A403821751F0E091A303F0E09C
:10193000E657FC4F958F8093A30301C08081FF91F0
:10194000EF919F918F912F910F900FBE0F901F904D
:101950001895CF93DF93282F30E0F901E255FF4F20
:101960008491F901E656FF4FD491F901EA57FF4FF0
:10197000C491CC2391F081110E94260CEC2FF0E051
:10198000EE0FFF1FE458FF4FA591B491EC91ED23AA
:1019900081E090E021F480E002C080E090E0DF91FF
:1019A000CF9108951F93CF93DF93282F30E0F90153
:1019B000E255FF4F8491F901E656FF4FD491F901AA
:1019C000EA57FF4FC491CC23C9F0162F81110E9412
:1019D000260CEC2FF0E0EE0FFF1FEE58FF4FA59105
:1019E000B4918FB7F894111105C09C91ED2FE0953B
:1019F000E92302C0EC91ED2BEC938FBFDF91CF91E7
:101A00001F9108951F920F920FB60F9211242F93DA
:101A10003F934F935F936F937F938F939F93AF9376
:101A2000BF93EF93FF938091480290914902A09158
:101A30004A02B0914B02892B8A2B8B2B59F1809152
:101A40004702E0914502F091460290818927808308
:101A50008091480290914902A0914A02B0914B02B4
:101A6000181619061A061B060CF03DC08091480294
:101A700090914902A0914A02B0914B020197A109AD
:101A8000B1098093480290934902A0934A02B0930F
:101A90004B0229C080910001E2ECF0E0E4919FEF5D
:101AA00090930001E130B9F098F0E230C9F49091E0
:101AB00070009D7F9093700091E09093B0009091A2
:101AC000B100987F94609093B1001092B30008C069
:101AD00010926E0005C090916F009D7F90936F00F3
:101AE00060E00E94D20CFF91EF91BF91AF919F9166
:101AF0008F917F916F915F914F913F912F910F90B7
:101B00000FBE0F901F901895CF93DF9390E0FC01CC
:101B1000E656FF4F2491FC01EA57FF4F849188233A
:101B200061F190E0880F991FFC01E859FF4FC591C2
:101B3000D491FC01EE58FF4FA591B491611109C0F9
:101B40009FB7F8948881209582238883EC912E2377
:101B50000BC0623061F49FB7F8943881822F809572
:101B600083238883EC912E2B2C939FBF06C08FB7C5
:101B7000F894E8812E2B28838FBFDF91CF910895B1
:101B80008230910538F0880F991F880F991F0597AB
:101B90000197F1F7089585ED8093BC008091BC001A
:101BA00084FDFCCF10925F0308954091EF02262F31
:101BB00030E0240F311D21323105DCF420915F0328
:101BC0002430C9F4FC0180E090E0861758F430918D
:101BD000EF022191DC01A353BD4FA30FB11D2C9344
:101BE0000196F3CF8091EF02680F6093EF0280E0DF
:101BF000089581E0089582E008950895E091AB0290
:101C00008091AA02E81730F4F0E0E657FD4F80819A
:101C100090E008958FEF9FEF08959091AB0280912F
:101C2000AA02981750F4E92FF0E0E657FD4F208103
:101C300030E09F5F9093AB0202C02FEF3FEFC901EE
:101C400008958091AA0290E02091AB02821B910935
:101C50000895CF92DF92EF92FF920F931F93CF934D
:101C6000DF937C01262F972F8A01809160038823C0
:101C700091F0C62FD72F6E01C40ED51ECC15DD05F1
:101C800071F06991D701ED91FC910190F081E02D07
:101C9000C7010995F3CF642F822F0E94D50DC8018B
:101CA000DF91CF911F910F91FF90EF90DF90CF9038
:101CB0000895CF93DF931F92CDB7DEB7698320914C
:101CC00060032223D1F020918303203240F021E0F1
:101CD00030E0FC013383228380E090E015C08091E6
:101CE0006103E82FF0E0EE59FC4F998190838F5FFC
:101CF000809361038093830305C061E0CE01019668
:101D00000E94D50D81E090E00F90DF91CF91089572
:101D10003FB7F8948091150390911603A091170393
:101D2000B091180326B5A89B05C02F3F19F0019666
:101D3000A11DB11D3FBFBA2FA92F982F8827820F51
:101D4000911DA11DB11DBC01CD0142E0660F771FA1
:101D5000881F991F4A95D1F708958F929F92AF924D
:101D6000BF92CF92DF92EF92FF926B017C010E94B3
:101D7000880E4B015C01C114D104E104F104F1F0BF
:101D80000E94880EDC01CB0188199909AA09BB09B8
:101D9000883E9340A105B10570F321E0C21AD10835
:101DA000E108F10888EE880E83E0981EA11CB11CA2
:101DB000C114D104E104F10419F7DDCFFF90EF90D5
:101DC000DF90CF90BF90AF909F908F9008951F921B
:101DD0000F920FB60F9211242F933F938F939F93DF
:101DE000AF93BF9380914F0290915002A091510206
:101DF000B09152023091140323E0230F2D3720F4C9
:101E00000196A11DB11D05C026E8230F0296A11D54
:101E1000B11D2093140380934F0290935002A0931E
:101E20005102B09352028091150390911603A09134
:101E30001703B09118030196A11DB11D80931503DE
:101E400090931603A0931703B0931803BF91AF911B
:101E50009F918F913F912F910F900FBE0F901F90E8
:101E600018959C01220F331F820F931F2091C902E6
:101E7000E091CA02F091CB02E80FF91FE20FF11DC9
:101E800060832091C802E091CA02F091CB02E80F72
:101E9000F91FE20FF11D50832091C702E091CA02A1
:101EA000F091CB028E0F9F1FFC01E20FF11D4083CA
:101EB00080E008951092C6021092C5021092C402EA
:101EC000E4EBF2E0ACEAB2E0119211921D9282E0F2
:101ED000E43CF807C9F70895CF93809189028823DD
:101EE00029F0109289028FEF8093010110924C0229
:101EF000109287031092840310924D02109288036F
:101F00001092850310924E0210928903109286035C
:101F1000C0E082EF8C0F863018F462E070E002C0FF
:101F200061E070E08C2F0E94A914CF5FC43189F763
:101F300010926C0210926B02CF910C945A0FDC013C
:101F400070E0FB01E656FF4FE4911896EC9318976A
:101F50006A577F4FFB018491E82FF0E0EE0FFF1FDF
:101F6000EE58FF4F8591949115969C938E931497FC
:101F7000FB016491E62FF0E0EE0FFF1FE859FF4FE1
:101F80008591949117969C938E9316970895FC01D2
:101F9000158216821782DC011896885B9F4F1D926E
:101FA000A817B907E1F71C92DF01A75BBF4F1D928D
:101FB0001C92ED56FF4F0190F081E02D309709F013
:101FC000099408951F920F920FB60F9211242F9328
:101FD0003F934F935F936F937F938F939F93AF93B1
:101FE000BF93EF93FF938091B900887F803609F407
:101FF0009CC068F5883209F45BC090F4803109F424
:1020000054C038F4882309F4F6C0883009F44DC070
:10201000F6C0883109F44CC0803209F45DC0EFC0CD
:10202000803409F468C048F4803309F455C088331B
:1020300009F0E5C080935D03D8C0803509F44FC036
:10204000883509F45DC0883409F0D9C0D6C0883914
:1020500009F4C7C0A8F4883709F467C038F4883693
:1020600009F463C0803709F460C0C9C0883809F436
:10207000B8C0803909F45FC0803809F0C0C05BC0C7
:10208000803B09F486C038F4803A09F466C0883A87
:1020900009F47FC0B4C0803C09F4A7C0883C09F4AF
:1020A000A4C0883B09F48AC0AAC080913A0310C03A
:1020B00090915C0380915B03981770F5E0915C034D
:1020C00081E08E0F80935C03F0E0E55CFC4F808143
:1020D0008093BB0085EC86C080935D038EC0E09149
:1020E0005C0381E08E0F80935C038091BB00F0E085
:1020F000E55CFC4F808390915C0380915B036EC034
:10210000E0915C0381E08E0F80935C038091BB00C3
:10211000F0E0E55CFC4F808380915E0381116DC02F
:1021200081E08093390384EA61C083E080935F0398
:1021300010921303CFCF80911303803208F051C067
:10214000E091130381E08E0F809313038091BB0015
:10215000F0E0ED50FD4F8083BDCF85EC8093BC0057
:1021600010925F0380911303803230F4E0911303E7
:10217000F0E0ED50FD4F10826091130370E0E091AC
:10218000F102F091F20283EF92E0099510921303AD
:1021900036C084E080935F031092F0021092EF0249
:1021A000E091ED02F091EE0209958091EF0281112C
:1021B00005C081E08093EF021092CD02E091F00221
:1021C00081E08E0F8093F002F0E0E353FD4F8081B9
:1021D0008093BB009091F0028091EF02981708F471
:1021E00079CF85E88093BC000AC085EC8093BC0061
:1021F00010925F0304C010925D030E94CB0DFF910B
:10220000EF91BF91AF919F918F917F916F915F916E
:102210004F913F912F910F900FBE0F901F901895E7
:10222000BF92CF92DF92EF92FF920F931F93CF93C3
:10223000DF93EC01B8800B2D10E0603282E078076C
:102240000CF03DC0653B710514F064EB70E08981D2
:1022500028E830E06901C81AD10887FDD394D60177
:10226000AA0FBB1FAA0FBB1F6D01BB0FEE08FF0813
:10227000DB0177FF02C0A0E0B0E08A8128E532E010
:10228000281B310987FD3395220F331F220F331F7F
:10229000A901330F660B770B9A01AB012C193D098D
:1022A0004E095F090E94341C24EB30E040E050E00E
:1022B0000E940A1CC20ED31EE41EF51EB60143E0A6
:1022C000000F111F4A95E1F7F801EB5EFA4F748396
:1022D00063838BE08B1558F1898148E850E0481BF7
:1022E000510987FD5395440F551F440F551F64171F
:1022F000750784F02A8188E592E0821B910927FD09
:102300009395880F991F880F991FAB018617970720
:102310000CF4AC018FB7F894F801EB5EFA4F425021
:102320005109440F551F528341838FBF1782DF919C
:10233000CF911F910F91FF90EF90DF90CF90BF90C2
:102340000895CF92DF92EF92FF921F93CF93DF9386
:10235000EC01162F6A01790188818C3008F062C087
:1023600061E0812F0E94840D888198E0899FF001AF
:102370001124EB5EFA4F1F739081907C192B108310
:1023800060E272E0AB014C195D0957FF02C04D5F7E
:102390005F4F5595479555954795498340E659E0D8
:1023A0009A012E193F0937FF02C02D5F3F4F359527
:1023B0002795359527952A836CE00E946D1C9CE03B
:1023C000899FA001112420E030E0F901E40FF51FFE
:1023D00093E0EE0FFF1F9A95E1F7EB5EFA4F9081C5
:1023E00096FD16C02F5F3F4F2C30310571F78111DC
:1023F0000FC01092800082E08093810010928500CF
:1024000010928400B19A80916F00826080936F0077
:10241000E88188E0E89FF0011124EB5EFA4F8081AB
:10242000806480838881DF91CF911F91FF90EF902E
:10243000DF90CF9008951F920F920FB60F92112444
:102440002F933F934F935F936F937F938F939F93BC
:10245000AF93BF93EF93FF938091CC0287FF05C0AA
:10246000109285001092840016C02091CC02022E9A
:10247000000C330B8091750590E0281739075CF448
:10248000E091CC0228E0E202F0011124EB5EFA4F69
:10249000808186FD15C08091CC028F5F8093CC0235
:1024A0002091CC02022E000C330B8091750590E038
:1024B000281739079CF48091CC028C3034F10EC07F
:1024C000E091CC0228E0E202F0011124EB5EFA4F29
:1024D000808160E08F730E94D20CDDCF80918400F8
:1024E0009091850084349C4918F480E49CE905C0EF
:1024F0008091840090918500049690938900809348
:1025000088008FEF8093CC02EDC0E091CC0288E090
:10251000E802F0011124EB5EFA4F8781882309F469
:10252000B5C0A091CC02E091CC0288E0A802D00115
:102530001124AB5EBA4F28E0E202F0011124EB5EF9
:10254000FA4F15962D913C91169781819281A09119
:10255000CC02E091CC028217930708F04BC088E0D0
:10256000E802F0011124EB5EFA4F28E0A202D0014C
:102570001124AB5EBA4F17962C9181819281820F04
:10258000911D92838183A091CC02E091CC0288E0DE
:10259000A802D0011124AB5EBA4F28E0E202F0019C
:1025A0001124EB5EFA4F15962D913C91169781817F
:1025B00092818217930708F469C0E091CC02A09140
:1025C000CC0288E0E802F0011124EB5EFA4F28E02B
:1025D000A202D0011124AB5EBA4F15968D919C9149
:1025E000169792838183E091CC0288E0E802F001A3
:1025F000112449C028E0E202F0011124EB5EFA4FF9
:1026000088E0A802D0011124AB5EBA4F17962C9136
:1026100081819281821B910992838183A091CC0256
:10262000E091CC0228E0A202D0011124AB5EBA4FA7
:1026300088E0E802F0011124EB5EFA4F15962D9127
:102640003C9116978181928128173907F8F0E09123
:10265000CC02A091CC0228E0E202F0011124EB5E52
:10266000FA4F88E0A802D0011124AB5EBA4F15964C
:102670008D919C91169792838183E091CC0228E002
:10268000E202F0011124EB5EFA4F178220918400E0
:1026900030918500E091CC0288E0E802F00111243D
:1026A000EB5EFA4F81819281820F931F9093890094
:1026B00080938800E091CC0228E0E202F00111242E
:1026C000EB5EFA4F808186FF0DC0E091CC0288E07E
:1026D000E802F0011124EB5EFA4F808161E08F7314
:1026E0000E94D20CFF91EF91BF91AF919F918F917A
:1026F0007F916F915F914F913F912F910F900FBEFE
:102700000F901F901895833028F4E82FF0E0E45BD9
:10271000FD4F60830895863000F540916B02509123
:102720006C0221E030E0672B61F4B90102C0660F52
:10273000771F8A95E2F7CB018095909584239523A6
:1027400008C002C0220F331F8A95E2F7CA01822B0C
:10275000932B90936C0280936B020895833008F062
:1027600062C0482F440F440F440F485F453108F0C2
:1027700044E1582F550F550F550F90E071E0541755
:10278000F0F42EEF250F2231B8F4252F30E0F901B7
:10279000E359FD4FE081E23078F4972B220F331F8D
:1027A000F901EA5FFD4FA1E0B0E0272F262311F4E5
:1027B000A0E0B0E0B183A083770F5F5FE0CF81112D
:1027C0000AC09C7FF8948BB1292F2095822369231E
:1027D000682B6BB927C08130C1F46923F89425B107
:1027E000892F8F7380958223262F2F73822B85B993
:1027F00088B1629566956695637092959695969563
:10280000937090959823692B0CC09F70F89428B111
:10281000892F880F880F809582236923660F660FA2
:10282000682B68B978940895EF92FF921F93CF9325
:10283000DF93182F7B01843108F085C0C82FD0E0CA
:10284000FE01E359FD4F80818330A9F0843009F007
:102850007AC012501C3008F070C09E01225031091D
:1028600046E0429FC001439F900D11248A589A4F21
:102870000E94101162C0133049F08BEF810F82303B
:1028800028F087EF810F833008F057C061E0812F77
:102890000E94840DE114F10411F460E005C08FEF93
:1028A000E816F10429F461E0812F0E94D20C45C0A2
:1028B000FE01E255FF4FE491E330F9F048F4E130D6
:1028C000B9F0E230A1F584B5806284BDE8BC35C0C2
:1028D000E730E9F0E83019F1E43049F58091800003
:1028E000806280938000F0928B00E0928A0025C085
:1028F00084B5806884BDE7BC20C08091800080687A
:1029000080938000F0928900E092880016C0809148
:10291000B00080688093B000E092B3000EC0809158
:10292000B00080628093B000E092B40006C080E8FE
:10293000E816F1040CF0B7CFB0CFCC0FDD1FCA5FA3
:10294000DD4FF982E882DF91CF911F91FF90EF90E8
:102950000895BF92CF92DF92EF92FF920F931F9351
:10296000CF93DF9300D0CDB7DEB7B82E6B01E82E42
:10297000F12C870103591D4FD8018C91863061F4E9
:1029800080918902882341F06630710529F0109208
:1029900089028FEF809301014EEF4B0D4C30C0F454
:1029A000E4E0CE16D104A1F0C701029726E0289FEB
:1029B000F001299FF00D1124EA58FA4FE08128E038
:1029C000E29FF0011124EB5EFA4F808186FDD8C0B2
:1029D00092EF9B0D963078F461E070E082E0C816CB
:1029E000D10411F060E070E0892F49839A830E943E
:1029F0008B139A8149814231C8F4EB2DE695E69517
:102A0000E6958B2D8770F0E0E957FC4F21E030E030
:102A100001C0220F8A95EAF7C114D10419F480810C
:102A2000282B03C02095808128232083F701EE0FF7
:102A3000FF1FEA5FFD4F11821082A2E0CA16D10487
:102A4000A1F03CF4C114D104F9F0CA94CD2851F19D
:102A500088C0F4E0CF16D10409F44DC094F186E0AB
:102A6000C816D10409F475C07CC0963008F08BC03C
:102A7000423140F460E08B2D0E94840D60E08B2D8C
:102A80000E94D20C82E01AC0423108F07CC060E0A3
:102A90008B2D0E94840D60E08B2D0E94D20CF801DA
:102AA000108271C0423108F06EC060E08B2D0E9430
:102AB000D20C61E08B2D0E94840D81E0D8018C93B3
:102AC00062C0B3E0BB1649F08BEF8B0D823028F06B
:102AD00087EF8B0D833008F056C061E08B2D0E948C
:102AE000840D61E08B2D0E94840D60E08B2D0E948F
:102AF000D20C83E033C04C3008F045C084E0D801EC
:102B00008C9397012250310946E0429FC001439FB8
:102B1000900D11248A589A4FDC01EC91B8E0EB9F9C
:102B2000F0011124EB5EFA4F208126FD2CC020E637
:102B300039E040E252E0B7010F900F90DF91CF9162
:102B40001F910F91FF90EF90DF90CF90BF900C946A
:102B5000A1118EEE8B0D8230B0F486E0F8018083F7
:102B600012C086EA91E00F900F90DF91CF911F91F4
:102B70000F91FF90EF90DF90CF90BF900C943017A3
:102B80008F7B808325CF0F900F90DF91CF911F9186
:102B90000F91FF90EF90DF90CF90BF900895EF924C
:102BA000FF920F931F93CF93DF93D82F8B01C42FE6
:102BB0006F3F8FEF7807B1F081E080936003D0938F
:102BC0008203109261031092830389E095E00E94D2
:102BD000590E0E94A41780912E0290912F020E94FC
:102BE000C00D02C000E010E080915F038111FCCFB6
:102BF0002C2FC13208F020E281E080935F038093A4
:102C00005E039FEF90935D0310925C03920F90938D
:102C10005B0380933A0380913A039D2F990F892B90
:102C200080933A0380913903813061F41092390323
:102C300080913A038093BB008091BC0083FDF8CF64
:102C400085EC01C085EE8093BC0080915F038130EC
:102C5000E1F380915C03821710F420915C03ABE3F5
:102C6000B3E04AE852E0FA018E2F841B821718F471
:102C70008D918193F9CF1092AB022093AA02EC2E92
:102C8000F12C30E0E216F306A1F4D093190300937F
:102C90001A0300E010E00E151F05ACF489E095E082
:102CA0000E940D0EF801E75EFC4F82830F5F1F4FFD
:102CB000F2CF2E153F051CF487EB91E002C08FED9B
:102CC00091E00E94301762E06C0F49E153E087E722
:102CD000DF91CF911F910F91FF90EF900C94F71619
:102CE00080916F0490917004DC01ED91FC91019052
:102CF000F081E02D67EF099480916F04909170044A
:102D0000DC01ED91FC910190F081E02D60EF0994E0
:102D1000682F8AE893E00C94B30B0F931F93CF9323
:102D2000082F10E0F801E957FC4F9081C62FC92306
:102D30000C571C4FD8019C919C1771F1682F809102
:102D40006F0490917004DC01ED91FC916F706069EB
:102D50000190F081E02D099580916F0490917004AD
:102D6000DC01ED91FC916C2F6F770190F081E02DEB
:102D7000099580916F0490917004DC01ED91FC91B4
:102D80006C2F70E0660F672F661F770B0190F08144
:102D9000E02D0995F801C083CF911F910F910895FF
:102DA0000F931F93CF93DF93EC010FE614E0D8014C
:102DB0008D919C91DC01ED91FC916C2F6F770190CE
:102DC000F081E02D0995F80180819181DC01ED9180
:102DD000FC91CC0FCD2FCC1FDD0B6C2F6F770190AA
:102DE000F081E02DDF91CF911F910F910994EF9227
:102DF000FF920F931F93CF93DF9300D01F92CDB715
:102E0000DEB7162F4A835B8389830E947C16A091CC
:102E10006F04B0917004ED91FC9111970190F081D5
:102E2000E02D8981682FCD0109954A81042FE42E78
:102E30005B81F52E8E2D801B811738F4F70181916F
:102E40007F0190E00E94D016F5CF0F900F900F9069
:102E5000DF91CF911F910F91FF90EF900C9470161E
:102E6000FC0101900020E9F73197BF01681B790B45
:102E7000AC0181E70C94F716CF930E947C168091E9
:102E80006F0490917004DC01ED91FC910190F08150
:102E9000E02D69E7099580916F0490917004DC0141
:102EA000ED91FC91A0917204B09173040190F081B6
:102EB000E02D6C91099580916F0490917004DC0174
:102EC000ED91FC91A0917204B09173040190F08196
:102ED000E02D11966C910995C2E080917104C8179C
:102EE00060F4E0917204F0917304EC0FF11D8081A5
:102EF00090E00E94D016CF5FF0CFCF910C94701667
:102F0000CF93DF93CFE6D4E088819981DC01ED9106
:102F1000FC910190F081E02D69EF099588819981FC
:102F2000DC01ED91FC910190F081E02D62E00995CA
:102F300088819981DC01ED91FC910190F081E02D77
:102F400065E0DF91CF9109942091830390918203F2
:102F5000213208F04AC080915F038111FCCF32E03A
:102F600030935F0331E030935E033FEF30935D03B6
:102F700010925C0320935B03A2E6B3E04BE353E0C3
:102F8000FA013E2F341B321718F43D913193F9CFDB
:102F900010923A0320913A03990F922B90933A039F
:102FA00090913903913061F41092390390913A0372
:102FB0009093BB009091BC0093FDF8CF95EC01C0BD
:102FC00095EE9093BC0090915F039230E1F3909165
:102FD0005D039F3F79F080915D03803241F08091E5
:102FE0005D03803331F084E005C081E003C082E0FE
:102FF00001C083E01092610310928303109260037A
:103000000895CF92DF92EF92FF920F931F93E82FD4
:10301000F92F05C0015011092109310961F1908191
:1030200096239417B9F305C00150110921093109FC
:1030300011F1908196239413F7CFC12CD12CE12C60
:10304000F12C0AC08FEFC81AD80AE80AF80A0C1542
:103050001D052E053F0579F080818623841791F3A5
:103060006C2D7D2D8E2D9F2D1F910F91FF90EF9038
:10307000DF90CF90089560E070E080E090E01F91D5
:103080000F91FF90EF90DF90CF900895789484B5E2
:10309000826084BD84B5816084BD85B5826085BD54
:1030A00085B5816085BD80916E00816080936E00E2
:1030B00010928100809181008260809381008091D4
:1030C0008100816080938100809180008160809385
:1030D00080008091B10084608093B1008091B00045
:1030E00081608093B00080917A00846080937A0040
:1030F00080917A00826080937A0080917A0081606A
:1031000080937A0080917A00806880937A00109290
:10311000C1008DE0809371048091720490917304DA
:103120000E94141DC0917104D0E0CE0101960E944E
:103130007F1C9093730480937204FC01EC0FFD1FBD
:10314000108212E0DC011C9325E011962C93AE0155
:10315000425051096AE971E002960E94D31D84E150
:1031600094E19093F7048093F6048EEA93E19093B0
:10317000F9048093F8048BE893E19093FB04809327
:10318000FA0483E893E19093FD048093FC0489EAB8
:1031900094E19093FF048093FE048EE890E0909376
:1031A0000705809306058CE69FE0909303058093C6
:1031B0000205E0919A03F0919B031083E09196033E
:1031C000F09197031082E0919803F091990380E1C8
:1031D00080831092A203E0919E03F0919F0386E00A
:1031E0008083E0919C03F0919D03808180618083C6
:1031F000E0919C03F0919D03808188608083E09141
:103200009C03F0919D03808180688083E0919C0302
:10321000F0919D0380818F7D80838AE893E0909375
:10322000700480936F0480910805811150C061E0A3
:103230008DE00E94840D62ED70E080E090E00E94DD
:10324000AD0E61E08DE00E94D20C68E270E080E09B
:1032500090E00E94AD0E60E08DE00E94D20C62ED25
:1032600070E080E090E00E94AD0E61E08DE00E9491
:10327000D20C68E270E080E090E00E94AD0E60E069
:103280008DE00E94D20C6AEF70E080E090E00E9436
:10329000AD0EC0E062ED70E080E090E00E94AD0E07
:1032A00061E08DE00E94D20C68E270E080E090E086
:1032B0000E94AD0E60E08DE00E94D20CCF5FC53061
:1032C00049F76DE770E080E090E00E94AD0E0E944B
:1032D00080178091710481110E943C170E946C0F2D
:1032E000BB24B39452E0A52E80914C02882341F078
:1032F00069B18091870368236C7F80E00E948D16FE
:1033000080914D02882371F063B196B1B0E49B9F28
:10331000C00111246F73862B60918803682381E0BC
:103320000E948D1680914E028823D1F066B16C7395
:103330006695669580918903682382E00E948D16C8
:103340000FC080916F0490917004EC01E881F981C5
:103350000680F781E02D09958F3FDFEF9D0771F41F
:1033600080916F0490917004DC01ED91FC910480D8
:10337000F581E02D0995892B21F71EC1382F209169
:10338000B704222309F467C0873F09F055C01092A3
:10339000B70480917704813751F0893709F03EC036
:1033A000809171048823E1F20E943C17D9CFE0910B
:1033B0000405F0910505309799F22091B8043091F9
:1033C000B904C901019797FDC90195958795182FF3
:1033D000A7E7B4E040E050E030E04E5F5F4F3117C8
:1033E00070F4BA0161597B4FEB012F812C936885F2
:1033F000D0E86D9F201911242D933F5FEECF9927C0
:10340000DC01A159BB4F17968C911797882311F0B7
:1034100018961C9287E794E00995A2CFE0910605E3
:10342000F0910705309709F49BCF6091B804615083
:1034300048E754E0099594CF2091B8043091B9043D
:10344000F901E159FB4F80872F5F3F4F3093B9045B
:103450002093B80485CF20917404222309F469C015
:1034600087FD67C09FEF920F90937404E92FF0E0FF
:10347000E159FB4F8087911173CF809175048823A8
:1034800009F46ECF803D09F445C050F4803901F154
:10349000803C09F04BC0E091FA04F091FB043EC07F
:1034A000843F39F1853F51F1803E09F03FC0E09102
:1034B000F604F091F7043097C9F180917704609198
:1034C000780470E020E8829F600D711D11242BC0EC
:1034D000E091F804F091F904309741F1809177047C
:1034E0006091780470E090E8899F600D711D11244F
:1034F0001AC0E091FE04F091FF0404C0E0910005C1
:10350000F0910105309791F06091770470E080911F
:1035100078040BC0E091FC04F091FD04309731F089
:103520006091770470E0809176040995109275049B
:1035300017CF303F38F4282F207F30E08F708093F2
:10354000760402C09C013327203F310559F17CF4F9
:10355000203C310511F124F420393105D9F000CF98
:10356000203D3105D1F0203E3105A1F0F9CE293FB3
:103570003105F9F034F4C901845F9109029750F0E4
:10358000EFCE2F3F310509F0EBCE8FE694E00E949D
:10359000C70FE6CEA092740402C0B09274042093C8
:1035A0007504DECEB092B7041092B9041092B8043C
:1035B000D7CE0E948017D4CE8FB7F89400914F02D7
:1035C0001091500220915102309152028FBF00930E
:1035D000850210938602209387023093880280919F
:1035E000810290918202A0918302B0918402409165
:1035F000020150910301052E000C660B770B081B8E
:10360000190B2A0B3B0B401751076207730708F091
:103610006AC0840F951FA61FB71F809381029093E5
:103620008202A0938302B09384023DE6C32E32E06F
:10363000D32E12EF163098F5E6018881823079F5A5
:1036400080916B0290916C02012E02C09595879536
:103650000A94E2F780FF23C0812F806480937C006E
:1036600080917A00806480937A0080917A0086FD50
:10367000FCCFE090780080917900F12CF82A8091BD
:103680006F0490917004DC01ED91FC910190F08148
:10369000E02D612F606E0995C7010E94D0161F5F53
:1036A000BFEFCB1ADB0A163029F68091010187FDA6
:1036B0001AC010E0E12FF0E080910101082E000C0B
:1036C000990B8E179F077CF0CF01880F991FE80F89
:1036D000F91FED5AFD4F618170E0428180810E94A7
:1036E000CF151F5FE7CF0E941C0CFECD08951092EE
:1036F0008D0310928C0388EE93E0A0E0B0E08093FD
:103700008E0390938F03A0939003B093910382E173
:1037100091E090938B0380938A0385EC90E09093E3
:1037200097038093960384EC90E0909399038093A1
:10373000980380EC90E090939B0380939A0381EC34
:1037400090E090939D0380939C0382EC90E0909393
:103750009F0380939E0386EC90E09093A103809357
:10376000A0031092A3031092A4031092A503109239
:10377000A603E7E2F4E011821082138212823996E6
:1037800064E0EF36F607B9F710920805109271045D
:1037900010927304109272048FE694E00E94C70F97
:1037A00010920C0510920B0588EE93E0A0E0B0E0BB
:1037B00080930D0590930E05A0930F05B09310050F
:1037C00082E291E090930A05809309058091750546
:1037D000E6E7F5E09FEF28EB3BE044E051E08C307A
:1037E00080F4808368E0869FD0011124AB5EBA4FDD
:1037F00012963C932E9311971582548343838F5FC7
:1038000001C09083369665E0EE3BF60741F7809362
:1038100075050895052E97FB1EF400940E94211C47
:1038200057FD07D00E943C1C07FC03D04EF40C94BB
:10383000211C50954095309521953F4F4F4F5F4F3C
:10384000089590958095709561957F4F8F4F9F4F0C
:1038500008950E945E1CA59F900DB49F900DA49F9B
:10386000800D911D11240895B7FF0C94291C0E940E
:10387000291C821B930B0895A1E21A2EAA1BBB1BC5
:10388000FD010DC0AA1FBB1FEE1FFF1FA217B3072C
:10389000E407F50720F0A21BB30BE40BF50B661F42
:1038A000771F881F991F1A9469F760957095809506
:1038B00090959B01AC01BD01CF010895A29FB0017D
:1038C000B39FC001A39F700D811D1124911DB29F54
:1038D000700D811D1124911D0895991B79E004C07C
:1038E000991F961708F0961B881F7A95C9F780953F
:1038F0000895EE0FFF1F0590F491E02D0994CF93EA
:10390000DF938230910510F482E090E0E091C005F1
:10391000F091C10520E030E0C0E0D0E0309711F137
:103920004081518148175907C0F04817590761F481
:1039300082819381209719F09B838A832BC0909377
:10394000C1058093C00526C02115310519F0421725
:10395000530718F49A01BE01DF01EF010280F381E1
:10396000E02DDCCF2115310509F1281B390B24305E
:10397000310590F412968D919C9113976115710504
:1039800021F0FB019383828304C09093C10580934F
:10399000C005FD01329644C0FD01E20FF31F819383
:1039A0009193225031092D933C933AC02091BE054A
:1039B0003091BF05232B41F420910A0130910B0176
:1039C0003093BF052093BE05209108013091090175
:1039D0002115310541F42DB73EB740910C015091AE
:1039E0000D01241B350BE091BE05F091BF05E217D8
:1039F000F307A0F42E1B3F0B2817390778F0AC0112
:103A00004E5F5F4F2417350748F04E0F5F1F5093EE
:103A1000BF054093BE058193919302C0E0E0F0E0C2
:103A2000CF01DF91CF9108950F931F93CF93DF9331
:103A3000009709F48CC0FC01329713821282009126
:103A4000C0051091C1050115110581F42081318156
:103A5000820F931F2091BE053091BF0528173907AB
:103A600079F5F093BF05E093BE0571C0D80140E041
:103A700050E0AE17BF0750F412962D913C9113976A
:103A8000AD012115310509F1D901F3CF9D01DA010D
:103A90003383228360817181860F971F821793077A
:103AA00069F4EC0128813981260F371F2E5F3F4FC3
:103AB000318320838A819B8193838283452B29F4E0
:103AC000F093C105E093C00542C01396FC93EE93BA
:103AD0001297ED01499159919E01240F351FE2176C
:103AE000F30771F480819181840F951F02961196DE
:103AF0009C938E938281938113969C938E931297BD
:103B0000E0E0F0E0D80112968D919C911397009718
:103B100019F0F8018C01F6CF8D919C9198012E5FE0
:103B20003F4F820F931F2091BE053091BF0528178C
:103B3000390769F4309729F41092C1051092C00535
:103B400002C0138212821093BF050093BE05DF915D
:103B5000CF911F910F91089581E090E0F8940C941B
:103B6000E21DFB01DC0102C001900D92415050406A
:103B7000D8F708956817790768F4FB01DC01E40FB2
:103B8000F51FA40FB51F02C002900E924150504085
:103B9000D8F708950C94B11DDC0101C06D9341501C
:103BA0005040E0F70895FB01DC014150504048F0DF
:103BB00001900D920020C9F701C01D924150504064
:103BC000E0F7089510E0C3E6D0E004C0FE010E94D3
:0E3BD000791C2196C436D107C9F7F894FFCFAF
:103BDE00FFFF130000642D640000C205800000008A
:103BEE000000B30B2F0B7C0B5A0B6E0BFA0B000065
:103BFE000000590E290E210E0D0EFE0DFD0D313059
:103C0E002D6269742061646472657373696E6720D6
:103C1E006E6F7420737570706F7274656400746F5C
:103C2E006F206D616E7920717565726965730043E1
:103C3E003A5C55736572735C6C69755C4170704467
:103C4E006174615C526F616D696E675C4B6974740F
:103C5E00656E626C6F636B5C776F726B73706163B2
:103C6E00655C70726F6A6563745C70726F6A6563AF
:103C7E00742E696E6F00556E6B6E6F776E20706965
:103C8E006E206D6F64650049324320526561642079
:103C9E004572726F723A20546F6F206D616E79208B
:103CAE00627974657320726563656976656400492F
:103CBE0032432052656164204572726F723A20540D
:103CCE006F6F206665772062797465732072656305
:063CDE00656976656400D3
:00000001FF
