:100000000C9464000C948C000C948C000C94920F53
:100010000C94920F0C94920F0C948C000C941B0C6B
:100020000C948C000C948C000C948C000C94E318B1
:100030000C948C000C948C000C948C000C948C0010
:100040000C94480F0C948C000C94C30C0C949D0CD5
:100050000C948C000C948C000C948C000C948C00F0
:100060000C941D110C948C0000000000230026004D
:10007000290004040404040404040202020202022B
:10008000030303030303010204081020408001025C
:1000900004081020010204081020000000080002DB
:1000A000010000030407000000000000000002003F
:1000B000000000240027002A00000000002500287E
:1000C000002B00005A1E591E11241FBECFEFD8E08E
:1000D000DEBFCDBF12E0A0E0B1E0E8ECF2E402C088
:1000E00005900D92AC31B107D9F726E0ACE1B2E052
:1000F00001C01D92AB33B207E1F710E0C3E6D0E0D8
:1001000004C02197FE010E94EE1FC236D107C9F735
:100110000E94901A0C9457210C9400002F923F9249
:100120004F925F926F927F928F929F92AF92BF9207
:10013000CF92DF92EF92FF920F931F93CF93DF93B3
:10014000CDB7DEB72D970FB6F894DEBF0FBECDBF8B
:10015000162F7A01843709F424C408F58B3609F484
:1001600091C290F4813509F4CEC4893611F00C9413
:10017000090B80EF90E00E9413148AE690E00E9441
:10018000131402EF1FEF37C38F3609F458C28037BC
:1001900009F42CC18D3611F00C94090BD7C28837A5
:1001A00009F4D7C038F4853709F429C3863769F0D4
:1001B0000C94090B8C3709F46EC78D3709F454C1C0
:1001C0008A3711F00C94090B22C2DA0111968C9136
:1001D000282F287185FF03C08EE291E05BC0FA01F1
:1001E0008081283079F170F421110C94090B91E091
:1001F00090936C0380938E0310926D0310928F0383
:1002000002E007C02031F1F0283109F459C00C9404
:10021000090B011778F4F701E00FF11D818160816E
:10022000F0E88F9F601911248BE395E00E94FC0D8C
:100230000E5FEFCF0E94821483E191E00197F1F706
:100240000C94090BD70113969C91139712964C911D
:10025000163071F4642FB0E89B9F60191124F701E8
:1002600035819481492FF0E83F9F4019112405C042
:1002700030E8939F401911246FEF283029F470E083
:100280000E9465160C94090BE0910101E73034F0EF
:100290008EE491E00E9407140C94090BEF5FE09349
:1002A00001010E2E000CFF0B9F01220F331FE20FE6
:1002B000F31FE358FD4F8083618342830C94090B45
:1002C0007091010117162CF08FEF809301010C94AF
:1002D000090B60E0472F072E000C550B262F30E04E
:1002E000421753076CF0F901EE0FFF1F2E0F3F1F4F
:1002F000F901E358FD4F9081981709F16F5FEECF38
:1003000060E01DC06830D0F4DC0111969D01220F21
:10031000331FA20FB31FA358BD4F2C91FC01EE0F4A
:10032000FF1F8E0F9F1FFC01E358FD4F2083119686
:100330008C911197818312968C9182836F5F862FA7
:1003400090E048175907F4F67150709301010C942E
:10035000090BDA012C9111968C91B0E88B9FC001AA
:100360001124820F911D009721F0909349028093F0
:1003700048028091340681110C94090B10E08EEE36
:10038000810F823028F466E070E0812F0E947017A0
:100390001F5F1631A1F781E0809334061092D602D8
:1003A0001092D50210926D0310928F0310926B037E
:1003B00080936A031092450361E082E10E945B0E24
:1003C00061E083E10E945B0E8091B9008E7F809393
:1003D000B9008091B9008D7F8093B90088E4809343
:1003E000B80085E48093BC000C94090B653010F4D0
:1003F0000C94090BFA011081D1800281C380F48032
:100400008EEF810F823110F00C94090BE12FF0E098
:10041000E25EF94FE08126E0E29FF0011124E85509
:10042000FA4FE08138E0E39FF0011124E95BFA4FD5
:10043000808186FF03C0812F0E94071780E8F89E05
:10044000A00111244C0D511D90E8099FB001112409
:100450006D0D711D812F0E94341764E070E0812FB3
:100460000E9470170C94090BDA010C9111962C91D3
:10047000119712968C91129713969C91139714963C
:10048000CC903EEF300F323110F00C94090BB0E8F5
:100490008B9F70011124E20EF11CE0E8CE9E6001FA
:1004A0001124C90ED11C10E0F801E25EF94FC1140D
:1004B000D10459F48081F6E08F9FC0011124B70167
:1004C00088559A4F0E944B1299C0E0818E2E912C34
:1004D00026E0E29FF0011124E855FA4F308038E021
:1004E000339E50011124D501A95BBA4F1496FC929A
:1004F000EE92139740E2E41642E0F4060CF041C09D
:10050000818128E830E02901481A510887FD539479
:10051000440C551C440C551C052C000C660877082F
:10052000D70155EBE516F10414F0A4EBB0E086E03A
:10053000889DF001899DF00D1124E855FA4F8281C4
:1005400028E532E0281B310987FD3395220F331F40
:10055000220F331FA901330F660B770B9A01AB01F2
:1005600024193509460957090E94A91F24EB30E0D8
:1005700040E050E00E947F1F420E531E641E751E15
:1005800001C027018BE08315C8F186E0889DF0014A
:10059000899DF00D1124E855FA4F218188E890E0FB
:1005A000821B910927FD9395880F991F880F991F2A
:1005B0004816590684F0828128E532E0281B31096B
:1005C00087FD3395220F331F220F331FC2012415DD
:1005D00035050CF4C9012FB7F894F501E95BFA4F22
:1005E0000297880F991F96838583C6018F3F9105D7
:1005F00019F014F08FEF90E087832FBF000F111FC9
:10060000F801E45EFD4FF182E0820C94090B623048
:1006100010F40C94090BDA012C9111968C91B0E82E
:100620008B9FC0011124820F911D009711F481E06E
:1006300090E090930301809302010C94090B6230C7
:1006400010F40C94090BFA01618170E01230A1F0F2
:100650008281F0E88F9FC0011124682B792B133021
:1006600059F0DA0113968C9190E090E4899F902DD7
:1006700088271124682B792BF70180810E94D115DE
:100680000C94090B80EF90E00E9413148CE690E02C
:100690000E9413141EEF84EF810F883048F482E02B
:1006A00090E00E9413148AE090E00E9413140BC0A3
:1006B000113049F483E090E00E94131488E090E048
:1006C0000E94131408C08DEF810F823098F389EFD8
:1006D000810F833078F3123140F484E090E00E947F
:1006E00013148EE090E00E94131480EF810F82308B
:1006F00040F486E090E00E94131481E090E00E94B4
:1007000013148FE790E00E9413141F5F143191F1CE
:10071000123108F660E086E993E00E94A60B81E0C2
:1007200090E00E94131461E086E993E00E94A60B1A
:1007300081E090E00E94131465E786E993E00E944F
:10074000A60B81E090E00E941314A5CF662309F464
:1007500060C7DA010C9180EF90E00E9413148EE6DE
:1007600090E00E941314602F86E993E00E94A60B8C
:10077000063128F087EF90E00E9413144AC710E07A
:10078000F801E956FD4F608186E993E00E94A60BCF
:10079000000F111FF801E45EFD4F00811181C801B7
:1007A0008F7799270E941314C8018078892B49F00C
:1007B000C801880F892F881F990B8F7799270E946E
:1007C0001314C8018827907C892BA1F2C801990FC6
:1007D000880B990F982F881F8F7799270E941314E1
:1007E000C9CF8FE790E00E9413140F5F1F4F0830AE
:1007F000110509F4BFCF0830A0F7C801F4CF62306B
:1008000008F407C7FA01C080D18012818481438037
:1008100080FB47F8512C612C712C742C66245524D4
:1008200044248681958180FB97F9892F90E0A0E090
:10083000B0E0DC0199278827480E591E6A1E7B1EEE
:100840009285818590FB87F9A3019201280F311DC4
:10085000411D511DDA01C9012085478020FB47F861
:10086000512C612C712C762C652C542C4424480E70
:10087000591E6A1E7B1E8485838480FB87F8912C19
:10088000A12CB12CB82CAA2499248824968585857E
:1008900090FB87F990E0A0E0B0E0DC019927882781
:1008A000880E991EAA1EBB1E9289818990FB87F92A
:1008B000B501A401480F511D611D711D80898784F8
:1008C00080FB87F8912CA12CB12CBA2CA92C982C48
:1008D0008824840E951EA61EB71E61E08C2D0E94F2
:1008E0008B0E113089F460E08C2D0E945B0E83E04A
:1008F00090E00197F1F761E08C2D0E945B0EC20140
:100900000E94DE0E60E010C061E08C2D0E945B0E44
:1009100083E090E00197F1F760E08C2D0E945B0E80
:10092000C2010E94DE0E61E08C2D0E945B0E60E031
:100930008D2D0E948B0E2D2D30E0F901EA57FF4FCF
:100940006491F901EE58FF4FE491112311F0462F05
:1009500001C040E0F0E0EE0FFF1FE859FF4F859126
:100960009491950184013F700E944B1A61157105A5
:100970008105910539F0DC01CB010196A11DB11D66
:10098000BF7003C080E090E0DC01D982BA83AB8302
:100990009C838D83AE014F5F5F4F65E070E085E71C
:1009A000AFC0662309F435C6DA011C9119821A8298
:1009B0001B821C821D8261E0812F0E948B0E60E0F1
:1009C000812F0E945B0E62E170E080E090E00E9467
:1009D0000E0F61E0812F0E945B0E8BE990E0019782
:1009E000F1F760E0812F0E948B0E41E1C42E47E2B7
:1009F000D42E812F0E94F50C892B29F4B1E0CB1A5B
:100A0000D108B9F768C031E1C32E37E2D32E812F68
:100A10000E94F50C019729F4E1E0CE1AD108B9F74C
:100A20005AC098E2C92ED12C07E0912CAA24A39495
:100A3000B12C81E1682E87E2782E812F0E94F50C7F
:100A4000892B29F4F1E06F1A7108B9F744C00E94AC
:100A5000E90E1B012C01B1E16B2EB7E27B2E812F39
:100A60000E94F50C019729F421E0621A7108B9F788
:100A700032C00E94E90EDC01CB0182199309A4095E
:100A8000B5098997A105B10578F0E1E0F0E0EC0F38
:100A9000FD1FE90DF11D2081C501002E01C0880F49
:100AA0000A94EAF7822B8083011103C0939407E034
:100AB00001C0015031E0C31AD10809F0BACF8981D1
:100AC00090E090935C0280935B028B8190E0909326
:100AD0005E0280935D026EE170E080E090E00E9433
:100AE0000E0FD7018C91898380915B028A8380915C
:100AF0005D028B83AE014F5F5F4F63E070E084E780
:100B00000E94BA1386C5662309F483C5FA01908151
:100B1000892F8F70833009F4E4C030F4813009F4F8
:100B20003AC1823061F075C5853009F4FCC108F422
:100B30007CC0863009F06DC50E94C50F6AC58091E2
:100B40004C02811166C580914B02811162C581E022
:100B500080934C0240E0A9E0FA2E8091F102481700
:100B600008F060C0842F90E0BC0169527D4FDB012A
:100B70002C91222309F452C0C090F502D090F602C5
:100B8000F89ED001F99EB00D1124AD5CBB4F1696B6
:100B90002D913C911797F901908118968C91189797
:100BA000982B908314960D911C91159718965C9133
:100BB00018978D919C9111979C01220F331F280F3C
:100BC000391F12968D919C911397DC01AA0FBB1FC0
:100BD0008A0F9B1FF601E80FF91FD8019C91852F02
:100BE0008095C82EC922592B9FB7F8942E0F3F1F0E
:100BF000E217F30789F0E190D80188E05C9300C028
:100C0000E7FECC92EE0C00C000C000C008F4CC920D
:100C100000C08A9599F7ECCF9FBF7894DB011C92B6
:100C20004F5F9BCF10924C02F4C4FA014181C28005
:100C30000381848190914B029111EBC490E0A0E07C
:100C4000B0E015E1880F991FAA1FBB1F1A95D1F7B5
:100C500010E020E030E05EE0000F111F221F331F84
:100C60005A95D1F7800F911FA21FB31F840F911DBA
:100C7000A11DB11DD12CE12CF12C67E0CC0CDD1CA9
:100C8000EE1CFF1C6A95D1F7C80ED91EEA1EFB1E8A
:100C9000C114D104E104F10491F44091EF025091A8
:100CA000F002CA01880F991F480F591F60E070E0D9
:100CB0008091F5029091F6020E944121CBC100E0A3
:100CC00010E08091EF029091F0020817190708F0E8
:100CD000C1C1B701A601C8010E949C0F0F5F1F4F41
:100CE000F0CF9181228153814481858106813091A9
:100CF0004B0231118EC4E92EF12CB0E82B9FE00C91
:100D0000F11C11242091EF023091F002E216F3065B
:100D100068F510E020E030E095E1000F111F221F80
:100D2000331F9A95D1F790E0A0E0B0E06EE0880F15
:100D3000991FAA1FBB1F6A95D1F7080F191F2A1FF9
:100D40003B1F050F111D211D311D50E060E070E0BB
:100D5000E7E0440F551F661F771FEA95D1F7400F54
:100D6000511F621F731FC7010E949C0F2091F10247
:100D7000AFEDB2E080E090E0821708F04AC4FC01D9
:100D80004D915D910196E416F506B0F7E952FD4FDD
:100D900081E080833EC4913009F03BC4633008F4A5
:100DA00038C4B0904A020E94C50FB11014C08BEA3B
:100DB000189FA12C1124A6941FEDC12E12E0D12E54
:100DC00003E314E0E3E0EE0EF11C712C662463945F
:100DD00082E0582E5FC0B3E3CB2EB4E0DB2E00E000
:100DE000602FC6010E94D70F0F5FF9E0CF0ED11C14
:100DF0000830B1F7DCCFF401808190E0A5E0959553
:100E00008795AA95E1F78130910509F450C08230A9
:100E1000910509F451C0892B31F41092F3026092CC
:100E2000F4025092F202F70131978081D7012C91A0
:100E3000B0E82B9F90011124280F311DF801318358
:100E40002083772009F43FC0F60132978081918199
:100E5000280F391FD6012D933D936D01F80193831F
:100E600082838090EF029090F00280819181880EC1
:100E7000991E9092F0028092EF028091F1028F5FB2
:100E80008093F1027394075F1F4FF3E0EF0EF11CA4
:100E90007A14E1F09701225031094901B110ABCF2A
:100EA000D9016C916F71C8010E94D70FA4CF109225
:100EB000F4026092F302B5CF1092F2026092F40253
:100EC0005092F302B0CF80E090E0C2CF8091F50263
:100ED0009091F602009731F00E9489201092F00262
:100EE0001092EF028114910409F493C38401000F5E
:100EF000111F080D191DC8010E94F41F9093F602DE
:100F00008093F502009751F0A80160E070E00E9424
:100F100041219092F0028092EF027BC31092F00286
:100F20001092EF0276C38181082F0F7109F492C0ED
:100F300085FBAA24A0F8E02EEE0CE00E91E0909341
:100F40004B02F12C10E086FBBB24B0F886FF28C0D2
:100F5000C7010E94F41F6C01009729F0A70160E00F
:100F600070E00E944121AA2039F06091EF02709157
:100F7000F002601B710B02C060E070E0CB01880FD3
:100F8000991F680F791F8091F5029091F602680F02
:100F9000791FA701C6010E942621A11023C319C0F1
:100FA000AA20B9F08091F5029091F6024091EF02EB
:100FB0005091F002401B510B9A01220F331F420F38
:100FC000531FBC018E0D9F1D0E942F2120E030E099
:100FD0002FC08091F5029091F6024091EF0250915E
:100FE000F002401B510B9A01220F331F420F531F77
:100FF000BC016E0D7F1D0E942F212091EF023091C8
:10100000F002201B310BBB2099F0C901880F991FFA
:10101000280F391F8091F5029091F602A701B601C1
:10102000820F931F0E942621C6010E94892010C0B2
:10103000C901880F991F280F391F8091F5029091DF
:10104000F602A70160E070E0820F931F0E94412129
:1010500010924B024091F10250E061E070E087EDA8
:1010600092E02D960FB6F894DEBF0FBECDBFDF9194
:10107000CF911F910F91FF90EF90DF90CF90BF9095
:10108000AF909F908F907F906F905F904F903F9028
:101090002F900C944121662309F4BBC2FA01B1815F
:1010A00072812381A481658136809781408480810B
:1010B00040910001481721F04F3F09F0AAC204C037
:1010C000EEEAF0E014917EC080930001EEEAF0E0D9
:1010D00014911F3F09F49DC2113031F1123009F40F
:1010E0004AC011116FC014BC15BC44B5426044BD68
:1010F00045B5416045BD482F50E0FA01EE58FF4F1D
:10110000E491F0E0EE0FFF1FE754FF4F05911491BB
:101110001093520200935102FA01EA57FF4FE491F3
:10112000E093500210E050C01092800010928100B5
:10113000409181004860409381004091810041606E
:1011400040938100482F50E0FA01EE58FF4FE491A0
:10115000F0E0EE0FFF1FE754FF4F0591149110933D
:101160004F0200934E02FA01EA57FF4FE491E093D9
:101170004D0211E029C01092B0001092B1004091D0
:10118000B00042604093B0004091B1004160409394
:10119000B100482F50E0FA01EE58FF4FE491F0E023
:1011A000EE0FFF1FE754FF4F05911491109360025B
:1011B00000935F02FA01EA57FF4FE491E093610266
:1011C00012E002C017FD25C2CA2ED12CE12CF12C51
:1011D00046015701F5E1880C991CAA1CBB1CFA9525
:1011E000D1F7C22ED12CE12CF12CAEE0CC0CDD1CC1
:1011F000EE1CFF1CAA95D1F7C80CD91CEA1CFB1CDD
:10120000CB0ED11CE11CF11C872E912CA12CB12CF2
:10121000B7E0880C991CAA1CBB1CBA95D1F7A70192
:101220009601280D391D4A1D5B1D2A873B874C8777
:101230005D87512C612C712C05E1440C551C661CFA
:10124000771C0A95D1F7C92ED12CE12CF12C9EE008
:10125000CC0CDD1CEE1CFF1C9A95D1F74C0C5D1CD0
:101260006E1C7F1C73016201C60ED11CE11CF11CB7
:10127000432C512C612C712C27E0440C551C661C0E
:10128000771C2A95D1F74C0C5D1C6E1C7F1C61E00D
:101290000E948B0E8A849B84AC84BD84AA24BB24C8
:1012A000812F8D7F09F0BAC060E072E18AE790E09B
:1012B000A50194010E947F1F2E833F834887598791
:1012C00069017A0121E0C21AD108E108F1083FEF73
:1012D000C316D104E104F10409F008F44BC060E442
:1012E00072E48FE090E0A50194010E947F1F6901E4
:1012F0007A0181E0C81AD108E108F108123001F53D
:101300009FEFC916D104E104F10409F008F468C1A3
:1013100060E970ED83E090E0A50194010E947F1FD9
:1013200069017A01A1E0CA1AD108E108F108BFEF0A
:10133000CB16D104E104F10409F0D0F583E067C0D5
:10134000EFEFCE16D104E104F104B1F0A8F068E4A7
:1013500078EE81E090E0A50194010E947F1F690171
:101360007A01F1E0CF1AD108E108F108112309F45C
:10137000DDC02DC181E001C082E01123A1F047C092
:101380008E819F81A885B9852AE0B595A795979507
:1013900087952A95D1F76C017D01E1E0CE1AD1083D
:1013A000E108F10885E095B5987F892B85BD6EC071
:1013B00068E478EE81E090E0A50194010E947F1F2F
:1013C00069017A0191E0C91AD108E108F108AFEF8B
:1013D000CA16D104E104F10409F008F4A5C064E2DE
:1013E00074EF80E090E0A50194010E947F1F6901E5
:1013F0007A0181E0C81AD108E108F1089FEFC91607
:10140000D104E104F10411F008F0B2C085E090913C
:10141000B100987F892B8093B10038C060E072E101
:101420008AE790E0A50194010E947F1F69017A017B
:10143000F1E0CF1AD108E108F108C114D10421E08C
:10144000E206F10488F068E478EE81E090E0A5011E
:1014500094010E947F1F69017A0181E0C81AD108B6
:10146000E108F10893E001C091E0113079F4809136
:101470008100887F892B809381004114510461048D
:10148000710449F42FEF3FEFA9012CC0411451041E
:101490006104710479F0AA85BB85AA0FBB1FA30163
:1014A00092010E949E1F28EE33E040E050E00E942F
:1014B000B11F03C02FEF3FEFA901113099F0123097
:1014C00019F11111A6C0C7BC2093570230935802DE
:1014D0004093590250935A0280916E00826080932B
:1014E0006E0097C0D0928900C0928800209353026A
:1014F00030935402409355025093560280916F00EE
:10150000826080936F0085C0C092B3002093620216
:10151000309363024093640250936502809170009F
:1015200082608093700075C084E071CFFFEFCF16AA
:10153000D104E104F104D1F0C8F062E17AE780E07F
:1015400090E0A50194010E947F1F69017A01B1E03A
:10155000CB1AD108E108F108EFEFCE16D104E1046F
:10156000F10411F008F00CCF84E01DCF83E01BCF15
:1015700062E17AE780E090E0A50194010E947F1F7C
:1015800069017A0181E0C81AD108E108F1089FEFEA
:10159000C916D104E104F104C1F0B8F08E819F8135
:1015A000A885B985EAE0B595A79597958795EA95B9
:1015B000D1F76C017D01E1E0CE1AD108E108F10814
:1015C000112309F4EFCE87E022CF86E0D6CEAFEF2D
:1015D000CA16D104E104F10409F050F684E0CDCE3E
:1015E00082E015CF8091F5029091F6024091EF02D2
:1015F0005091F002401B510B9A01220F331F420FF2
:10160000531FBC018E0D9F1D0E942F2120E030E052
:10161000FCCC2D960FB6F894DEBF0FBECDBFDF9188
:10162000CF911F910F91FF90EF90DF90CF90BF90DF
:10163000AF909F908F907F906F905F904F903F9072
:101640002F900895CF92DF92EF92FF920F931F9306
:10165000CF93DF936C017A018B01C0E0D0E0CE150F
:10166000DF0589F0D8016D918D01D601ED91FC91D6
:101670000190F081E02DC6010995892B11F47E01BE
:1016800002C02196ECCFC701DF91CF911F910F913E
:10169000FF90EF90DF90CF900895FC01918D828DA7
:1016A000981761F0828DDF01A80FB11D5D968C91B6
:1016B000928D9F5F9F73928F90E008958FEF9FEFC1
:1016C0000895FC01918D828D981731F0828DE80F7D
:1016D000F11D858D90E008958FEF9FEF0895FC0137
:1016E000918D228D892F90E0805C9F4F821B910904
:1016F0008F739927089586E993E00E946F0B21E08C
:10170000892B09F420E0822F0895FC01848DDF01EC
:10171000A80FB11DA35ABF4F2C91848D90E0019664
:101720008F739927848FA689B7892C93A089B18953
:101730008C9180648C93938D848D981306C002885D
:10174000F389E02D80818F7D80830895EF92FF9251
:101750000F931F93CF93DF93EC0181E0888F9B8DD4
:101760008C8D981305C0E889F989808185FD24C096
:10177000F62E0B8D10E00F5F1F4F0F731127E02E19
:101780008C8DE8120CC00FB607FCFACFE889F989F6
:10179000808185FFF5CFCE010E94850BF1CF8B8D27
:1017A000FE01E80FF11DE35AFF4FF0820B8FEA892B
:1017B000FB898081806207C0EE89FF896083E889A8
:1017C000F98980818064808381E090E0DF91CF910E
:1017D0001F910F91FF90EF900895CF93DF93EC014D
:1017E000888D8823C9F0EA89FB89808185FD05C041
:1017F000A889B9898C9186FD0FC00FB607FCF5CF7B
:10180000808185FFF2CFA889B9898C9185FFEDCFC2
:10181000CE010E94850BE7CFDF91CF91089580E044
:1018200090E0892B29F00E947B0B81110C94000021
:1018300008950E9421211F920F920FB60F9211243A
:101840002F933F934F935F936F937F938F939F93C8
:10185000AF93BF93EF93FF938091620290916302E5
:10186000A0916402B0916502892B8A2B8B2B59F1D0
:1018700080916102E0915F02F0916002908189277E
:1018800080838091620290916302A0916402B09182
:101890006502181619061A061B060CF03DC0809149
:1018A000620290916302A0916402B0916502019777
:1018B000A109B1098093620290936302A09364022C
:1018C000B093650229C080910001EEEAF0E0E49156
:1018D0009FEF90930001E130B9F098F0E230C9F445
:1018E000909170009D7F9093700091E09093B00074
:1018F0009091B100987F94609093B1001092B300E2
:1019000008C010926E0005C090916F009D7F90936B
:101910006F0060E00E945B0EFF91EF91BF91AF916D
:101920009F918F917F916F915F914F913F912F91F7
:101930000F900FBE0F901F9018951F920F920FB629
:101940000F9211242F933F934F935F936F937F9345
:101950008F939F93AF93BF93EF93FF9386E993E0A9
:101960000E94850BFF91EF91BF91AF919F918F9155
:101970007F916F915F914F913F912F910F900FBE8B
:101980000F901F9018951F920F920FB60F9211246F
:101990002F938F939F93EF93FF93E091A603F09182
:1019A000A7038081E091AC03F091AD0382FD12C0EA
:1019B00090818091AF038F5F8F732091B003821766
:1019C00051F0E091AF03F0E0EA56FC4F958F809321
:1019D000AF0301C08081FF91EF919F918F912F9173
:1019E0000F900FBE0F901F901895CF93DF93282F65
:1019F00030E0F901E656FF4F8491F901EA57FF4FB5
:101A0000D491F901EE58FF4FC491CC2391F081118C
:101A10000E94320EEC2FF0E0EE0FFF1FE859FF4F4F
:101A2000A591B491EC91ED2381E090E021F480E068
:101A300002C080E090E0DF91CF910895E0917402C0
:101A4000F0917502309709F009940895862F642F5C
:101A5000E0917202F0917302309711F0A90109949C
:101A600008950895862FE0916A02F0916B023097F5
:101A700011F0BA0109940895862FE0916C02F0915B
:101A80006D02309711F0BA0109940895862FE09104
:101A90006602F0916702309711F0BA010994089537
:101AA000862FE0916802F0916902309711F0BA0137
:101AB00009940895862FE0916E02F0916F0230979D
:101AC00011F0BA0109940895862FE0917002F09107
:101AD0007102309711F0BA010994089585ED809351
:101AE000BC008091BC0084FDFCCF10926B03089574
:101AF00040911903262F30E0240F311D213231058A
:101B0000DCF420916B032430C9F4FC0180E090E008
:101B1000861758F4309119032191DC01A950BD4F6B
:101B2000A30FB11D2C930196F3CF80911903680F79
:101B30006093190380E0089581E0089582E008959C
:101B40000895E091D6028091D502E81730F4F0E0D4
:101B5000EB54FD4F808190E008958FEF9FEF089543
:101B60009091D6028091D502981750F4E92FF0E0B9
:101B7000EB54FD4F208130E09F5F9093D60202C06E
:101B80002FEF3FEFC90108958091D50290E0209199
:101B9000D602821B91090895CF92DF92EF92FF92B5
:101BA0000F931F93CF93DF937C01262F972F8A01EA
:101BB00080916C03882391F0C62FD72F6E01C40E3D
:101BC000D51ECC15DD0571F06991D701ED91FC9121
:101BD0000190F081E02DC7010995F3CF642F822F8A
:101BE0000E94780DC801DF91CF911F910F91FF9056
:101BF000EF90DF90CF900895CF93DF931F92CDB7F2
:101C0000DEB7698320916C032223D1F020918F03EA
:101C1000203240F021E030E0FC013383228380E079
:101C200090E015C080916D03E82FF0E0E259FC4F81
:101C3000998190838F5F80936D0380938F0305C09C
:101C400061E0CE0101960E94780D81E090E00F9056
:101C5000DF91CF910895009721F0805C9F4F0C9405
:101C600058140895833081F028F4813099F082303F
:101C7000A1F008958730A9F08830B9F08430D1F40C
:101C8000809180008F7D03C0809180008F7780934A
:101C90008000089584B58F7702C084B58F7D84BDA0
:101CA00008958091B0008F7703C08091B0008F7D40
:101CB0008093B00008951F93CF93DF93282F30E0D7
:101CC000F901E656FF4F8491F901EA57FF4FD4918D
:101CD000F901EE58FF4FC491CC23C9F0162F8111A2
:101CE0000E94320EEC2FF0E0EE0FFF1FE754FF4F83
:101CF000A591B4918FB7F894111105C09C91ED2F67
:101D0000E095E92302C0EC91ED2BEC938FBFDF91BE
:101D1000CF911F910895CF93DF9390E0FC01EA5794
:101D2000FF4F2491FC01EE58FF4F8491882361F10D
:101D300090E0880F991FFC01E155FF4FC591D491A8
:101D4000FC01E754FF4FA591B491611109C09FB701
:101D5000F8948881209582238883EC912E230BC0F0
:101D6000623061F49FB7F8943881822F8095832385
:101D70008883EC912E2B2C939FBF06C08FB7F894CD
:101D8000E8812E2B28838FBFDF91CF9108958E306D
:101D900008F08E508770806480937C0080917A0078
:101DA000806480937A0080917A0086FDFCCF8091D8
:101DB00078002091790090E0922B0895823091056F
:101DC00038F0880F991F880F991F05970197F1F731
:101DD00008953FB7F8948091410390914203A091F8
:101DE0004303B091440326B5A89B05C02F3F19F0CB
:101DF0000196A11DB11D3FBFBA2FA92F982F88278B
:101E0000820F911DA11DB11DBC01CD0142E0660FE5
:101E1000771F881F991F4A95D1F708958F929F9237
:101E2000AF92BF92CF92DF92EF92FF926B017C0153
:101E30000E94E90E4B015C01C114D104E104F104DC
:101E4000F1F00E94E90EDC01CB0188199909AA0979
:101E5000BB09883E9340A105B10570F321E0C21A89
:101E6000D108E108F10888EE880E83E0981EA11CD5
:101E7000B11CC114D104E104F10419F7DDCFFF90C6
:101E8000EF90DF90CF90BF90AF909F908F9008958C
:101E90001F920F920FB60F9211242F933F938F939F
:101EA0009F93AF93BF938091790290917A02A09112
:101EB0007B02B0917C023091400323E0230F2D3749
:101EC00020F40196A11DB11D05C026E8230F02963E
:101ED000A11DB11D209340038093790290937A0253
:101EE000A0937B02B0937C028091410390914203C6
:101EF000A0914303B09144030196A11DB11D8093AD
:101F0000410390934203A0934303B0934403BF91D2
:101F1000AF919F918F913F912F910F900FBE0F9096
:101F20001F9018951F920F920FB60F9211240F90C9
:101F30000FBE0F901F9018959C01220F331F820F28
:101F4000931F2091F402E091F502F091F602E80F60
:101F5000F91FE20FF11D60832091F302E091F50279
:101F6000F091F602E80FF91FE20FF11D5083209166
:101F7000F202E091F502F091F6028E0F9F1FFC0134
:101F8000E20FF11D408380E008951092F10210925B
:101F9000F0021092EF02EFEDF2E0A7EDB2E0119245
:101FA00011921D9282E0EF3EF807C9F70895DC0117
:101FB00070E0FB01EA57FF4FE4911896EC931897F5
:101FC0006E587F4FFB018491E82FF0E0EE0FFF1F6A
:101FD000E754FF4F8591949115969C938E93149797
:101FE000FB016491E62FF0E0EE0FFF1FE155FF4F7C
:101FF0008591949117969C938E93169708952F929E
:102000003F925F926F927F928F929F92AF92BF9218
:10201000CF92DF92EF92FF920F931F93CF93DF93B4
:102020007C013901DA015C90232B19F466246A944F
:10203000762C8A011A01260E371EC0E0D0E0812CD2
:10204000912C87E0C82ED12C0215130509F444C049
:102050008614970408F068C05801F70180819181C7
:10206000FC01A081B181F80121918F01E22F0C2E9A
:1020700001C0EE0F0A94EAF7652D6E2B6F77ED9194
:10208000FC9109958FEF881A980AD5016C9170E040
:10209000C6018C1B9D0B02C0759567958A95E2F76A
:1020A000562E2196C730D10578F28614970461F236
:1020B000F70180819181DC01ED91FC91652D6F77B5
:1020C0000190F081E02D0995BFEF8B1A9B0A551CFA
:1020D0005524551C2797E6CF209731F18614970495
:1020E00018F5F70180819181DC01ED91FC9161E0AF
:1020F00070E001C0660FCA95EAF761506521019052
:10210000F081E02DDF91CF911F910F91FF90EF9023
:10211000DF90CF90BF90AF909F908F907F906F9007
:102120005F903F902F900994DF91CF911F910F9175
:10213000FF90EF90DF90CF90BF90AF909F908F90E7
:102140007F906F905F903F902F900895DF92EF9275
:10215000FF920F931F93CF93DF93FC01E058FF4F43
:10216000D080DD2009F45CC0319600811181D80156
:102170001196FC901197EC90EC01C05CDF4F8881C8
:102180009981009709F44CC0DC01ED91FC9101901C
:10219000F081E02D60EF099588819981DC01ED9156
:1021A000FC910190F081E02D69E709958881998182
:1021B000DC01ED91FC910190F081E02D6E2D0995EF
:1021C00088819981DC01ED91FC910190F081E02DF5
:1021D0006F2D09957801B2E0EB0EF11C0D0D111D6C
:1021E000E016F10661F020E030E0A70161E070E068
:1021F000CE010E94FF0FEFEFEE1AFE0AF1CF8881A9
:102200009981DC01ED91FC910190F081E02D67EF67
:10221000DF91CF911F910F91FF90EF90DF90099484
:10222000DF91CF911F910F91FF90EF90DF90089574
:10223000009711F00C94A61008951F920F920FB6FC
:102240000F9211242F933F934F935F936F937F933C
:102250008F939F93AF93BF93EF93FF938091B900B8
:10226000887F803609F49CC068F5883209F45BC029
:1022700090F4803109F454C038F4882309F4F6C08E
:10228000883009F44DC0F6C0883109F44CC0803262
:1022900009F45DC0EFC0803409F468C048F48033AD
:1022A00009F455C0883309F0E5C080936903D8C0AC
:1022B000803509F44FC0883509F45DC0883409F0D1
:1022C000D9C0D6C0883909F4C7C0A8F4883709F442
:1022D00067C038F4883609F463C0803709F460C0F9
:1022E000C9C0883809F4B8C0803909F45FC08038A3
:1022F00009F0C0C05BC0803B09F486C038F4803A66
:1023000009F466C0883A09F47FC0B4C0803C09F47F
:10231000A7C0883C09F4A4C0883B09F48AC0AAC0BD
:102320008091460310C090916803809167039817CD
:1023300070F5E091680381E08E0F80936803F0E010
:10234000E95BFC4F80818093BB0085EC86C0809365
:1023500069038EC0E091680381E08E0F809368036B
:102360008091BB00F0E0E95BFC4F808390916803B3
:10237000809167036EC0E091680381E08E0F8093C7
:1023800068038091BB00F0E0E95BFC4F80838091A3
:102390006A0381116DC081E08093450384EA61C0C6
:1023A00083E080936B0310923D03CFCF80913D0378
:1023B000803208F051C0E0913D0381E08E0F8093A0
:1023C0003D038091BB00F0E0E35EFC4F8083BDCF16
:1023D00085EC8093BC0010926B0380913D038032AA
:1023E00030F4E0913D03F0E0E35EFC4F1082609139
:1023F0003D0370E0E0911B03F0911C038DE193E03D
:10240000099510923D0336C084E080936B031092CF
:102410001A0310921903E0911703F091180309951C
:1024200080911903811105C081E0809319031092F6
:10243000F702E0911A0381E08E0F80931A03F0E017
:10244000E950FD4F80818093BB0090911A038091E9
:102450001903981708F479CF85E88093BC000AC067
:1024600085EC8093BC0010926B0304C0109269034A
:102470000E946E0DFF91EF91BF91AF919F918F914F
:102480007F916F915F914F913F912F910F900FBE70
:102490000F901F901895BF92CF92DF92EF92FF920C
:1024A0000F931F93CF93DF93EC01B8800B2D10E0B7
:1024B000603282E078070CF03DC0653B710514F096
:1024C00064EB70E0898128E830E06901C81AD1081E
:1024D00087FDD394D601AA0FBB1FAA0FBB1F6D01A6
:1024E000BB0FEE08FF08DB0177FF02C0A0E0B0E001
:1024F0008A8128E532E0281B310987FD3395220FB8
:10250000331F220F331FA901330F660B770B9A017C
:10251000AB012C193D094E095F090E94A91F24EB4C
:1025200030E040E050E00E947F1FC20ED31EE41E48
:10253000F51EB60143E0000F111F4A95E1F7F801BF
:10254000E95BFA4F748363838BE08B1558F18981C3
:1025500048E850E0481B510987FD5395440F551F2B
:10256000440F551F6417750784F02A8188E592E0AF
:10257000821B910927FD9395880F991F880F991F3A
:10258000AB01861797070CF4AC018FB7F894F801EC
:10259000E95BFA4F42505109440F551F5283418362
:1025A0008FBF1782DF91CF911F910F91FF90EF9016
:1025B000DF90CF90BF900895CF92DF92EF92FF927D
:1025C0001F93CF93DF93EC01162F6A017901888165
:1025D0008C3008F062C061E0812F0E948B0E8881F0
:1025E00098E0899FF0011124E95BFA4F1F739081F5
:1025F000907C192B108360E272E0AB014C195D09ED
:1026000057FF02C04D5F5F4F5595479555954795CC
:10261000498340E659E09A012E193F0937FF02C06D
:102620002D5F3F4F35952795359527952A836CE08B
:102630000E94E21F9CE0899FA001112420E030E06D
:10264000F901E40FF51F93E0EE0FFF1F9A95E1F7F4
:10265000E95BFA4F908196FD16C02F5F3F4F2C30FB
:10266000310571F781110FC01092800082E08093D4
:1026700081001092850010928400B19A80916F00C1
:10268000826080936F00E88188E0E89FF001112468
:10269000E95BFA4F8081806480838881DF91CF91EC
:1026A0001F91FF90EF90DF90CF9008951F93CF93ED
:1026B000DF9300D0CDB7DEB7182F7A83698380917E
:1026C000BB049091BC04009709F44EC0DC01ED916D
:1026D000FC911031A8F46115704490F4612F606E84
:1026E0000190F081E02D099522E030E0AE014F5FCE
:1026F0005F4F62E070E08BEB94E00E94FF0F34C00C
:102700000190F081E02D60EF09958091BB049091DC
:10271000BC04DC01ED91FC910190F081E02D6FE6AD
:1027200009958091BB049091BC04DC01ED91FC9172
:102730000190F081E02D612F099522E030E0AE019B
:102740004F5F5F4F62E070E08BEB94E00E94FF0F01
:102750008091BB049091BC04DC01ED91FC9101904F
:10276000F081E02D67EF09950F900F90DF91CF91E9
:102770001F910895EF92FF920F931F93CF93DF93D2
:10278000C82F8091BB049091BC040097C9F17A01D5
:102790008B01DC01ED91FC910190F081E02D60EF67
:1027A00009958091BB049091BC04DC01ED91FC91F2
:1027B0000190F081E02D6C2F0995E7010E0D1F1D92
:1027C000C017D10759F020E030E0AE0161E070E0C1
:1027D0008BEB94E00E94FF0F2196F2CF8091BB0417
:1027E0009091BC04DC01ED91FC910190F081E02D11
:1027F00067EFDF91CF911F910F91FF90EF900994B8
:10280000DF91CF911F910F91FF90EF900895FC0100
:1028100001900020E9F73197BF01681B790BAC01EB
:1028200081E70C94BA13682F86E993E00C94A60B09
:10283000FF920F931F93CF93DF9300D0CDB7DEB7F6
:10284000082F10E0F801ED56FC4F9081F62EF9228A
:1028500000571C4FF80190819F1511F12F2D30E08A
:102860003A832983A091BB04B091BC041097B1F0C6
:10287000682FED91FC9111976F7060690190F08164
:10288000E02DCD01099522E030E0AE014F5F5F4FB2
:1028900062E070E08BEB94E00E94FF0FF801F082A1
:1028A0000F900F90DF91CF911F910F91FF9008959E
:1028B000CF93DF93FC01A081B181109701F1EC016E
:1028C000ED91FC9111970190F081E02D69EFCD0120
:1028D000099588819981DC01ED91FC910190F0814D
:1028E000E02D62E0099588819981DC01ED91FC91F0
:1028F0000190F081E02D65E0DF91CF910994DF91A7
:10290000CF91089520918F0390918E03213208F08A
:102910004AC080916B038111FCCF32E030936B038E
:1029200031E030936A033FEF3093690310926803FC
:1029300020936703AEE6B3E047E453E0FA013E2F8D
:10294000341B321718F43D913193F9CF109246039E
:1029500020914603990F922B909346039091450343
:10296000913061F410924503909146039093BB001F
:102970009091BC0093FDF8CF95EC01C095EE90933B
:10298000BC0090916B039230E1F3909169039F3FFB
:1029900079F080916903803241F08091690380333E
:1029A00031F084E005C081E003C082E001C083E033
:1029B00010926D0310928F0310926C0308951F9371
:1029C000CF93DF93182FEB018091C0049091C10445
:1029D0006817790748F46091BE047091BF04C60F70
:1029E000D71F188380E018C0E091ED04F091EE0449
:1029F000309711F481E010C081E08093BD04809194
:102A0000D9049091DA0409958091C0049091C10491
:102A1000C817D90778F7DFCFDF91CF911F910895BD
:102A2000CF93DF93EC01FB0120E030E0CF01861B68
:102A3000970B2C173D0778F4DB01A20FB31F9C9175
:102A4000908311964C91479544274795942B9193E9
:102A50002E5F3F4FEBCFDF91CF910895833028F465
:102A6000E82FF0E0EA58FD4F60830895833008F0C6
:102A700062C0482F440F440F440F485F473108F0AD
:102A800046E1582F550F550F550F90E071E0541740
:102A9000F0F42EEF250F2231B8F4252F30E0F901A4
:102AA000E956FD4FE081E23078F4972B220F331F77
:102AB000F901E45EFD4FA1E0B0E0272F262311F4D9
:102AC000A0E0B0E0B183A083770F5F5FE0CF81111A
:102AD0000AC09C7FF8948BB1292F2095822369230B
:102AE000682B6BB927C08130C1F46923F89425B1F4
:102AF000892F8F7380958223262F2F73822B85B980
:102B000088B162956695669563709295969596954F
:102B1000937090959823692B0CC09F70F89428B1FE
:102B2000892F880F880F809582236923660F660F8F
:102B3000682B68B978940895CF93883080F54091D8
:102B400095025091960221E030E0672B81F4B901A3
:102B500002C0660F771F8A95E2F7CB0180959095AA
:102B600084239523909396028093950218C0082E93
:102B700002C0220F331F0A94E2F7242B352B309327
:102B800096022093950290913506911108C0C82FA6
:102B90000E94C70EBC018C2FCF910C945613CF917D
:102BA0000895EF92FF921F93CF93DF93182F7B012D
:102BB000863108F084C0C82FD0E0FE01E956FD4FF1
:102BC00080818330A1F0843009F079C01250123135
:102BD00008F06FC0FE01E25EF94F808126E0829F1F
:102BE000C001112488559A4F0E944B1262C01330C5
:102BF00049F08BEF810F823028F087EF810F83300F
:102C000008F057C061E0812F0E948B0EE114F1049F
:102C100011F460E005C08FEFE816F10429F461E0DB
:102C2000812F0E945B0E45C0FE01E656FF4FE491E6
:102C3000E330F9F048F4E130B9F0E230A1F584B5C1
:102C4000806284BDE8BC35C0E730E9F0E83019F1B6
:102C5000E43049F580918000806280938000F0929A
:102C60008B00E0928A0025C084B5806884BDE7BCF3
:102C700020C080918000806880938000F09289005D
:102C8000E092880016C08091B00080688093B00008
:102C9000E092B3000EC08091B00080628093B000DB
:102CA000E092B40006C020E8E216F1040CF0B7CFC1
:102CB000B0CFCC0FDD1FC45EDD4FF982E882DF911B
:102CC000CF911F91FF90EF900895EF92FF920F9395
:102CD0001F93CF93DF93D82F8B01C42F6F3F8FEFBC
:102CE0007807B1F081E080936C03D0938E0310924B
:102CF0006D0310928F038BE395E00E94FC0D0E9400
:102D0000821480914802909149020E94DE0E02C016
:102D100000E010E080916B038111FCCF2C2FC132B9
:102D200008F020E281E080936B0380936A039FEFB9
:102D30009093690310926803920F909367038093B6
:102D40004603809146039D2F990F892B809346035C
:102D500080914503813061F41092450380914603D0
:102D60008093BB008091BC0083FDF8CF85EC01C04F
:102D700085EE8093BC0080916B038130E1F38091FC
:102D80006803821710F420916803A7E4B3E045EBD1
:102D900052E0FA018E2F841B821718F48D918193D3
:102DA000F9CF1092D6022093D502EC2EF12C30E010
:102DB000E216F306A1F4D093FC050093FD0500E0B4
:102DC00010E00E151F05ACF48BE395E00E94B00DEA
:102DD000F801E450FA4F82830F5F1F4FF2CF2E1598
:102DE0003F051CF488EA91E002C080ED91E00E946A
:102DF0000714CE5F6C2F70E04CEF55E087E7DF9152
:102E0000CF911F910F91FF90EF900C94BA13A82FC0
:102E1000B0E0A25EB94F9C9186E0989FF00111242A
:102E2000E855FA4FE08188E0E89FF0011124E95B62
:102E3000FA4F80818F7B808380911C06981306C097
:102E4000992379F0915090931C060BC0882349F088
:102E5000E0911D06EF5FE0931D06F0E0E151FA4FAF
:102E600090838FEF8C930895DB0190911C069C302A
:102E700098F530911D06682F70E0332369F0E32F39
:102E8000F0E0E151FA4F8081FB01E25EF94F80836F
:102E9000315030931D0607C0FB01E25EF94F90836D
:102EA0009F5F90931C06FB01E25EF94F808126E054
:102EB000829FC00111241A161B0634F4141615063D
:102EC0001CF49A01AD0104C020E639E040E252E072
:102ED00088559A4F0C94DC1287EF91E00C940714FC
:102EE000BF92CF92DF92EF92FF920F931F93CF93F7
:102EF000DF9300D0CDB7DEB7B82E6B01E82EF12CF2
:102F0000870109561D4FF8018081863061F4809158
:102F10003406882341F06630710529F0109234069A
:102F20008FEF809301014EEF4B0D4231D0F484E0DE
:102F3000C816D104B1F0F701E25EF94FE081EC3040
:102F400080F486E0E89FF0011124E855FA4FE08113
:102F500088E0E89FF0011124E95BFA4F808186FD4B
:102F6000C5C092EF9B0D983078F461E070E0E2E02C
:102F7000CE16D10411F060E070E0892F4A83998366
:102F80000E949C1599814A814231C8F4EB2DE69547
:102F9000E695E6958B2D8770F0E0ED56FC4F21E02D
:102FA00030E001C0220F8A95EAF7C114D10419F468
:102FB0008081282B03C02095808128232083F7015E
:102FC000EE0FFF1FE45EFD4F11821082F2E0CF167C
:102FD000D104A1F03CF4C114D104F9F0CA94CD2875
:102FE00051F175C0F4E0CF16D10409F44BC084F15F
:102FF000E6E0CE16D10409F462C069C0983008F04A
:103000008DC0423140F460E08B2D0E948B0E60E059
:103010008B2D0E945B0E82E057C0423108F07EC0CB
:1030200060E08B2D0E948B0E60E08B2D0E945B0E6A
:10303000F801108273C0423108F070C060E08B2D3F
:103040000E945B0E61E08B2D0E948B0E81E03CC0E4
:10305000F3E0BF1649F08BEF8B0D823028F087EF3D
:103060008B0D833008F05AC061E08B2D0E948B0ECF
:1030700061E08B2D0E948B0E60E08B2D0E945B0E19
:1030800083E022C0423108F049C084E0F801808327
:10309000F701E25EF94FE081EF3F71F186E0E89FD2
:1030A000F0011124E855FA4FE08188E0E89FF00133
:1030B0001124E95BFA4F808186FD30C01DC08EEE81
:1030C0008B0D823058F586E0F801808327C08BE0B5
:1030D00092E00F900F90DF91CF911F910F91FF9091
:1030E000EF90DF90CF90BF900C9407148B2D4A8304
:1030F0000E9407174A8135CF4FEF5FEF6FEF7FEFE9
:103100008B2D0F900F90DF91CF911F910F91FF901A
:10311000EF90DF90CF90BF900C9434170F900F90EA
:10312000DF91CF911F910F91FF90EF90DF90CF90A3
:10313000BF9008950F931F93CF93DF9381E0809307
:10314000350680913406882329F0109234068FEFDB
:1031500080930101109276021092930310929003D3
:1031600010927702109294031092910310927802B9
:1031700010929503109292030EE116E0C0E0DFEF8B
:1031800082EF8C0F883018F462E070E002C061E0DA
:1031900070E08C2F0E947017F801D1938F01CF5FE0
:1031A000C63171F7109296021092950210921D0688
:1031B00010921C060E94C50F10923506DF91CF9128
:1031C0001F910F9108951F920F920FB60F92112425
:1031D0002F933F934F935F936F937F938F939F931F
:1031E000AF93BF93EF93FF938091360687FF05C09F
:1031F000109285001092840016C020913606022E8F
:10320000000C330B8091A70590E0281739075CF478
:10321000E091360628E0E202F0011124E95BFA4F62
:10322000808186FD15C0809136068F5F80933606BB
:1032300020913606022E000C330B8091A70590E0FA
:10324000281739079CF4809136068C3034F10EC073
:10325000E091360628E0E202F0011124E95BFA4F22
:10326000808160E08F730E945B0EDDCF80918400CF
:103270009091850084349C4918F480E49CE905C051
:1032800080918400909185000496909389008093AA
:1032900088008FEF80933606EDC0E091360688E017
:1032A000E802F0011124E95BFA4F8781882309F4D1
:1032B000B5C0A0913606E091360688E0A802D0019C
:1032C0001124A95BBA4F28E0E202F0011124E95B66
:1032D000FA4F15962D913C91169781819281A0917C
:1032E0003606E09136068217930708F04BC088E057
:1032F000E802F0011124E95BFA4F28E0A202D001B4
:103300001124A95BBA4F17962C9181819281820F6B
:10331000911D92838183A0913606E091360688E064
:10332000A802D0011124A95BBA4F28E0E202F00103
:103330001124E95BFA4F15962D913C9116978181E6
:1033400092818217930708F469C0E0913606A09134
:10335000360688E0E802F0011124E95BFA4F28E024
:10336000A202D0011124A95BBA4F15968D919C91B0
:10337000169792838183E091360688E0E802F00197
:10338000112449C028E0E202F0011124E95BFA4F60
:1033900088E0A802D0011124A95BBA4F17962C919E
:1033A00081819281821B910992838183A09136064B
:1033B000E091360628E0A202D0011124A95BBA4FA1
:1033C00088E0E802F0011124E95BFA4F15962D918F
:1033D0003C9116978181928128173907F8F0E09186
:1033E0003606A091360628E0E202F0011124E95BDE
:1033F000FA4F88E0A802D0011124A95BBA4F1596B4
:103400008D919C91169792838183E091360628E0F6
:10341000E202F0011124E95BFA4F17822091840047
:1034200030918500E091360688E0E802F001112431
:10343000E95BFA4F81819281820F931F90938900FB
:1034400080938800E091360628E0E202F001112422
:10345000E95BFA4F808186FF0DC0E091360688E077
:10346000E802F0011124E95BFA4F808161E08F737B
:103470000E945B0EFF91EF91BF91AF919F918F9151
:103480007F916F915F914F913F912F910F900FBE60
:103490000F901F901895CF92DF92EF92FF920F93AB
:1034A0001F93E82FF92F05C0015011092109310997
:1034B00061F1908196239417B9F305C00150110969
:1034C0002109310911F1908196239413F7CFC12C72
:1034D000D12CE12CF12C0AC08FEFC81AD80AE80AC7
:1034E000F80A0C151D052E053F0579F0808186230D
:1034F000841791F36C2D7D2D8E2D9F2D1F910F9193
:10350000FF90EF90DF90CF90089560E070E080E052
:1035100090E01F910F91FF90EF90DF90CF90089572
:10352000CF93DF9300D0CDB7DEB7789484B58260B7
:1035300084BD84B5816084BD85B5826085BD85B557
:10354000816085BD80916E00816080936E001092D5
:103550008100809181008260809381008091810050
:1035600081608093810080918000816080938000E1
:103570008091B10084608093B1008091B00081603F
:103580008093B00080917A00846080937A0080916B
:103590007A00826080937A0080917A0081608093C3
:1035A0007A0080917A00806880937A001092C1003E
:1035B0008DE08093FB048091FC049091FD040E94B7
:1035C00089208091FB04A82EB12CC50101960E9490
:1035D000F41F9093FD048093FC04FC01EA0DFB1D95
:1035E000108212E0DC011C9325E011962C93A501BA
:1035F000425051096CE971E002960E94482181ED28
:1036000095E1909371028093700286E395E1909327
:103610006F0280936E028CE995E190936D02809326
:103620006C028EE295E190936B0280936A0280E7D0
:1036300097E190936902809368028EE890E09093FE
:103640007302809372028AE998E1909375028093E5
:103650007402E091A603F091A7031083E091A20306
:10366000F091A3031082E091A403F091A50380E1FF
:1036700080831092AE03E091AA03F091AB0386E041
:103680008083E091A803F091A90380818061808309
:10369000E091A803F091A903808188608083E09184
:1036A000A803F091A903808180688083E091A8033A
:1036B000F091A90380818F7D808380913A058111EB
:1036C00050C061E08DE00E948B0E62ED70E080E002
:1036D00090E00E940E0F61E08DE00E945B0E68E2B8
:1036E00070E080E090E00E940E0F60E08DE00E94AC
:1036F0005B0E62ED70E080E090E00E940E0F61E0F2
:103700008DE00E945B0E68E270E080E090E00E9435
:103710000E0F60E08DE00E945B0E6AEF70E080E0CB
:1037200090E00E940E0F10E062ED70E080E090E00B
:103730000E940E0F61E08DE00E945B0E68E270E077
:1037400080E090E00E940E0F60E08DE00E945B0E32
:103750001F5F153049F76DE770E080E090E00E9450
:103760000E0F86E993E09093FA048093F904909306
:10377000BC048093BB048BEB94E00E9458148BE74D
:1037800094E00E94A6100E949A18FF24F39442E04D
:10379000C42ED12C01E010E080917602882341F004
:1037A00069B18091930368236C7F80E00E941814B4
:1037B00080917702882371F063B196B1B0E49B9F4A
:1037C000C00111246F73862B60919403682381E0FC
:1037D0000E941814809178028823D9F066B16C7326
:1037E0006695669580919503682382E00E9418147F
:1037F00010C08091F9049091FA04DC01ED91FC91E4
:103800000680F781E02D09959C018F3FBFEF9B0754
:1038100071F48091F9049091FA04DC01ED91FC912E
:103820000480F581E02D0995892B19F7BEC1982FE9
:103830008091C604882309F492C0973F09F07EC0A6
:103840001092C604A091BE04B091BF046C91613780
:10385000C1F1693709F05CC0E091F304F091F40420
:103860003097B9F28091C7049091C80483309105D4
:1038700038F420E030E040E050E060E070E01BC051
:10388000BD016D5F7F4F03970E941015BC016D5FF6
:103890007F4F80E00E94DF14E091BE04F091BF04EE
:1038A0009F012D5F3F4F428150E0618170E0E091C8
:1038B000F304F091F4048091D5049091D604099515
:1038C000A8CF8091EF049091F004892B09F4A1CF47
:1038D000BD016F5F7F4F8091C7049091C80401972D
:1038E0000E941015BC016F5F7F4F80E00E94DF14C3
:1038F0006091BE047091BF046F5F7F4FE091EF0451
:10390000F091F0048091DB049091DC04099581CF63
:10391000E091F104F091F204309709F47ACF9D011F
:103920002F5F3F4F4091C7045091C8044150510947
:103930008091DD049091DE0409956BCF6091C704FE
:103940007091C804822F0E94DF148091C704909167
:10395000C80401969093C8048093C7045ACF60911D
:10396000C4047091C5046115710509F4AFC027FD49
:10397000ADC0615071097093C5046093C404822F77
:103980000E94DF148091C4049091C504892B09F032
:1039900040CF8091C204882309F43BCF803D09F4D5
:1039A0007FC030F4803939F1803C09F466C08BC0A7
:1039B000843FE1F1853F09F44DC0803E09F083C0AA
:1039C000E091E104F091E204309709F47CC0A09109
:1039D000BE04B091BF048C9111964C9150E020E848
:1039E000829F400D511D11246091C3048091C90430
:1039F0009091CA0467C0E091E304F091E404309729
:103A000009F461C0A091BE04B091BF048C911196DD
:103A10004C9150E090E8899F400D511D1124609118
:103A2000C3048091CB049091CC044CC0E091E90494
:103A3000F091EA04309709F446C0A091BE04B09119
:103A4000BF044C9150E011966C918091D1049091FB
:103A5000D20438C0E091EB04F091EC04309799F176
:103A6000A091BE04B091BF044C9150E011966C91AE
:103A70008091D3049091D40425C0E091E504F091A5
:103A8000E604309701F1A091BE04B091BF044C91BF
:103A900050E06091C3048091CD049091CE0412C097
:103AA000E091E704F091E804309769F0A091BE043A
:103AB000B091BF044C9150E06091C3048091CF0459
:103AC0009091D00409951092C204A3CE903F30F497
:103AD000822F8F708093C304922F907F903F79F153
:103AE00058F4903C29F118F49039E9F092CE903DC9
:103AF000F9F0903EC1F08DCE993F09F449C028F409
:103B00008CE0890F823078F084CE9F3F09F081CE1F
:103B10001092C5041092C4041092C2041092C304FF
:103B200080E090E013C0D092C504C092C40404C0E9
:103B30001093C5040093C4049093C2046ACEF0921B
:103B4000C6041092C8041092C70463CE2091C0042A
:103B50003091C1048217930748F4E091BE04F091BC
:103B6000BF04E80FF91F10820196F0CF1092C6042F
:103B70001092C8041092C704E091F704F091F80481
:103B8000309709F446CE8091DF049091E0040BC099
:103B9000E091F504F091F604309709F43ACE809163
:103BA000D7049091D804099534CE8FB7F8948090BB
:103BB000790290907A02A0907B02B0907C028FBF35
:103BC0008092B1029092B202A092B302B092B4027B
:103BD0008091AD029091AE02A091AF02B091B0027F
:103BE0004091020150910301052E000C660B770BEA
:103BF000881A990AAA0ABB0A481559056A057B055D
:103C000008F054C0840F951FA61FB71F8093AD0204
:103C10009093AE02A093AF02B093B00237E9A32E07
:103C200032E0B32E20E032EF320F3830D8F4F50115
:103C300080818230B9F48091950290919602032E92
:103C400002C0959587950A94E2F780FF0BC0832FF9
:103C50002A8339830E94C70EBC013981832F0E94B9
:103C600056132A812F5FFFEFAF1ABF0A2631D9F60C
:103C70008091010187FD1AC0B12CEB2DF0E08091FD
:103C80000101082E000C990B8E179F077CF0CF01C5
:103C9000880F991FE80FF91FE358FD4F618170E00D
:103CA000428180810E946516B394E7CF0E940F0C79
:103CB00073CD0895109299031092980388EE93E0C3
:103CC000A0E0B0E080939A0390939B03A0939C03A1
:103CD000B0939D0382E191E09093970380939603C4
:103CE00085EC90E09093A3038093A20384EC90E092
:103CF0009093A5038093A40380EC90E09093A70396
:103D00008093A60381EC90E09093A9038093A8038D
:103D100082EC90E09093AB038093AA0386EC90E052
:103D20009093AD038093AC031092AF031092B00355
:103D30001092B1031092B203E3E3F4E01182108217
:103D400013821282399664E0EB37F607B9F78BE7F6
:103D500094E01092BC041092BB049093BF04809333
:103D6000BE0420E430E03093C1042093C0041092DC
:103D7000C2041092C3041092C5041092C40410929D
:103D8000C6041092C8041092C7041092CA0410927C
:103D9000C9041092CC041092CB041092CE0410925D
:103DA000CD041092D0041092CF041092D20410923D
:103DB000D1041092D4041092D3041092DA04109219
:103DC000D9041092DC041092DB041092DE041092ED
:103DD000DD041092E0041092DF041092EE041092C1
:103DE000ED041092BD041092FB041092FD04109299
:103DF000FC0410923A0524E63DE03093E20420935F
:103E0000E1042AE53DE03093E4042093E3042CE34D
:103E10003DE03093E6042093E50422E33DE0309357
:103E2000E8042093E70420E53DE03093EA04209382
:103E3000E90426E43DE03093EC042093EB0421E315
:103E40003DE03093F0042093EF0426E23DE0309310
:103E5000F2042093F10428E131E13093F40420933B
:103E6000F3049093D6048093D5042BE23EE0309384
:103E7000F6042093F5049093D8048093D7048EE140
:103E80009DE09093F8048093F70410923E05109201
:103E90003D0588EE93E0A0E0B0E080933F0590936D
:103EA0004005A0934105B093420582E291E09093D2
:103EB0003C0580933B058091A705E8EAF5E09FEF7C
:103EC00028EB3BE044E051E08C3080F4808368E0F4
:103ED000869FD0011124A95BBA4F12963C932E9372
:103EE00011971582548343838F5F01C09083369668
:103EF00065E0E03FF60741F78093A7050895052E9A
:103F000097FB1EF400940E94961F57FD07D00E9455
:103F1000B11F07FC03D04EF40C94961F50954095AA
:103F2000309521953F4F4F4F5F4F08959095809565
:103F3000709561957F4F8F4F9F4F08950E94D31FBB
:103F4000A59F900DB49F900DA49F800D911D1124ED
:103F50000895B7FF0C949E1F0E949E1F821B930B17
:103F60000895A1E21A2EAA1BBB1BFD010DC0AA1FBA
:103F7000BB1FEE1FFF1FA217B307E407F50720F0D2
:103F8000A21BB30BE40BF50B661F771F881F991F4D
:103F90001A9469F760957095809590959B01AC0196
:103FA000BD01CF010895A29FB001B39FC001A39F9F
:103FB000700D811D1124911DB29F700D811D112462
:103FC000911D0895991B79E004C0991F961708F078
:103FD000961B881F7A95C9F780950895EE0FFF1FED
:103FE0000590F491E02D0994CF93DF9382309105F1
:103FF00010F482E090E0E0913906F0913A0620E07A
:1040000030E0C0E0D0E0309711F140815181481795
:104010005907C0F04817590761F4828193812097AE
:1040200019F09B838A832BC090933A0680933906BC
:1040300026C02115310519F04217530718F49A01CB
:10404000BE01DF01EF010280F381E02DDCCF2115FD
:10405000310509F1281B390B2430310590F41296F3
:104060008D919C9113976115710521F0FB0193834C
:10407000828304C090933A0680933906FD013296FC
:1040800044C0FD01E20FF31F819391932250310947
:104090002D933C933AC02091370630913806232B5C
:1040A00041F420910A0130910B013093380620939E
:1040B000370620910801309109012115310541F49D
:1040C0002DB73EB740910C0150910D01241B350BCB
:1040D000E0913706F0913806E217F307A0F42E1BA3
:1040E0003F0B2817390778F0AC014E5F5F4F24175C
:1040F000350748F04E0F5F1F509338064093370640
:104100008193919302C0E0E0F0E0CF01DF91CF9185
:1041100008950F931F93CF93DF93009709F48CC0FA
:10412000FC013297138212820091390610913A06EF
:104130000115110581F420813181820F931F209197
:104140003706309138062817390779F5F093380685
:10415000E093370671C0D80140E050E0AE17BF07CA
:1041600050F412962D913C911397AD012115310514
:1041700009F1D901F3CF9D01DA01338322836081F4
:104180007181860F971F8217930769F4EC012881CC
:104190003981260F371F2E5F3F4F318320838A815D
:1041A0009B8193838283452B29F4F0933A06E09315
:1041B000390642C01396FC93EE931297ED01499194
:1041C00059919E01240F351FE217F30771F4808186
:1041D0009181840F951F029611969C938E938281F4
:1041E000938113969C938E931297E0E0F0E0D801B0
:1041F00012968D919C911397009719F0F8018C01FC
:10420000F6CF8D919C9198012E5F3F4F820F931FA7
:1042100020913706309138062817390769F430970E
:1042200029F410923A061092390602C013821282C3
:104230001093380600933706DF91CF911F910F91AD
:10424000089581E090E0F8940C945721FB01DC0183
:1042500002C001900D9241505040D8F70895681760
:10426000790768F4FB01DC01E40FF51FA40FB51F0B
:1042700002C002900E9241505040D8F708950C941D
:104280002621DC0101C06D9341505040E0F70895B4
:10429000FB01DC014150504048F001900D9200209C
:1042A000C9F701C01D9241505040E0F7089510E059
:1042B000C3E6D0E004C0FE010E94EE1F2196C43682
:0842C000D107C9F7F894FFCF04
:1042C800FFFF130000642D6400003B06800000001F
:1042D8000000A60B220B6F0B4D0B610BED0B0000C2
:1042E8000000FC0DCC0DC40DB00DA10DA00D31309A
:1042F8002D6269742061646472657373696E6720E6
:104308006E6F7420737570706F7274656400746F6B
:104318006F206D616E7920717565726965730043F0
:104328003A5C55736572735C746F6E795F5C41704B
:1043380070446174615C526F616D696E675C4B6952
:104348007474656E626C6F636B5C776F726B73709D
:104358006163655C70726F6A6563745C70726F6AC2
:104368006563742E696E6F0049324320526561643B
:10437800204572726F723A20546F6F206D616E79AA
:104388002062797465732072656365697665640077
:104398004932432052656164204572726F723A2037
:1043A800546F6F2066657720627974657320726533
:1043B800636569766564004D617820736572766F10
:1043C8007320617474616368656400556E6B6E6F09
:0C43D800776E2070696E206D6F646500C8
:00000001FF
