:100000000C9463000C948B000C948B000C948C0C5F
:100010000C948C0C0C948C0C0C948B000C948B001A
:100020000C948B000C948B000C948B000C94FA0FA6
:100030000C948B000C948B000C948B000C948B0014
:100040000C94420C0C948B000C949D090C94770931
:100050000C948B000C948B000C948B000C948B00F4
:100060000C944A0E0C948B00000000002400270022
:100070002A0000000000250028002B0000000000DE
:1000800023002600290004040404040404040202DA
:100090000202020203030303030301020408102007
:1000A0004080010204081020010204081020000012
:1000B0000008000201000003040700000000000027
:1000C0000000261A251A11241FBECFEFD8E0DEBF8C
:1000D000CDBF12E0A0E0B1E0EAEEFCE302C0059083
:1000E0000D92A430B107D9F725E0A4E0B2E001C039
:1000F0001D92A938B207E1F710E0C2E6D0E004C0D3
:100100002197FE010E942E1CC136D107C9F70E941B
:1001100000160C94681E0C9400002F923F924F9290
:100120005F926F927F928F929F92AF92BF92CF9287
:10013000DF92EF92FF920F931F93CF93DF93CDB790
:10014000DEB768970FB6F894DEBF0FBECDBF182F8D
:10015000062F7A011A8219821C821B821E821D823E
:1001600040E050E068E471E0CE0101960E941E0973
:10017000103709F435C1E0F41B3609F4A5C188F441
:10018000113509F476C4193609F024C780EF90E0E0
:100190000E94BB108AE690E00E94BB1002EF1FEFA6
:1001A0004CC21D3609F4F4C11F3609F46CC112C7E4
:1001B000163779F038F4143709F425C3153709F4E4
:1001C00040C208C7183709F4C0C01A3709F444C13F
:1001D00001C7D70111968C91282F287185FF03C084
:1001E00089E291E057C0F7018081283061F168F41D
:1001F0002111F0C691E09093410380936303109224
:1002000042031092640312E006C02031E1F028316D
:1002100009F454C0DFC6101778F4F701E10FF11D9F
:1002200081816081F0E88F9F6019112480E195E061
:100230000E94EC0A1E5FEFCF0E94901183E191E0D3
:100240000197F1F7C7C6D70113969C9113971296A1
:100250004C91063071F4642FB0E89B9F6019112413
:10026000F70135819481492FF0E83F9F401911240F
:1002700005C030E8939F401911246FEF283021F416
:1002800070E00E941915A6C6E0910001E7302CF03D
:1002900089E491E00E944D119DC6EF5FE09300015B
:1002A0000E2E000CFF0B9F01220F331FE20FF31FD6
:1002B000E05BFD4F8083618342838CC670910001B7
:1002C000171624F08FEF8093000184C660E0472F5B
:1002D000072E000C550B262F30E0421753076CF009
:1002E000F901EE0FFF1F2E0F3F1FF901E05BFD4FDD
:1002F0009081981709F16F5FEECF60E01DC0683004
:10030000D0F4DC0111969D01220F331FA20FB31F01
:10031000A05BBD4F2C91FC01EE0FFF1F8E0F9F1FA6
:10032000FC01E05BFD4F208311968C911197818336
:1003300012968C9182836F5F862F90E04817590741
:10034000F4F671507093000145C6D7012C911196B7
:100350008C91B0E88B9FC0011124820F911D0097F2
:1003600021F09093310280933002809188028111B4
:1003700031C610E08EEE810F823028F466E070E026
:10038000812F0E94F6131F5F1631A1F781E0809341
:1003900088021092AA021092A902109242031092AF
:1003A00064031092400380933F0310921A0361E0AC
:1003B00082E10E946C0B61E083E10E946C0B8091F2
:1003C000B9008E7F8093B9008091B9008D7F8093B2
:1003D000B90088E48093B80085E48093BC00FAC536
:1003E000053008F4F7C5F7011081918142815381EE
:1003F00024818EEF810F8C3008F0ECC5612F70E006
:10040000DB011297FD01EE0FFF1FAE0FBF1FAF5BA9
:10041000BA4FEC91F0E07F01EE0CFF1CEE0DFF1DDA
:10042000E45EFA4F808186FF02C08F7B8083F0E814
:100430002F9F90011124250F311D80E8489FA001B6
:100440001124490F511DCD010E94780F64E070E026
:10045000812F0E94F613BEC5023008F4BBC5D70138
:100460002C9111968C91B0E88B9FC0011124820FC2
:10047000911D8A30910514F48AE090E09093020176
:1004800080930101A7C5023008F4A4C5F70161817A
:1004900070E00230A1F08281F0E88F9FC00111244A
:1004A000682B792B033059F0D70113968C9190E08B
:1004B00090E4899F902D88271124682B792BF701D0
:1004C00080810E94CD1286C580EF90E00E94BB1013
:1004D0008CE690E00E94BB101EEF84EF810F883005
:1004E00048F482E090E00E94BB108AE090E00E9415
:1004F000BB100BC0113049F483E090E00E94BB10A8
:1005000088E090E00E94BB1008C08DEF810F823020
:1005100098F389EF810F833078F31C3040F484E046
:1005200090E00E94BB108EE090E00E94BB1080EF34
:10053000810F823040F486E090E00E94BB1081E0A1
:1005400090E00E94BB108FE790E00E94BB101F5FFD
:10055000143191F1123108F660E08BE693E00E94CD
:100560007C0881E090E00E94BB1061E08BE693E0A4
:100570000E947C0881E090E00E94BB1065E78BE65A
:1005800093E00E947C0881E090E00E94BB10A5CF20
:10059000002309F41FC5D7010C9180EF90E00E9461
:1005A000BB108EE690E00E94BB10602F8BE693E0BC
:1005B0000E947C08063128F087EF90E00E94BB1073
:1005C00009C510E0F801E659FD4F60818BE693E024
:1005D0000E947C08000F111FF801EC5FFD4F0081A5
:1005E0001181C8018F7799270E94BB10C8018078BC
:1005F000892B49F0C801880F892F881F990B8F77A5
:1006000099270E94BB10C8018827907C892BA1F2F2
:10061000C801990F880B990F982F881F8F779927FA
:100620000E94BB10C9CF8FE790E00E94BB100F5F04
:100630001F4F0830110509F4BFCF0830A0F7C801DB
:10064000F4CFF7019381828190FB87F990E0A0E0DD
:10065000B0E0782F6627552744278581948180FB59
:1006600097F9892F90E0A0E0B0E0DC019927882776
:10067000840F951FA61FB71F3185208530FB27F9F2
:10068000820F911DA11DB11D2781868020FB87F857
:10069000912CA12CB12CBA2CA92C982C8824880E32
:1006A000991EAA1EBB1E818161E08130C1F4808148
:1006B0000E949C0B60E0D7018C910E946C0B83E040
:1006C00090E00197F1F761E0F70180810E946C0BE7
:1006D000C4010E94D80B60E0D7018C9113C0F701D0
:1006E00080810E946C0B83E090E00197F1F760E05D
:1006F000D7018C910E946C0BC4010E94D80B61E061
:10070000F70180810E946C0BD7011B968C911B977F
:100710001A968C901A9780FB87F8912CA12CB12CFB
:10072000B82CAA24992488241D968C911D971C9678
:100730009C9180FB97F9892F90E0A0E0B0E0DC016C
:1007400099278827880E991EAA1EBB1EF70191893A
:10075000808990FB87F9A5019401280F311D411D67
:10076000511DDA01C9012785868420FB87F8912C69
:10077000A12CB12CBA2CA92C982C8824880E991E57
:10078000AA1EBB1E60E080810E949C0BD7018C9149
:1007900090E0FC01E656FF4F6491FC01EA57FF4FE1
:1007A000E49111968C91882311F0462F01C040E00E
:1007B000F0E0EE0FFF1FE458FF4F859194919501F3
:1007C00084013F700E94BB1561157105810591057B
:1007D00039F0DC01CB010196A11DB11DBF7003C032
:1007E00080E090E0DC01F70120812F83B887A987A2
:1007F0009A878B87AE01495F5F4F65E070E085E7C0
:100800000E940011E7C3D70111961C911F82188620
:1008100019861A861B8661E0812F0E949C0B60E07E
:10082000812F0E946C0B62E170E080E090E00E94FA
:10083000080C61E0812F0E946C0B8BE990E001971E
:10084000F1F760E0812F0E949C0B41E1C42E47E24A
:10085000D42E812F0E94430B892B29F4B1E0CB1AAF
:10086000D108B9F768C031E1C32E37E2D32E812F0A
:100870000E94430B019729F4E1E0CE1AD108B9F7A1
:100880005AC098E2C92ED12C07E0912CAA24A39437
:10089000B12C81E1682E87E2782E812F0E94430BD4
:1008A000892B29F4F1E06F1A7108B9F744C00E944E
:1008B000E30B1B012C01B1E16B2EB7E27B2E812FE4
:1008C0000E94430B019729F421E0621A7108B9F7DD
:1008D00032C00E94E30BDC01CB0182199309A40909
:1008E000B5098997A105B10578F0E7E0F0E0EC0FD4
:1008F000FD1FE90DF11D2081C501002E01C0880FEB
:100900000A94EAF7822B8083011103C0939407E0D5
:1009100001C0015031E0C31AD10809F0BACF8F816C
:1009200090E09093360280933502898590E0909311
:1009300038028093370280EF0E94831184E70E947F
:10094000831184E70E948311D70111968C910E9434
:100950008311809137029091380214E6189FB001FC
:10096000199F700D11244AE0CE0143960E943F0961
:100970008091350290913602189FB001199F700D39
:1009800011244AE0CE0107960E943F091E861D866B
:10099000188A1F861A8A198A6F81788561157105F0
:1009A00039F04B855C85CE010D960E941E0904C06E
:1009B000CE010D960E940C098F89988DEB88FC88DA
:1009C00009891A89E114F10409F421C30097A9F0F7
:1009D000080F191FB801CE010D960E94E508882363
:1009E00009F415C32D853E8589899A89B701820F3F
:1009F000931F0E94521E1A8B098B6D857E8561158F
:100A0000710539F049895A89CE0101960E941E0963
:100A100004C0CE0101960E940C098D859E850E941E
:100A2000C91C8F8198850E94C91C8B899C890E9452
:100A3000C91CED80FE8000E010E0FF240E151F05AC
:100A4000A4F48D819E810817190748F489819A8141
:100A5000009729F0FC01E00FF11F808101C080E0C8
:100A60000E9483110F5F1F4FE9CF87EF0E94831110
:100A7000B1C2002309F4AEC2F7019081892F8F70B3
:100A8000833009F4E4C030F4813009F43AC1823093
:100A900061F0A0C2853009F4FCC108F47CC0863046
:100AA00009F098C20E94BF0C95C280913402811156
:100AB00091C28091330281118DC281E08093340212
:100AC00040E0A9E0FA2E8091C502481708F060C006
:100AD000842F90E0BC0165557D4FDB012C912223D2
:100AE00009F452C0C090C902D090CA02F89ED00149
:100AF000F99EB00D1124A85FBB4F16962D913C9125
:100B00001797F901908118968C911897982B9083DC
:100B100014960D911C91159718965C9118978D91CC
:100B20009C9111979C01220F331F280F391F129699
:100B30008D919C911397DC01AA0FBB1F8A0F9B1FFD
:100B4000F601E80FF91FD8019C91852F8095C82EDA
:100B5000C922592B9FB7F8942E0F3F1FE217F307B6
:100B600089F0E190D80188E05C9300C0E7FECC9268
:100B7000EE0C00C000C000C008F4CC9200C08A9502
:100B800099F7ECCF9FBF7894DB011C924F5F9BCF0E
:100B9000109234021FC2F7014181C2800381848117
:100BA00090913302911116C290E0A0E0B0E015E1FF
:100BB000880F991FAA1FBB1F1A95D1F710E020E0DC
:100BC00030E05EE0000F111F221F331F5A95D1F74E
:100BD000800F911FA21FB31F840F911DA11DB11D76
:100BE000D12CE12CF12C67E0CC0CDD1CEE1CFF1CA1
:100BF0006A95D1F7C80ED91EEA1EFB1EC114D10496
:100C0000E104F10491F44091C3025091C402CA017D
:100C1000880F991F480F591F60E070E08091C9024A
:100C20009091CA020E944B1ECCC100E010E080915E
:100C3000C3029091C4020817190708F0C2C1B70196
:100C4000A601C8010E94960C0F5F1F4FF0CF918143
:100C50002281538144818581068130913302311193
:100C6000B9C1E92EF12CB0E82B9FE00CF11C112446
:100C70002091C3023091C402E216F30668F510E039
:100C800020E030E065E1000F111F221F331F6A953D
:100C9000D1F790E0A0E0B0E07EE0880F991FAA1F96
:100CA000BB1F7A95D1F7080F191F2A1F3B1F050F8D
:100CB000111D211D311D50E060E070E0E7E0440FA0
:100CC000551F661F771FEA95D1F7400F511F621F0E
:100CD000731FC7010E94960C2091C502A3EBB2E0DE
:100CE00080E090E0821708F075C1FC014D915D91A4
:100CF0000196E416F506B0F7E555FD4F81E08083D7
:100D000069C1913009F066C1033008F463C1909065
:100D100032020E94BF0C911014C08BEA089F812CF4
:100D20001124869443EBA42E42E0B42E08E014E094
:100D3000E3E0EE0EF11C712C6624639452E0552E14
:100D40005FC038E0C32E34E0D32E10E0612FC6011F
:100D50000E94040D1F5FF9E0CF0ED11C1830B1F7CF
:100D6000DCCFF601808190E025E0959587952A9566
:100D7000E1F78130910509F450C08230910509F402
:100D800051C0892B31F41092C7026092C802509270
:100D9000C602F70131978081D7012C91B0E82B9FD3
:100DA00090011124280F311DF80131832083772011
:100DB00009F43FC0F501329780819181280F391FD6
:100DC000D5012D933D935D01F80193838283C090FB
:100DD000C302D090C40280819181C80ED91ED092E6
:100DE000C402C092C3028091C5028F5F8093C50286
:100DF0007394075F1F4FF3E0EF0EF11C7814E1F0DE
:100E000097012250310969019110ABCFD9016C9142
:100E10006F71C8010E94040DA4CF1092C8026092A5
:100E2000C702B5CF1092C6026092C8025092C702A4
:100E3000B0CF80E090E0C2CF8091C9029091CA0209
:100E4000009731F00E94C91C1092C4021092C30294
:100E5000C114D10409F4BEC08601000F111F0C0D8E
:100E60001D1DC8010E94341C9093CA028093C902C0
:100E7000009751F0A80160E070E00E944B1ED092F4
:100E8000C402C092C302A6C01092C4021092C30250
:100E9000A1C08181982F9F7109F493C085FB002721
:100EA00000F9E92EEE0CE90E21E020933302F12C3B
:100EB000892E912C86FB112710F986FF28C0C701C7
:100EC0000E94341C5C01009729F0A70160E070E0EB
:100ED0000E944B1E002339F06091C3027091C4023E
:100EE0006819790902C060E070E0CB01880F991F92
:100EF000680F791F8091C9029091CA02680F791F0B
:100F0000A701C5010E94301E011186C019C000232F
:100F1000B9F08091C9029091CA024091C3025091E8
:100F2000C402481959099A01220F331F420F531F57
:100F3000BC018E0D9F1D0E94391E20E030E02FC0A5
:100F40008091C9029091CA024091C3025091C4029B
:100F5000481959099A01220F331F420F531FBC0130
:100F60006E0D7F1D0E94391E2091C3023091C40274
:100F700028193909112399F0C901880F991F280FE1
:100F8000391F8091C9029091CA02A701B501820F51
:100F9000931F0E94301EC5010E94C91C10C0C901C8
:100FA000880F991F280F391F8091C9029091CA029A
:100FB000A70160E070E0820F931F0E944B1E109209
:100FC00033024091C50250E061E070E08BEA92E0AC
:100FD0000E944B1E89819A810E94C91C68960FB697
:100FE000F894DEBF0FBECDBFDF91CF911F910F915F
:100FF000FF90EF90DF90CF90BF90AF909F908F9039
:101000007F906F905F904F903F902F900895CE010A
:101010000D960E940C09F1CC8091C9029091CA02F0
:101020004091C3025091C402481959099A01220FF4
:10103000331F420F531FBC018E0D9F1D0E94391E8E
:1010400020E030E099CFCF92DF92EF92FF920F93A2
:101050001F93CF93DF936C017A018B01C0E0D0E046
:10106000CE15DF0589F0D8016D918D01D601ED9186
:10107000FC910190F081E02DC6010995892B11F4B6
:101080007E0102C02196ECCFC701DF91CF911F9165
:101090000F91FF90EF90DF90CF900895FC01918D1C
:1010A000828D981761F0828DDF01A80FB11D5D96CA
:1010B0008C91928D9F5F9F73928F90E008958FEF38
:1010C0009FEF0895FC01918D828D981731F0828DEC
:1010D000E80FF11D858D90E008958FEF9FEF089543
:1010E0008BE693E00E94CF0921E0892B09F420E0F0
:1010F000822F08950E942B1EEF92FF920F931F9351
:10110000CF93DF93EC0181E0888F9B8D8C8D9813BA
:1011100005C0E889F989808185FD24C0F62E0B8DF4
:1011200010E00F5F1F4F0F731127E02E8C8DE81218
:101130000CC00FB607FCFACFE889F989808185FFDA
:10114000F5CFCE010E94220BF1CF8B8DFE01E80F6F
:10115000F11DE35AFF4FF0820B8FEA89FB898081F2
:10116000806207C0EE89FF896083E889F989808100
:101170008064808381E090E0DF91CF911F910F9197
:10118000FF90EF900895CF93DF93EC01888D882333
:10119000C9F0EA89FB89808185FD05C0A889B989E4
:1011A0008C9186FD0FC00FB607FCF5CF808185FFBF
:1011B000F2CFA889B9898C9185FFEDCFCE010E942D
:1011C000220BE7CFDF91CF9108950F931F93CF9319
:1011D000DF93EC0188819981009729F02A813B8176
:1011E0002617370788F48B016F5F7F4F0E94611DC0
:1011F000009761F0998388831B830A832C813D814A
:10120000232B11F4FC01108281E001C080E0DF910A
:10121000CF911F910F910895CF93DF93EC018881B7
:101220009981009711F00E94C91C198218821D82B1
:101230001C821B821A82DF91CF910895EF92FF9258
:101240000F931F93CF93DF93EC017B018A01BA01C7
:101250000E94E508811104C0CE010E940C0907C05C
:101260001D830C83B701888199810E94521ECE0193
:10127000DF91CF911F910F91FF90EF900895EF9222
:10128000FF920F931F93CF93DF93CDB7DEB7629793
:101290000FB6F894DEBF0FBECDBF8C01CB01F801B5
:1012A00011821082138212821582148250E09E01F4
:1012B0002F5F3F4F7901B9010E94481BF701019050
:1012C0000020E9F73197AF014E195F09B701C80156
:1012D0000E941E0962960FB6F894DEBF0FBECDBF06
:1012E000DF91CF911F910F91FF90EF9008951F9282
:1012F0000F920FB60F9211242F933F934F935F934A
:101300006F937F938F939F93AF93BF93EF93FF93CD
:101310008BE693E00E94220BFF91EF91BF91AF917A
:101320009F918F917F916F915F914F913F912F91FD
:101330000F900FBE0F901F9018951F920F920FB62F
:101340000F9211242F938F939F93EF93FF93E0912C
:101350007B03F0917C038081E0918103F091820313
:1013600082FD12C09081809184038F5F8F732091E2
:101370008503821751F0E0918403F0E0E559FC4FBA
:10138000958F8093840301C08081FF91EF919F919D
:101390008F912F910F900FBE0F901F901895FC0109
:1013A000918D228D892F90E0805C9F4F821B910947
:1013B0008F739927089580E090E0892B29F00E948F
:1013C000700881110C9400000895833081F028F496
:1013D000813099F08230A1F008958730A9F08830EB
:1013E000B9F08430D1F4809180008F7D03C080916A
:1013F00080008F7780938000089584B58F7702C036
:1014000084B58F7D84BD08958091B0008F7703C02F
:101410008091B0008F7D8093B0000895E0914702E5
:10142000F0914802309709F009940895862F642FAF
:10143000E0914502F0914602309711F0A90109941C
:1014400008950895862FE0913D02F0913E02309775
:1014500011F0BA0109940895862FE0913F02F091AE
:101460004002309711F0BA0109940895862FE09157
:101470003902F0913A02309711F0BA0109940895B7
:10148000862FE0913B02F0913C02309711F0BA01B7
:1014900009940895862FE0914102F091420230971D
:1014A00011F0BA0109940895862FE0914302F0915A
:1014B0004402309711F0BA010994089585ED8093A4
:1014C000BC008091BC0084FDFCCF109240030895C5
:1014D0004091EE02262F30E0240F311D21323105DC
:1014E000DCF4209140032430C9F4FC0180E090E05A
:1014F000861758F43091EE022191DC01A453BD4FC0
:10150000A30FB11D2C930196F3CF8091EE02680FCB
:101510006093EE0280E0089581E0089582E00895EE
:101520000895E091AA028091A902E81730F4F0E052
:10153000E757FD4F808190E008958FEF9FEF08956A
:101540009091AA028091A902981750F4E92FF0E037
:10155000E757FD4F208130E09F5F9093AA0202C0C1
:101560002FEF3FEFC90108958091A90290E02091EB
:10157000AA02821B91090895CF92DF92EF92FF9207
:101580000F931F93CF93DF937C01262F972F8A0110
:1015900080914103882391F0C62FD72F6E01C40E8E
:1015A000D51ECC15DD0571F06991D701ED91FC9147
:1015B0000190F081E02DC7010995F3CF642F822FB0
:1015C0000E94680AC801DF91CF911F910F91FF908F
:1015D000EF90DF90CF900895CF93DF931F92CDB718
:1015E000DEB76983209141032223D1F02091640367
:1015F000203240F021E030E0FC013383228380E0A0
:1016000090E015C080914203E82FF0E0ED5BFC4FC5
:10161000998190838F5F809342038093640305C018
:1016200061E0CE0101960E94680A81E090E00F908F
:10163000DF91CF910895009721F0805C9F4F0C942B
:1016400059110895FC01848DDF01A80FB11DA35A23
:10165000BF4F2C91848D90E001968F739927848FD2
:10166000A689B7892C93A089B1898C9180648C93C9
:10167000938D848D981306C00288F389E02D8081B4
:101680008F7D80830895CF93DF93282F30E0F90179
:10169000E255FF4F8491F901E656FF4FD491F901CD
:1016A000EA57FF4FC491CC2391F081110E94E509C4
:1016B000EC2FF0E0EE0FFF1FE458FF4FA591B4911F
:1016C000EC91ED2381E090E021F480E002C080E025
:1016D00090E0DF91CF9108951F93CF93DF93282F50
:1016E00030E0F901E255FF4F8491F901E656FF4FD2
:1016F000D491F901EA57FF4FC491CC23C9F0162FBA
:1017000081110E94E509EC2FF0E0EE0FFF1FEE586B
:10171000FF4FA591B4918FB7F894111105C09C911A
:10172000ED2FE095E92302C0EC91ED2BEC938FBFF8
:10173000DF91CF911F910895CF93DF9390E0FC014B
:10174000E656FF4F2491FC01EA57FF4F849188230E
:1017500061F190E0880F991FFC01E859FF4FC59196
:10176000D491FC01EE58FF4FA591B491611109C0CD
:101770009FB7F8948881209582238883EC912E234B
:101780000BC0623061F49FB7F8943881822F809546
:1017900083238883EC912E2B2C939FBF06C08FB799
:1017A000F894E8812E2B28838FBFDF91CF91089585
:1017B0008230910538F0880F991F880F991F05977F
:1017C0000197F1F708953FB7F8948091160390912F
:1017D0001703A0911803B091190326B5A89B05C063
:1017E0002F3F19F00196A11DB11D3FBFBA2FA92FA0
:1017F000982F8827820F911DA11DB11DBC01CD011D
:1018000042E0660F771F881F991F4A95D1F7089508
:101810008F929F92AF92BF92CF92DF92EF92FF9200
:101820006B017C010E94E30B4B015C01C114D104EC
:10183000E104F104F1F00E94E30BDC01CB01881913
:101840009909AA09BB09883E9340A105B10570F327
:1018500021E0C21AD108E108F10888EE880E83E081
:10186000981EA11CB11CC114D104E104F10419F7A4
:10187000DDCFFF90EF90DF90CF90BF90AF909F9023
:101880008F9008951F920F920FB60F9211242F93ED
:101890003F938F939F93AF93BF9380914C0290910E
:1018A0004D02A0914E02B0914F023091150323E0FA
:1018B000230F2D3720F40196A11DB11D05C026E888
:1018C000230F0296A11DB11D2093150380934C0296
:1018D00090934D02A0934E02B0934F028091160355
:1018E00090911703A0911803B09119030196A11DBF
:1018F000B11D8093160390931703A0931803B09320
:101900001903BF91AF919F918F913F912F910F90AC
:101910000FBE0F901F9018951F920F920FB60F9247
:1019200011240F900FBE0F901F9018959C01220F4D
:10193000331F820F931F2091C802E091C902F091DA
:10194000CA02E80FF91FE20FF11D60832091C70260
:10195000E091C902F091CA02E80FF91FE20FF11DF0
:1019600050832091C602E091C902F091CA028E0F05
:101970009F1FFC01E20FF11D408380E0089510924B
:10198000C5021092C4021092C302E3EBF2E0ABEA8C
:10199000B2E0119211921D9282E0E33CF807C9F780
:1019A0000895CF9380918802882329F010928802AD
:1019B0008FEF8093000110924902109268031092F9
:1019C000650310924A021092690310926603109206
:1019D0004B0210926A0310926703C0E082EF8C0FF3
:1019E000883018F462E070E002C061E070E08C2F93
:1019F0000E94F613CF5FC63189F7109269021092E8
:101A00006802CF910C94BF0CDC0170E0FB01E6563C
:101A1000FF4FE4911896EC9318976A577F4FFB019C
:101A20008491E82FF0E0EE0FFF1FEE58FF4F8591F5
:101A3000949115969C938E931497FB016491E62FD5
:101A4000F0E0EE0FFF1FE859FF4F85919491179634
:101A50009C938E93169708952F923F925F926F9268
:101A60007F928F929F92AF92BF92CF92DF92EF922E
:101A7000FF920F931F93CF93DF937C013901DA011B
:101A80005C90232B19F466246A94762C8A011A013F
:101A9000260E371EC0E0D0E0812C912C87E0C82EA6
:101AA000D12C0215130509F444C08614970408F0DC
:101AB00068C05801F70180819181FC01A081B1814A
:101AC000F80121918F01E22F0C2E01C0EE0F0A9434
:101AD000EAF7652D6E2B6F77ED91FC9109958FEFED
:101AE000881A980AD5016C9170E0C6018C1B9D0B79
:101AF00002C0759567958A95E2F7562E2196C730F4
:101B0000D10578F28614970461F2F7018081918102
:101B1000DC01ED91FC91652D6F770190F081E02D56
:101B20000995BFEF8B1A9B0A551C5524551C279706
:101B3000E6CF209731F18614970418F5F7018081DC
:101B40009181DC01ED91FC9161E070E001C0660FD4
:101B5000CA95EAF7615065210190F081E02DDF918F
:101B6000CF911F910F91FF90EF90DF90CF90BF909A
:101B7000AF909F908F907F906F905F903F902F904D
:101B80000994DF91CF911F910F91FF90EF90DF901B
:101B9000CF90BF90AF909F908F907F906F905F900D
:101BA0003F902F900895DF92EF92FF920F931F9333
:101BB000CF93DF93FC01E058FF4FD080DD2009F484
:101BC0005CC0319600811181D8011196FC9011976B
:101BD000EC90EC01C05CDF4F88819981009709F49B
:101BE0004CC0DC01ED91FC910190F081E02D60EFA3
:101BF000099588819981DC01ED91FC910190F0813A
:101C0000E02D69E7099588819981DC01ED91FC91CE
:101C10000190F081E02D6E2D099588819981DC017C
:101C2000ED91FC910190F081E02D6F2D09957801E7
:101C3000B2E0EB0EF11C0D0D111DE016F10661F086
:101C400020E030E0A70161E070E0CE010E942C0DA1
:101C5000EFEFEE1AFE0AF1CF88819981DC01ED9158
:101C6000FC910190F081E02D67EFDF91CF911F9102
:101C70000F91FF90EF90DF900994DF91CF911F912A
:101C80000F91FF90EF90DF900895009711F00C9462
:101C9000D30D08951F920F920FB60F9211242F9318
:101CA0003F934F935F936F937F938F939F93AF93E4
:101CB000BF93EF93FF938091B900887F803609F43A
:101CC0009CC068F5883209F45BC090F4803109F457
:101CD00054C038F4882309F4F6C0883009F44DC0A4
:101CE000F6C0883109F44CC0803209F45DC0EFC001
:101CF000803409F468C048F4803309F455C088334F
:101D000009F0E5C080933E03D8C0803509F44FC088
:101D1000883509F45DC0883409F0D9C0D6C0883947
:101D200009F4C7C0A8F4883709F467C038F48836C6
:101D300009F463C0803709F460C0C9C0883809F469
:101D4000B8C0803909F45FC0803809F0C0C05BC0FA
:101D5000803B09F486C038F4803A09F466C0883ABA
:101D600009F47FC0B4C0803C09F4A7C0883C09F4E2
:101D7000A4C0883B09F48AC0AAC080911B0310C08C
:101D800090913D0380913C03981770F5E0913D03DD
:101D900081E08E0F80933D03F0E0E45EFC4F808194
:101DA0008093BB0085EC86C080933E038EC0E0919B
:101DB0003D0381E08E0F80933D038091BB00F0E0F6
:101DC000E45EFC4F808390913D0380913C036EC0A4
:101DD000E0913D0381E08E0F80933D038091BB0035
:101DE000F0E0E45EFC4F808380913F0381116DC081
:101DF00081E080931A0384EA61C083E0809340030A
:101E000010921203CFCF80911203803208F051C09C
:101E1000E091120381E08E0F809312038091BB004A
:101E2000F0E0EE50FD4F8083BDCF85EC8093BC0089
:101E30001092400380911203803230F4E09112033B
:101E4000F0E0EE50FD4F10826091120370E0E091DF
:101E5000F002F091F10282EF92E0099510921203E4
:101E600036C084E0809340031092EF021092EE029D
:101E7000E091EC02F091ED0209958091EE02811162
:101E800005C081E08093EE021092CC02E091EF0257
:101E900081E08E0F8093EF02F0E0E453FD4F8081EC
:101EA0008093BB009091EF028091EE02981708F4A6
:101EB00079CF85E88093BC000AC085EC8093BC0094
:101EC0001092400304C010923E030E945E0AFF91EC
:101ED000EF91BF91AF919F918F917F916F915F91A2
:101EE0004F913F912F910F900FBE0F901F9018951B
:101EF000DF92EF92FF920F931F93CF93DF93EC014A
:101F0000D62E7A01890188818C3008F06AC061E0A0
:101F10008D2D0E949C0B8881E82FF0E09F01220FFD
:101F2000331FE20FF31FE45EFA4F9D2D9F73208154
:101F3000207CD22ED92AD08260E272E0AB014E1909
:101F40005F0957FF02C04D5F5F4F55954795559507
:101F50004795498340E659E09A01201B310B37FF32
:101F600002C02D5F3F4F35952795359527952A83DC
:101F70006CE00E94221C9CE0899FB001112440E08B
:101F800050E09A01260F371FF901EE0FFF1F2E0FA9
:101F90003F1FF901E45EFA4F908196FD16C04F5F36
:101FA0005F4F4C30510569F781110FC010928000CE
:101FB00082E0809381001092850010928400B19A93
:101FC00080916F00826080936F00E881F0E0CF0124
:101FD000880F991FE80FF91FE45EFA4F8081806433
:101FE00080838881DF91CF911F910F91FF90EF90B7
:101FF000DF9008951F920F920FB60F9211242F9326
:102000003F934F935F936F937F938F939F93AF9380
:10201000BF93EF93FF938091CB0287FF05C010928F
:102020008500109284001BC02091CB02022E000C70
:10203000330B8091400590E02817390784F4809194
:10204000CB02082E000C990BFC01EE0FFF1F8E0F28
:102050009F1FFC01E45EFA4F808186FD15C08091D0
:10206000CB028F5F8093CB022091CB02022E000C1B
:10207000330B8091400590E028173907C4F4809114
:10208000CB028C3064F113C08091CB02082E000C7F
:10209000990BFC01EE0FFF1F8E0F9F1FFC01E45EEA
:1020A000FA4F808160E08F730E946C0BD8CF8091D3
:1020B000840090918500049680349C4918F480E453
:1020C0009CE905C0809184009091850004969093CE
:1020D0008900809388008FEF8093CB023BC02091D2
:1020E0008400309185008091CB02082E000C990B62
:1020F000FC01EE0FFF1F8E0F9F1FFC01E45EFA4FE5
:1021000081819281820F931F909389008093880030
:102110008091CB02082E000C990BFC01EE0FFF1FE3
:102120008E0F9F1FFC01E45EFA4F808186FF12C074
:102130008091CB02082E000C990BFC01EE0FFF1FC3
:102140008E0F9F1FFC01E45EFA4F808161E08F7368
:102150000E946C0BFF91EF91BF91AF919F918F9176
:102160007F916F915F914F913F912F910F900FBE93
:102170000F901F901895682F8BE693E00C947C08C5
:10218000FF920F931F93CF93DF9300D0CDB7DEB7AD
:10219000082F10E0F801E859FC4F9081F62EF92243
:1021A0000B591C4FF80190819F1511F12F2D30E034
:1021B0003A832983A0919004B09191041097B1F0D3
:1021C000682FED91FC9111976F7060690190F0811B
:1021D000E02DCD01099522E030E0AE014F5F5F4F69
:1021E00062E070E080E994E00E942C0DF801F0823A
:1021F0000F900F90DF91CF911F910F91FF90089555
:10220000EF92FF920F931F93CF93DF93C82F80918C
:102210009004909191040097C9F17A018B01DC013F
:10222000ED91FC910190F081E02D60EF0995809196
:10223000900490919104DC01ED91FC910190F0816A
:10224000E02D6C2F0995E7010E0D1F1DC017D1075A
:1022500059F020E030E0AE0161E070E080E994E008
:102260000E942C0D2196F2CF8091900490919104C0
:10227000DC01ED91FC910190F081E02D67EFDF91A1
:10228000CF911F910F91FF90EF900994DF91CF9123
:102290001F910F91FF90EF900895FC010190002095
:1022A000E9F73197BF01681B790BAC0181E70C940A
:1022B0000011CF93DF93FC01A081B181109701F150
:1022C000EC01ED91FC9111970190F081E02D69EF07
:1022D000CD01099588819981DC01ED91FC910190F6
:1022E000F081E02D62E0099588819981DC01ED9112
:1022F000FC910190F081E02D65E0DF91CF91099490
:10230000DF91CF910895A091CE04B091CF04ED91CB
:10231000FC9111970190F081E02D682FCD01099477
:102320002091640390916303213208F04AC08091A8
:1023300040038111FCCF32E03093400331E0309311
:102340003F033FEF30933E0310923D0320933C0345
:10235000A3E4B3E04CE153E0FA013E2F341B321703
:1023600018F43D913193F9CF10921B0320911B0378
:10237000990F922B90931B0390911A03913061F463
:1023800010921A0390911B039093BB009091BC0094
:1023900093FDF8CF95EC01C095EE9093BC00909121
:1023A00040039230E1F390913E039F3F79F080919A
:1023B0003E03803241F080913E03803331F084E06F
:1023C00005C081E003C082E001C083E010924203B7
:1023D000109264031092410308951F93CF93DF93EB
:1023E000182FEB0180919504909196046817790756
:1023F00048F46091930470919404C60FD71F18831A
:1024000080E018C0E091C204F091C304309711F449
:1024100081E010C081E0809392048091AE0490919D
:10242000AF0409958091950490919604C817D90737
:1024300078F7DFCFDF91CF911F910895CF93DF938E
:10244000EC01FB0120E030E0CF01861B970B2C173D
:102450003D0778F4DB01A20FB31F9C919083119686
:102460004C91479544274795942B91932E5F3F4F6E
:10247000EBCFDF91CF910895833028F4E82FF0E07F
:10248000E75BFD4F60830895883000F54091680256
:102490005091690221E030E0672B61F4B90102C07C
:1024A000660F771F8A95E2F7CB018095909584237C
:1024B000952308C002C0220F331F8A95E2F7CA0194
:1024C000822B932B90936902809368020895833046
:1024D00008F062C0482F440F440F440F485F473153
:1024E00008F046E1582F550F550F550F90E071E059
:1024F0005417F0F42EEF250F2231B8F4252F30E0D9
:10250000F901E659FD4FE081E23078F4972B220F74
:10251000331FF901EC5FFD4FA1E0B0E0272F262328
:1025200011F4A0E0B0E0B183A083770F5F5FE0CF4C
:1025300081110AC09C7FF8948BB1292F20958223AA
:102540006923682B6BB927C08130C1F46923F894E3
:1025500025B1892F8F7380958223262F2F73822B8D
:1025600085B988B1629566956695637092959695E2
:102570009695937090959823692B0CC09F70F89452
:1025800028B1892F880F880F809582236923660FD1
:10259000660F682B68B9789408956F927F928F9236
:1025A0009F92AF92BF92CF92DF92EF92FF920F93E2
:1025B0001F93CF93DF931F92CDB7DEB7982F3B01C8
:1025C000863108F003C1082F10E0F801E659FD4FED
:1025D0008081833009F48FC0843009F0F7C09250B5
:1025E0009C3008F0ECC0780182E0E81AF10867013D
:1025F000CC0CDD1C603282E078070CF042C077FD25
:1026000005C0653B710524F4DB0104C0A0E001C0F6
:10261000A4EBB0E0F601EE0DFF1DEF5BFA4F8181F8
:1026200028E830E04901881A910887FD9394880CC6
:10263000991C880C991C092C000CAA08BB088281E3
:1026400028E532E0281B310987FD3395220F331F1F
:10265000220F331FA901330F660B770B9A01AB01D1
:10266000281939094A095B090E94B21B24EB30E0A2
:1026700040E050E00E94881B820E931EA41EB51EEF
:1026800001C04B01F601EE0DFF1DEF5BFA4F2081FB
:102690002C3008F094C0318188E890E0831B9109C8
:1026A00037FD9395880F991F880F991F88169906F3
:1026B00084F0828148E552E0481B510987FD53951B
:1026C000440F551F440F551FC401481559050CF4FC
:1026D000CA010297880F991F4FB7F89430E0F901AB
:1026E000EE0FFF1F2E0F3F1FF901E45EFA4F92839A
:1026F00081834FBF64C0933049F08BEF890F8230E4
:1027000028F087EF890F833008F059C061E0892FE6
:1027100099830E949C0B99816114710411F460E00B
:1027200005C08FEF6816710429F461E0892F0E94BB
:102730006C0B45C0F801E255FF4FE491E330F9F02E
:1027400048F4E130B9F0E230A1F584B5806284BD8F
:1027500068BC35C0E730E9F0E83019F1E43049F5FC
:102760008091800080628093800070928B006092E4
:102770008A0025C084B5806884BD67BC20C0809174
:102780008000806880938000709289006092880049
:1027900016C08091B00080688093B0006092B30052
:1027A0000EC08091B00080628093B0006092B4004F
:1027B00006C080E8681671040CF0B7CFB0CF000FE8
:1027C000111FF801EC5FFD4F718260820F90DF9165
:1027D000CF911F910F91FF90EF90DF90CF90BF901E
:1027E000AF909F908F907F906F900895BF92CF92FF
:1027F000DF92EF92FF920F931F93CF93DF9300D05E
:10280000CDB7DEB7B82E8B01C82ED12CC6018659A4
:102810009D4F7C01FC018081863061F480918802AB
:10282000882341F06630710529F0109288028FEFFD
:10283000809300014EEF4B0D4C30C8F4043011056D
:10284000B1F0C6010297FC01EE0FFF1F8E0F9F1F14
:10285000FC01EF5BFA4FE081F0E0CF01880F991F98
:10286000E80FF91FE45EFA4F808186FDD3C092EF36
:102870009B0D983070F461E070E00230110511F0AA
:1028800060E070E0892F49839A830E9444129A8104
:1028900049814231C8F4EB2DE695E695E6958B2DFE
:1028A0008770F0E0E859FC4F21E030E001C0220FD2
:1028B0008A95EAF70115110519F48081282B03C0C8
:1028C0002095808128232083F601EE0FFF1FEC5F07
:1028D000FD4F118210820230110591F03CF4011578
:1028E0001105E9F00130110541F185C004301105F1
:1028F00009F44AC07CF10630110509F474C07BC0AC
:10290000983008F08AC0423140F460E08B2D0E947C
:102910009C0B60E08B2D0E946C0B82E069C0423101
:1029200008F07BC060E08B2D0E949C0B60E08B2D3B
:102930000E946C0BF701108270C0423108F06DC02C
:1029400060E08B2D0E946C0B61E08B2D0E949C0B34
:1029500081E04EC0F3E0BF1649F08BEF8B0D823063
:1029600028F087EF8B0D833008F057C061E08B2D86
:102970000E949C0B61E08B2D0E949C0B60E08B2DD4
:102980000E946C0B83E034C04C3008F046C084E0F9
:10299000F7018083C60102979C01220F331F820F2B
:1029A000931F8F5B9A4FFC01208130E0F901EE0FFD
:1029B000FF1F2E0F3F1FF901E45EFA4F208126FD15
:1029C0002CC020E639E040E252E0B6010F900F90B3
:1029D000DF91CF911F910F91FF90EF90DF90CF90FB
:1029E000BF900C94780F8EEE8B0D8230B0F486E0A1
:1029F000F701808312C083EA91E00F900F90DF917E
:102A0000CF911F910F91FF90EF90DF90CF90BF90EB
:102A10000C944D118F7B80832ACF0F900F90DF9104
:102A2000CF911F910F91FF90EF90DF90CF90BF90CB
:102A30000895EF92FF920F931F93CF93DF93D82FB8
:102A40008B01C42F6F3F8FEF7807B1F081E0809347
:102A50004103D0936303109242031092640380E118
:102A600095E00E94EC0A0E949011809130029091B2
:102A700031020E94D80B02C000E010E080914003B8
:102A80008111FCCF2C2FC13208F020E281E080932D
:102A9000400380933F039FEF90933E0310923D03CA
:102AA000920F90933C0380931B0380911B039D2FF7
:102AB000990F892B80931B0380911A03813061F455
:102AC00010921A0380911B038093BB008091BC007D
:102AD00083FDF8CF85EC01C085EE8093BC0080912A
:102AE00040038130E1F380913D03821710F420917F
:102AF0003D03ACE1B3E049E852E0FA018E2F841BBC
:102B0000821718F48D918193F9CF1092AA02209325
:102B1000A902EC2EF12C30E0E216F306A1F4D093DA
:102B200065050093660500E010E00E151F05ACF486
:102B300080E195E00E94A00AF801EB59FA4F8283E8
:102B40000F5F1F4FF2CF2E153F051CF484EB91E071
:102B500002C08CED91E00E944D11CE5F6C2F70E0B1
:102B600045E655E087E7DF91CF911F910F91FF90E8
:102B7000EF900C940011CF92DF92EF92FF920F939F
:102B80001F93E82FF92F05C00150110921093109C0
:102B900061F1908196239417B9F305C00150110992
:102BA0002109310911F1908196239413F7CFC12C9B
:102BB000D12CE12CF12C0AC08FEFC81AD80AE80AF0
:102BC000F80A0C151D052E053F0579F08081862336
:102BD000841791F36C2D7D2D8E2D9F2D1F910F91BC
:102BE000FF90EF90DF90CF90089560E070E080E07C
:102BF00090E01F910F91FF90EF90DF90CF9008959C
:102C0000CF93DF9300D0CDB7DEB7789484B58260E0
:102C100084BD84B5816084BD85B5826085BD85B580
:102C2000816085BD80916E00816080936E001092FE
:102C30008100809181008260809381008091810079
:102C4000816080938100809180008160809380000A
:102C50008091B10084608093B1008091B000816068
:102C60008093B00080917A00846080937A00809194
:102C70007A00826080937A0080917A0081608093EC
:102C80007A0080917A00806880937A001092C10067
:102C90008DE08093D0048091D1049091D2040E9461
:102CA000C91C0091D00410E0C80101960E94341C98
:102CB0009093D2048093D104FC01E00FF11F1082A5
:102CC00062E0F62EDC01FC9225E011962C93A8011F
:102CD0004250510967E971E002960E94591E8DEC3D
:102CE00092E1909344028093430287E692E19093AD
:102CF00042028093410284E492E1909340028093E7
:102D00003F028CE392E190933E0280933D0286EF76
:102D100093E190933C0280933B028DE890E0909386
:102D200046028093450281ED9CE090934802809397
:102D30004702E0917B03F0917C03F082E0917703FE
:102D4000F09178031082E0917903F0917A0380E1A9
:102D5000808310928303E0917F03F091800386E0EB
:102D60008083E0917D03F0917E0380818061808388
:102D7000E0917D03F0917E03808188608083E09103
:102D80007D03F0917E03808180688083E0917D03E4
:102D9000F0917E0380818F7D808380910F0581116A
:102DA00050C061E08DE00E949C0B62ED70E080E01D
:102DB00090E00E94080C61E08DE00E946C0B68E2DC
:102DC00070E080E090E00E94080C60E08DE00E94DE
:102DD0006C0B62ED70E080E090E00E94080C61E016
:102DE0008DE00E946C0B68E270E080E090E00E9451
:102DF000080C60E08DE00E946C0B6AEF70E080E0F0
:102E000090E00E94080C10E062ED70E080E090E03D
:102E10000E94080C61E08DE00E946C0B68E270E09B
:102E200080E090E00E94080C60E08DE00E946C0B56
:102E30001F5F153049F76DE770E080E090E00E9479
:102E4000080C8BE693E09093CF048093CE0490938C
:102E500091048093900480E994E00E94591180E5E8
:102E600094E00E94D30D0E94D10CDD24D39442E063
:102E7000642E712CEE24E394F12C80914902882376
:102E800041F069B18091680368236C7F80E00E9403
:102E9000C01080914A02882371F063B196B1B0E40A
:102EA0009B9FC00111246F73862B60916903682377
:102EB00081E00E94C01080914B028823D9F066B156
:102EC0006C736695669580916A03682382E00E9420
:102ED000C01010C08091CE049091CF04DC01ED9120
:102EE000FC910680F781E02D09959C018F3FBFEF93
:102EF0009B0771F48091CE049091CF04DC01ED9199
:102F0000FC910480F581E02D0995892B19F7BEC14C
:102F1000982F80919B04882309F492C0973F09F071
:102F20007EC010929B04A0919304B09194046C9184
:102F30006137C1F1693709F05CC0E091C804F091D4
:102F4000C9043097B9F280919C0490919D0483301C
:102F5000910538F420E030E040E050E060E070E0BF
:102F60001BC0BD016D5F7F4F03970E941E12BC0105
:102F70006D5F7F4F80E00E94ED11E0919304F0912E
:102F800094049F012D5F3F4F428150E0618170E0CA
:102F9000E091C804F091C9048091AA049091AB0417
:102FA0000995A8CF8091C4049091C504892B09F498
:102FB000A1CFBD016F5F7F4F80919C0490919D04D4
:102FC00001970E941E12BC016F5F7F4F80E00E943C
:102FD000ED1160919304709194046F5F7F4FE091C5
:102FE000C404F091C5048091B0049091B104099596
:102FF00081CFE091C604F091C704309709F47ACFED
:103000009D012F5F3F4F40919C0450919D04415082
:1030100051098091B2049091B30409956BCF6091EE
:103020009C0470919D04822F0E94ED1180919C045C
:1030300090919D04019690939D0480939C045ACF97
:103040006091990470919A046115710509F4AFC0FB
:1030500027FDADC06150710970939A046093990483
:10306000822F0E94ED118091990490919A04892BEE
:1030700009F040CF80919704882309F43BCF803D2D
:1030800009F47FC030F4803939F1803C09F466C01E
:103090008BC0843FE1F1853F09F44DC0803E09F0CB
:1030A00083C0E091B604F091B704309709F47CC076
:1030B000A0919304B09194048C9111964C9150E09E
:1030C00020E8829F400D511D112460919804809149
:1030D0009E0490919F0467C0E091B804F091B904F8
:1030E000309709F461C0A0919304B09194048C913D
:1030F00011964C9150E090E8899F400D511D11248C
:10310000609198048091A0049091A1044CC0E0913A
:10311000BE04F091BF04309709F446C0A091930417
:10312000B09194044C9150E011966C918091A6045A
:103130009091A70438C0E091C004F091C104309789
:1031400099F1A0919304B09194044C9150E01196A0
:103150006C918091A8049091A90425C0E091BA04D3
:10316000F091BB04309701F1A0919304B0919404C5
:103170004C9150E0609198048091A2049091A30436
:1031800012C0E091BC04F091BD04309769F0A091A9
:103190009304B09194044C9150E060919804809114
:1031A000A4049091A504099510929704A3CE903F92
:1031B00030F4822F8F7080939804922F907F903FED
:1031C00079F158F4903C29F118F49039E9F092CE55
:1031D000903DF9F0903EC1F08DCE993F09F449C081
:1031E00028F48CE0890F823078F084CE9F3F09F07C
:1031F00081CE10929A041092990410929704109222
:10320000980480E090E013C070929A046092990450
:1032100004C0F0929A04E0929904909397046ACEC5
:10322000D0929B0410929D0410929C0463CE209136
:103230009504309196048217930748F4E091930423
:10324000F0919404E80FF91F10820196F0CF1092CC
:103250009B0410929D0410929C04E091CC04F09188
:10326000CD04309709F446CE8091B4049091B50412
:103270000BC0E091CA04F091CB04309709F43ACE28
:103280008091AC049091AD04099534CE8FB7F89439
:1032900080904C0290904D02A0904E02B0904F0250
:1032A0008FBF8092840290928502A0928602B09293
:1032B00087028091800290918102A0918202B09158
:1032C00083024091010150910201052E000C660B12
:1032D000770B881A990AAA0ABB0A481559056A0584
:1032E0007B0508F0AFC0840F951FA61FB71F809302
:1032F000800290938102A0938202B09383023AE607
:10330000A32E32E0B32E12EF183008F076C0F5018C
:103310008081823009F071C08091680290916902C9
:10332000012E02C0959587950A94E2F780FF65C04B
:10333000812F806480937C0080917A0080648093E8
:103340007A0080917A0086FDFCCF209178008091F0
:10335000790030E0382B3A83298380919004909152
:103360009104009709F449C0DC01ED91FC910190B2
:10337000F081E02D2115304478F4612F606E0995BD
:1033800022E030E0AE014F5F5F4F62E070E080E925
:1033900094E00E942C0D31C060EF0995809190045B
:1033A00090919104DC01ED91FC910190F081E02D70
:1033B0006FE609958091900490919104DC01ED9164
:1033C000FC910190F081E02D612F099522E030E021
:1033D000AE014F5F5F4F62E070E080E994E00E94D1
:1033E0002C0D8091900490919104DC01ED91FC9161
:1033F0000190F081E02D67EF09951F5FBFEFAB1AD9
:10340000BB0A183009F080CF8091000187FD1AC0F7
:10341000C12CEC2DF0E080910001082E000C990BDE
:103420008E179F077CF0CF01880F991FE80FF91FB7
:10343000E05BFD4F618170E0428180810E9419153F
:10344000C394E7CF0E94DB0918CD089510926E0354
:1034500010926D0388EE93E0A0E0B0E080936F03DC
:1034600090937003A0937103B09372038DE091E089
:1034700090936C0380936B0385EC90E090937803BA
:103480008093770384EC90E090937A0380937903A0
:1034900080EC90E090937C0380937B0381EC90E040
:1034A00090937E0380937D0382EC90E09093800361
:1034B00080937F0386EC90E0909382038093810356
:1034C0001092840310928503109286031092870352
:1034D000E8E0F4E01182108213821282399624E02F
:1034E000E035F207B9F780E594E01092910410926C
:1034F0009004909394048093930420E430E03093FC
:1035000096042093950410929704109298041092B8
:103510009A041092990410929B0410929D041092A8
:103520009C0410929F0410929E041092A104109289
:10353000A0041092A3041092A2041092A504109269
:10354000A4041092A7041092A6041092A904109249
:10355000A8041092AF041092AE041092B10410921D
:10356000B0041092B3041092B2041092B5041092F9
:10357000B4041092C3041092C204109292041092E8
:10358000D0041092D2041092D10410920F0524E5B9
:103590003AE03093B7042093B6042AE43AE030933B
:1035A000B9042093B8042CE23AE03093BB04209392
:1035B000BA0422E23AE03093BD042093BC0420E434
:1035C0003AE03093BF042093BE0426E33AE0309300
:1035D000C1042093C00421E23AE03093C504209353
:1035E000C40426E13AE03093C7042093C60425E4DE
:1035F0003EE03093C9042093C8049093AB048093B9
:10360000AA042BE13BE03093CB042093CA049093AF
:10361000AD048093AC048EE09AE09093CD04809347
:10362000CC04109213051092120588EE93E0A0E0EE
:10363000B0E08093140590931505A0931605B09300
:1036400017058DE191E0909311058093100580910D
:103650004005A1E4B5E09FEF48EB5BE08C3078F4E7
:103660008C93282F30E0F901EE0FFF1F2E0F3F1F24
:10367000F901E45EFA4F528341838F5F01C09C934E
:10368000139625E0A536B20749F7809340050895C3
:103690004532510520F4423010F00C94531BFB01CD
:1036A0001082CB010895BB274A3031F4992322F4CC
:1036B000BDE2909581959F4F0C945F1BBB27FB014A
:1036C0005527AA27880F991FAA1FA41710F0A41B1B
:1036D00083955051B9F7A05DAA3308F0A95DA19375
:1036E000009779F7B111B1931192CB010C94781B2B
:1036F000DC01FC01672F71917723E1F7329704C059
:103700007C916D9370836291AE17BF07C8F30895E3
:10371000052E97FB1EF400940E949F1B57FD07D0B7
:103720000E94F11B07FC03D04EF40C949F1B509594
:103730004095309521953F4F4F4F5F4F089590959D
:103740008095709561957F4F8F4F9F4F08950E9490
:10375000131CA59F900DB49F900DA49F800D911DEB
:1037600011240895B7FF0C94A71B0E94A71B821B6E
:10377000930B08952F923F924F925F926F927F9298
:103780008F929F92AF92BF92CF92DF92EF92FF9271
:103790000F931F93CF93DF93CDB7DEB7CA1BDB0B1D
:1037A0000FB6F894DEBF0FBECDBF09942A883988C2
:1037B00048885F846E847D848C849B84AA84B984C9
:1037C000C884DF80EE80FD800C811B81AA81B981D5
:1037D000CE0FD11D0FB6F894DEBF0FBECDBFED01E9
:1037E0000895A1E21A2EAA1BBB1BFD010DC0AA1F42
:1037F000BB1FEE1FFF1FA217B307E407F50720F05A
:10380000A21BB30BE40BF50B661F771F881F991FD4
:103810001A9469F760957095809590959B01AC011D
:10382000BD01CF010895A29FB001B39FC001A39F26
:10383000700D811D1124911DB29F700D811D1124E9
:10384000911D0895991B79E004C0991F961708F0FF
:10385000961B881F7A95C9F780950895EE0FFF1F74
:103860000590F491E02D0994CF93DF938230910578
:1038700010F482E090E0E0918705F091880520E067
:1038800030E0C0E0D0E0309711F14081518148171D
:103890005907C0F04817590761F482819381209736
:1038A00019F09B838A832BC09093880580938705AA
:1038B00026C02115310519F04217530718F49A0153
:1038C000BE01DF01EF010280F381E02DDCCF211585
:1038D000310509F1281B390B2430310590F412967B
:1038E0008D919C9113976115710521F0FB019383D4
:1038F000828304C09093880580938705FD013296EA
:1039000044C0FD01E20FF31F8193919322503109CE
:103910002D933C933AC02091850530918605232B49
:1039200041F42091050130910601309386052093E2
:10393000850520910301309104012115310541F4E1
:103940002DB73EB74091070150910801241B350B5C
:10395000E0918505F0918605E217F307A0F42E1B90
:103960003F0B2817390778F0AC014E5F5F4F2417E3
:10397000350748F04E0F5F1F50938605409385052D
:103980008193919302C0E0E0F0E0CF01DF91CF910D
:1039900008950F931F93CF93DF93009709F48CC082
:1039A000FC013297138212820091870510918805DD
:1039B0000115110581F420813181820F931F20911F
:1039C0008505309186052817390779F5F093860526
:1039D000E093850571C0D80140E050E0AE17BF0705
:1039E00050F412962D913C911397AD01211531059C
:1039F00009F1D901F3CF9D01DA013383228360817C
:103A00007181860F971F8217930769F4EC01288153
:103A10003981260F371F2E5F3F4F318320838A81E4
:103A20009B8193838283452B29F4F0938805E0934F
:103A3000870542C01396FC93EE931297ED014991CE
:103A400059919E01240F351FE217F30771F480810D
:103A50009181840F951F029611969C938E9382817B
:103A6000938113969C938E931297E0E0F0E0D80137
:103A700012968D919C911397009719F0F8018C0183
:103A8000F6CF8D919C9198012E5F3F4F820F931F2F
:103A900020918505309186052817390769F43097FC
:103AA00029F4109288051092870502C013821282B1
:103AB0001093860500938505DF91CF911F910F919B
:103AC0000895A0E0B0E0E7E6FDE10C94BE1BEC0138
:103AD000009721F4CB010E94341CB8C0FC01E60F12
:103AE000F71F9C0122503109E217F30708F4ACC01C
:103AF000D9010D911C91119706171707B0F00530E9
:103B0000110508F49FC0C80104978617970708F4A9
:103B100099C002501109061B170B019311936D9365
:103B20007C93CF010E94C91C8DC05B01A01AB10A11
:103B30004C01800E911EA0918705B091880540E050
:103B400050E0E12CF12C109709F44AC0A815B905F2
:103B5000D1F56D907C901197630182E0C80ED11C65
:103B6000CA14DB0480F1A3014A195B096A0182E0EF
:103B7000C80ED11C1296BC9012971396AC91B5E06A
:103B8000CB16D10440F0B282A38351834083D90184
:103B90006D937C930AC00E5F1F4FC301800F911F6E
:103BA000F90191838083EB2DFA2FE114F10431F0B8
:103BB000D7011396FC93EE93129744C0F0938805B7
:103BC000E09387053FC08D919C9111974817590745
:103BD00008F4AC017D0112960D90BC91A02DB3CFDD
:103BE000809185059091860588159905E1F4461721
:103BF0005707C8F48091030190910401009741F4A4
:103C00008DB79EB74091070150910801841B950B19
:103C1000E817F907C8F4F0938605E0938505F901E4
:103C2000718360830FC0CB010E94341C7C0100971C
:103C300059F0A801BE010E94301ECE010E94C91C8D
:103C4000C70104C0CE0102C080E090E0CDB7DEB76E
:103C5000EEE00C94DA1B81E090E0F8940C94681E7E
:103C6000FB01DC0102C001900D9241505040D8F799
:103C700008956817790768F4FB01DC01E40FF51F6C
:103C8000A40FB51F02C002900E9241505040D8F7C9
:103C900008950C94301EDC0101C06D9341505040DA
:103CA000E0F70895FB01DC0101900D920020E1F79F
:103CB0000895FB01DC014150504048F001900D9205
:103CC0000020C9F701C01D9241505040E0F708950F
:103CD00010E0C2E6D0E004C0FE010E942E1C219636
:0A3CE000C336D107C9F7F894FFCFEF
:103CEA00FF1300000089058000000000007C082303
:103CFA0008CF094E086208C30800000000EC0ABC9D
:103D0A000AB40AA00A910A900A31302D6269742015
:103D1A0061646472657373696E67206E6F74207371
:103D2A007570706F7274656400746F6F206D616E68
:103D3A0079207175657269657300433A5C557365DC
:103D4A0072735C746F6E795F5C4170704461746108
:103D5A005C526F616D696E675C4B697474656E6203
:103D6A006C6F636B5C776F726B73706163655C70A9
:103D7A00726F6A6563745C70726F6A6563742E69C8
:103D8A006E6F00556E6B6E6F776E2070696E206D68
:103D9A006F6465004932432052656164204572723E
:103DAA006F723A20546F6F206D616E792062797458
:103DBA0065732072656365697665640049324320DC
:103DCA0052656164204572726F723A20546F6F2097
:103DDA0066657720627974657320726563656976B2
:043DEA00656400000C
:00000001FF
